:100000000C9441080C945E080C945E080C94570BF9
:100010000C945E080C945E080C945E080C94B21864
:100020000C945E080C945E080C945E080C945E08B8
:100030000C945E080C9459090C945E080C945E08AC
:100040000C94C02F0C945E080C945E080C945E080F
:100050000C945E084552524F520D0A0D0A000D0ACB
:1000600000436F6D70696C69657274206D697420EE
:100070004743432056657273696F6E20342E332ECA
:10008000350D0A00436F6D70696C6965727420618B
:100090006D204F6374202031203230313220756D55
:1000A0002030303A34333A35300D0A000A0D537996
:1000B0007374656D2052656164790A0D003A2050B1
:1000C0004F4E47210D0A002E2569002E2569002E6E
:1000D0002569002569004D792049503A202531696C
:1000E0002E2531692E2531692E2531690D0A0D0A1B
:1000F000005245414459210D0A000A0D4E49432042
:10010000696E69743A0048454C5020202020202D0B
:10011000207072696E742048656C70746578740D17
:100120000A3F20202020202020202D207072696E80
:10013000742048656C70746578740D0A5245534597
:1001400054202020202D207265736574207468650A
:1001500020415652202D20436F6E74726F6C6C6577
:10016000720D0A5443502020202020202D206C693D
:1001700073742074686520746370207461626C65A8
:100180000D0A4950202020202020202D206C69734A
:10019000742F6368616E67652069700D0A4E45545F
:1001A0002020202020202D206C6973742F6368612B
:1001B0006E6765206E65746D61736B0D0A524F55E5
:1001C0005445522020202D206C6973742F63686180
:1001D0006E676520726F757465722069700D0A54C0
:1001E000494D4520202020202D206765742074690A
:1001F0006D650D0A504F525441202020202D206C57
:1002000069737420504F5254410D0A504F5254415B
:10021000474554202D2067657420504F525441208B
:10022000302D370D0A504F525443202020202D20CE
:100230006C69737420504F5254430D0A504F5254FE
:1002400043474554202D2067657420504F52544336
:1002500020302D370D0A504F525443534554202D12
:100260002073657420504F52544320302D37203076
:100270002F310D0A504F525443544F47202D2074B4
:100280006F67676C6520504F52544320302D3720E4
:1002900078787878286D73290D0A5356202020200D
:1002A000202D20736574207661726961626C650D22
:1002B0000A415F5220202020202D20616464206E9E
:1002C00065772052756C6520746F20454550524FFC
:1002D0004D0D0A20202020202020202020205B41BE
:1002E0002E2E442C4C2C575D3B5B302E2E32353558
:1002F0005D3B5B3C2C3E2C3D2C212C7E5D3B5B41D1
:100300002E2E442C4C2C575D3B5B412E2E445D3BE6
:100310005B302E2E375D3B5B302E2E315D0D0A207B
:1003200020202020202020202020496620285049FD
:100330004E41313E3535297468656E20504F525418
:1003400043333D45494E202D3E205B415D5B315D91
:100350005B3E5D5B575D5B35355D5B435D5B335D90
:100360005B315D0D0A445F5220202020202D206447
:10037000656C6574652072756C65205B302E2E3956
:10038000395D0D0A535F5220202020202D207368F4
:100390006F772072756C65205B302E2E39395D0DBC
:1003A0000A4C5F5220202020202D206C697374207D
:1003B000616C6C2072756C65730D0A435F5220206E
:1003C0002020202D20636865636B2072756C65208A
:1003D0005B302E2E39395D0D0A525F5220202020CD
:1003E000202D2072756E2072756C65205B302E2E6C
:1003F00039395D00526567656C2028256929203DE3
:100400002025690D0A00526567656C282569293A1F
:10041000204966202820256325692025632025633F
:1004200025692029207468656E2025632569203D93
:10043000202569200D0A00526567656C2825692909
:100440003A206572666F6C677265696368200D0A91
:1004500000526567656C282569293A49662028207D
:1004600025632569202563202563256920292074BB
:1004700068656E2025632569203D202569200D0AC9
:1004800000526567656C28256929656E746665721A
:100490006E656E3A2569200D0A00526567656C3AF3
:1004A00049662028202563256920256320256325AA
:1004B000692029207468656E2025632569203D2008
:1004C0002569200D0A00454550524F4D205772694D
:1004D00074653A282569293A25690D0A0045455071
:1004E000524F4D2057726974653A282569293A257B
:1004F000630D0A00746F67676C65506F72744420F7
:100500002531692D3E253169206D730D0A00455254
:10051000524F5220504152414D4554455220205B8C
:1005200050696E2E5374617475735D0D0A007365A6
:1005300074706F727443202531692E2531690D0A5C
:100540000025690D0A0043353A2025690D0A433616
:100550003A2025690D0A43373A2025690D0A0043E0
:10056000323A2025690D0A43333A2025690D0A43A2
:10057000343A2025690D0A0043303A2025690D0AD6
:1005800043313A2025690D0A0025690025690D0AC5
:10059000004125693A2025690D0A0041303A20259D
:1005A000690D0A41313A2025690D0A41323A202568
:1005B000690D0A41333A2025690D0A002563000AB6
:1005C0000D54494D453A202532693A2532693A257C
:1005D00032690D0A00496E68616C7420646572208E
:1005E0005661726961626C655B2532695D203D20F0
:1005F0002532690D0A00526F757465722049503AB0
:10060000202531692E2531692E2531692E25316944
:100610000D0A004E45544D41534B3A202531692E69
:100620002531692E2531692E2531690D0A004D7954
:100630002049503A202531692E2531692E2531690E
:100640002E2531690D0A0041424344454647484939
:100650004A4B4C4D4E4F5051525354555657585982
:100660005A6162636465666768696A6B6C6D6E6F18
:10067000707172737475767778797A303132333479
:1006800035363738392B2F3D000400051A06FF0791
:100690001F080009000AFF0B19C100C00DC232CAB1
:1006A000EECB05C412C612C70CE400E522E2F9E362
:1006B00001E000E1013C68746D6C3E3C686561647A
:1006C0003E3C6D65746120687474702D6571756948
:1006D000763D22726566726573682220636F6E7460
:1006E000656E743D2233302220746578742F6874EF
:1006F0006D6C3B20636861727365743D69736F2D27
:10070000383835392D31223E0D0A3C7469746C65D8
:100710003E415652204E455420494F3C2F74697437
:100720006C653E0D0A3C7374796C65207479706554
:100730003D22746578742F637373223E0D0A2E6612
:10074000657474207B666F6E742D77656967687455
:100750003A20626F6C643B206D617267696E2D7424
:100760006F703A313570783B7D0D0A7464207B20C0
:1007700063656C6C70616464696E673A203270788E
:100780003B207D0D0A626F6479207B20666F6E745A
:100790002D66616D696C793A20617269616C3B20EC
:1007A00020666F6E742D73697A653A20312E302081
:1007B000656D3B20636F6C6F723A202330303030B0
:1007C00030303B206261636B67726F756E642D63BE
:1007D0006F6C6F723A20726762283235352C203286
:1007E00035352C20323034297D0D0A6831207B7458
:1007F0006578742D616C69676E3A2063656E746507
:10080000723B20666F6E742D7765696768743A2055
:10081000626F6C643B20636F6C6F723A207768691B
:1008200074653B20666F6E742D73697A653A20316A
:100830002E3220656D7D0D0A3C2F7374796C653EF8
:100840000D0A3C2F686561643E3C626F64793E3CF2
:1008500063656E7465723E0D0A3C7461626C65205E
:100860007374796C653D2277696474683A20363018
:100870003070783B20746578742D616C69676E3ACE
:10088000206C6566743B206261636B67726F756E86
:10089000642D636F6C6F723A207267622831353352
:1008A0002C203135332C20323535293B222063650D
:1008B0006C6C70616464696E673D2235223E0D0A7E
:1008C0003C74723E3C74643E3C2F74643E3C2F7416
:1008D000723E0D0A3C74723E3C74643E3C68313E8C
:1008E0004156522D4E45542D494F3C2F68313E0DF7
:1008F0000A3C7461626C65207374796C653D227783
:10090000696474683A20313030253B20666F6E741C
:100910002D7765696768743A20626F6C643B223E8C
:100920000D0A3C74723E3C74643E53657276657287
:100930007A6569743A20255449403C2F74643E3CE2
:100940007464207374796C653D22746578742D61CC
:100950006C69676E3A2072696768743B223E506129
:100960006765636F756E7465723A20255641403233
:10097000393C2F74643E3C2F74723E3C2F7461628C
:100980006C653E0D0A3C2F74643E3C2F74723E3CF5
:100990002F7461626C653E0D0A3C62723E3C666F6C
:1009A000726D206E616D653D22666F726D31222021
:1009B0006D6574686F643D22706F7374222061638B
:1009C00074696F6E3D2220223E0D0A3C7461626C98
:1009D00065207374796C653D2277696474683A2088
:1009E00036303070783B20746578742D616C69679F
:1009F0006E3A2063656E7465723B20616C69676E48
:100A00003D63656E7465723B206261636B67726FF4
:100A1000756E642D636F6C6F723A20726762283254
:100A200035352C203235352C20313533293B2220E9
:100A3000626F726465723D2230223E0D0A3C747210
:100A40003E3C74643E3C2F74643E3C2F74723E0DF9
:100A50000A3C74723E3C74643E3C2F74643E3C2FEE
:100A600074723E0D0A3C74723E3C74643E3C7020CD
:100A7000616C69676E3D2263656E746572223E49E2
:100A80004E5055542F4F55545055543C2F703E3CAA
:100A900068723E3C2F74643E3C2F74723E0D0A3CDB
:100AA00074723E3C74643E25494F3C2F74643E3C56
:100AB0002F74723E0D0A3C74723E3C74643E3C6876
:100AC000723E3C7020616C69676E3D2263656E7496
:100AD0006572223E3C696E70757420747970653D54
:100AE000227375626D697422206E616D653D2253BB
:100AF0005542222076616C75653D2253656E6465B2
:100B00006E223E3C2F703E3C2F666F726D3E3C2F36
:100B100074643E3C2F74723E0D0A3C2F7461626C0B
:100B2000653E0D0A3C2F74643E3C2F74723E3C2F90
:100B30007461626C653E0D0A3C62723E3C68723EB6
:100B40000D0A3C6469763E504F525442202D3E209F
:100B5000454E4332384A36303C2F6469763E0D0AA2
:100B60003C6469763E41636874756E673A204B65F4
:100B7000696E204C434420616E20504F52544320F4
:100B8000616E7363686C6965EFBFBD656E2120425D
:100B900065736368EFBFBD646967756E67206DEF4D
:100BA000BFBD676C6963682E3C2F6469763E0D0A91
:100BB0003C62723E0D0A3C6469763E57656273651D
:100BC0007276657220766F6E20556C72696368204C
:100BD00052616469672056312E302E39393C2F64BA
:100BE00069763E0D0A3C6469763E436F6D70696CB0
:100BF0006965727420616D204F637420203120324A
:100C000030313220756D2030303A34333A3532206D
:100C10006D6974204743432056657273696F6E2077
:100C2000342E332E353C2F6469763E0D0A3C6469C0
:100C3000763E56657273696F6E20312E3520526F85
:100C400042756520766F6D2031382E30322E32306D
:100C500030392066EFBFBD72204156522D4E4554AB
:100C60002D494F3C2F6469763E0D0A3C2F7370610D
:100C70006E3E3C2F626F64793E3C2F68746D6C3E13
:100C80000D0A25454E44002556414030340D0A25B5
:100C900056414030350D0A2556414030360D0A2563
:100CA000454E44003C666F726D206E616D653D225D
:100CB000666F726D3222206D6574686F643D2270BC
:100CC0006F73742220616374696F6E3D2220223E2F
:100CD000414444523A3C696E707574206E616D6592
:100CE0003D22414444223E3C62723E3C696E707536
:100CF0007420747970653D2268696464656E226E43
:100D0000616D653D22676E6161223E56414C5545DD
:100D10003A3C696E707574206E616D653D22564176
:100D20004C223E3C696E70757420747970653D226A
:100D30007375626D697422206E616D653D22535535
:100D400042222076616C75653D2253656E64656E46
:100D5000223E3C2F666F726D3E0D0A25454550526E
:100D60004F4D3C62723E0D0A25454E4400255255BA
:100D70004C45530D0A25454E4400485454502F31DC
:100D80002E302032303020446F63756D656E7420D4
:100D9000666F6C6C6F77730D0A5365727665723A85
:100DA000204156525F5745425F5377697463680D1F
:100DB0000A436F6E74656E742D547970653A2074B1
:100DC0006578742F68746D6C0D0A0D0A00485454D0
:100DD000502F312E302032303020446F63756D65D6
:100DE0006E7420666F6C6C6F77730D0A5365727644
:100DF00065723A204156525F5745425F5377697496
:100E000063680D0A436F6E74656E742D5479706556
:100E10003A20696D6167652F6A70670D0A0D0A00D7
:100E2000485454502F312E302034303120556E61CB
:100E30007574686F72697A65640D0A5365727665B8
:100E4000723A204156525F5745425F537769746347
:100E5000680D0A5757572D41757468656E7469633C
:100E60006174653A204261736963207265616C6DDB
:100E70003D224E65656450617373776F7264220D15
:100E80000A436F6E74656E742D547970653A2074E0
:100E90006578742F68746D6C0D0A0D0A003430315A
:100EA00020556E617574686F72697A656425454E68
:100EB0004400302C203135332C2030003135332C98
:100EC00020302C2030000000636865636B6564008F
:100ED0003C62723E00504F5354003C2F7461626C70
:100EE000653E0D0A003C2F74723E0D0A003C2F74C3
:100EF000643E00223E00206E616D653D224F5554D8
:100F0000222076616C75653D225400636865636BD1
:100F10006564003C696E70757420747970653D225B
:100F2000636865636B626F782220003C74643E00E6
:100F30003C2F74643E00223E00206E616D653D22B0
:100F40004F5554222076616C75653D2253006368CD
:100F500065636B6564003C696E70757420747970AC
:100F6000653D22636865636B626F782220003C7484
:100F7000643E003C2F74643E003C74643E00293B98
:100F8000223E3C2F74643E00302C3135332C30002F
:100F90003135332C302C30003C7464207374796C00
:100FA000653D226261636B67726F756E642D636F5E
:100FB0006C6F723A2072676228003C2F74643E00A6
:100FC0003C2F74643E3C74643E003C74723E3C743E
:100FD000643E50003C74723E3C74643E503C2F743E
:100FE000643E3C74643E4E616D653C2F74643E3CCF
:100FF00074643E56616C75653C2F74643E3C746449
:101000003E5377697463683C2F74643E3C74643E5D
:10101000546F67676C653C2F74643E3C2F74723E5E
:101020000D0A003C7461626C65207374796C653DD7
:101030002277696474683A2033303070783B223EFE
:101040000D0A0052756C657320636F756E7465725E
:1010500020736574206261636B20746F20300D0A09
:10106000003C62723E0029207468656E0069662843
:10107000003C62723E0052756C6520436F756E7461
:101080003A0011241FBECFE5D8E0DEBFCDBF12E08D
:10109000A0E6B0E0EEE6FDE602C005900D92A832B3
:1010A000B107D9F716E0A8E2B2E001C01D92A5375A
:1010B000B107E1F70E9460080C94B5360C9400006B
:1010C000DF92EF92FF920F931F93CF93DF931ABAA1
:1010D0008FEF84BB11BA60E875E280E090E00E9477
:1010E0002A090E94A92F0E94D93100D08CEA90E0F1
:1010F000EDB7FEB7928381830E94E80984E890E00F
:10110000EDB7FEB7928381830E94E80981E690E003
:10111000EDB7FEB7928381830E94E80980E090E0FA
:10112000A0E0B0E00F900F9000000196A11DB11D4E
:101130008034F2E49F07FFE0AF07F0E0BF07A1F7BC
:101140000E940C180E94B02B0E9442218BB7806233
:101150008BBF78949FEED92E8EE5E82E80E0F82E96
:10116000C4E5D0E0D6B80E94B4168091080580FF8F
:101170001DC000D0EDB7FEB7F282E1820E94E809FF
:101180000F900F9083E995E00E94321F882349F465
:1011900000D0EDB7FEB7D283C1830E94E8090F905B
:1011A0000F90809108058E7F8093080560918F05D0
:1011B00070919005809191059091920520E13EE01B
:1011C00040E050E00E94DF33CA01B90128E130E07D
:1011D00040E050E00E94DF336093CB0560918F05C3
:1011E0007091900580919105909192052CE330E0EB
:1011F00040E050E00E94DF33CA01B9012CE330E047
:1012000040E050E00E94DF336093620260918F05FE
:101210007091900580919105909192052CE330E0BA
:1012200040E050E00E94DF33862F6093FA046AE0CA
:101230000E94BF33993059F40E94F02F082F10E01C
:1012400004C0812F0E94A6301F5F1017D0F30E94A8
:10125000072088CF9B01AC0188E98AB984E0220F7E
:10126000331F441F551F8A95D1F760E074E284EF65
:1012700090E00E94DF33215029B9809108058B7FCF
:10128000809308050895982F8091080582FD03C07A
:101290005D9BFECF9CB90895CF93DF93EC0103C013
:1012A00021960E94430988818823D1F7DF91CF914D
:1012B00008951F920F920FB60F9211241F932F9330
:1012C0003F934F935F936F937F938F939F93AF93CE
:1012D000BF93EF93FF938091080582FD4BC01CB133
:1012E000812F0E9443098091080580FF04C08091EE
:1012F0000805826028C0183069F480912802909116
:101300002902892B09F452C0809128029091290268
:1013100001972BC01D30D1F4E0912802F0912902F1
:10132000EE56FA4F80818C3589F0E0912802F091D9
:101330002902ED56FA4F10821092290210922802CB
:101340008091080581608093080530C08091280253
:1013500090912902C19750F580912802909129021D
:10136000FC01ED56FA4F1083019690932902809369
:1013700028021CC020919C0030919D0080919E000D
:1013800090919F0001972817390781F08CB1F901DE
:101390008193F0939D00E0939C00E45CF54031F470
:1013A0002053304030939D0020939C00FF91EF919B
:1013B000BF91AF919F918F917F916F915F914F916D
:1013C0003F912F911F910F900FBE0F901F90189576
:1013D0006F927F928F929F92AF92BF92CF92DF9245
:1013E000EF92FF920F931F93DF93CF93CDB7DEB7AA
:1013F00064970FB6F894DEBF0FBECDBF8E010B5DB4
:101400001F4FF801E190F1908F01BB243E01089439
:10141000611C711C5BE0852E912C8C0E9D1E40E39F
:10142000A42E02C068018601F7018491882309F483
:1014300089C00894E11CF11C853209F080C0F701D5
:101440000894E11CF11C2491822F90E0C0970A9728
:1014500010F0822F0BC02B871C86C4010E943035F0
:10146000B82EF7010894E11CF11C8491893671F0C3
:101470008A3628F4823661F08336A1F61DC08337A0
:1014800049F0883729F18F3669F620C04AE021C03B
:1014900042E01FC032E0C32ED12CC00ED11EF80195
:1014A0000081118104C00F5F1F4F0E944309F801A2
:1014B00080818823C1F7B7CF22E0C22ED12CC00E85
:1014C000D11EF80180810E944309ADCF48E001C0E0
:1014D00040E192E0C92ED12CC00ED11EF8018081CE
:1014E0009181B30150E00E94223620E030E0A90152
:1014F0004F5F5F4FF301E20FF31F8081882311F0EC
:101500009A01F5CF8B2D90E0281739079CF4B21A79
:10151000F401C4018B0D911D01C0A192E817F907D8
:10152000E1F71082C401B3010E94ED35C301B4019B
:101530000E94F835C3010E944C09BB2474CF0E945D
:10154000430970CF64960FB6F894DEBF0FBECDBFCF
:10155000CF91DF911F910F91FF90EF90DF90CF908F
:10156000BF90AF909F908F907F906F90089540E0D4
:1015700050E09A01220F331F240F351FD901AA0F03
:10158000BB1FAA0FBB1FA454BB4F1A968D919C91F1
:101590001B97892B09F51C9211961C921197F90142
:1015A000EE0FFF1FEE0FFF1FE254FB4F108213964A
:1015B0001C921397F901EE0FFF1FEE0FFF1FE0546F
:1015C000FB4F108215961C92159716961D921D9230
:1015D0001D921C92199709C01A968D919C911B9788
:1015E00001971B969C938E931A974F5F5F4F4530E0
:1015F000510509F0BECF0895AC0120E001C02F5F76
:10160000A22FB0E0FD01EE0FFF1FEE0FFF1FE65D02
:10161000FD4F80819181892B91F7253050F45183C2
:101620004083AA0FBB1FAA0FBB1FA45DBD4F6D93C4
:101630007C93089520E001C02F5FA22FB0E0FD0150
:10164000EE0FFF1FEE0FFF1FE65DFD4F0190F081D3
:10165000E02D309719F0E817F90771F7253040F4BD
:10166000AA0FBB1FAA0FBB1FA65DBD4F6D937C9336
:101670000895AC0120E001C02F5FA22FB0E0FD0172
:10168000EE0FFF1FEE0FFF1FE25CFD4F8081918187
:10169000892B91F7253050F451834083AA0FBB1F4B
:1016A000AA0FBB1FA05CBD4F6D937C9308951F9242
:1016B0000F920FB60F9211248F938091FB048160DB
:1016C0008093FB041092540210925502109256021D
:1016D000109257028BB78F7D8BBF8F910F900FBEEB
:1016E0000F901F9018950F931F93CF93DF93009146
:1016F0006F021091700260E070E086E00830180719
:10170000C1F4FB01EE0FFF1FE60FF71FEE0FFF1FE7
:10171000EE0FFF1FE454FB4F268137814085518532
:1017200080917F0290918002A0918102B09182020B
:101730001AC00830110509F5FB01EE0FFF1FE60F77
:10174000F71FEE0FFF1FEE0FFF1FE454FB4F268124
:1017500037814085518580917D0290917E02A091D4
:101760007F02B0918002281739074A075B0729F4E6
:1017700084E690E09387828788C06F5F7F4F6530F3
:10178000710509F0BACF20E030E0A901440F551FE0
:10179000420F531FEA01CC0FDD1FCC0FDD1FC454D5
:1017A000DB4FBE016A5F7F4F8E819F81A885B9851F
:1017B0000097A105B10509F062C0E6E008301E07F8
:1017C00049F580916902888380916A0289838091BA
:1017D0006B02FA01EE0FFF1FEE0FFF1FE254FB4FEB
:1017E000808380916C028B8380916D02FA01EE0FF1
:1017F000FF1FEE0FFF1FE054FB4F808380916E02AE
:101800008D8380917F0290918002A0918102B0919E
:1018100082022BC008301105C1F5809169028883CE
:1018200080916A02898380916B02FA01EE0FFF1F9B
:10183000EE0FFF1FE254FB4F808380916C028B837D
:1018400080916D02FA01EE0FFF1FEE0FFF1FE054B3
:10185000FB4F808380916E028D8380917D029091F9
:101860007E02A0917F02B0918002FB018083918370
:10187000A283B38384E690E09B878A8706C02F5FAC
:101880003F4F2530310509F080CFDF91CF911F9177
:101890000F9108951F93AB01BC0120E030E0122F9F
:1018A000F901EE0FFF1FE20FF31FEE0FFF1FEE0F08
:1018B000FF1FE454FB4F86819781A085B185841773
:1018C0009507A607B70731F02F5F3F4F2530310549
:1018D00031F715E0812F1F910895FF920F931F9309
:1018E000182F092F20E030E0F22EF901EE0FFF1F34
:1018F000E20FF31FEE0FFF1FEE0FFF1FE454FB4F2D
:1019000086819781A085B18584179507A607B707BB
:1019100031F02F5F3F4F2530310531F726C0212FA1
:10192000302FC901DC0140E050E08F2D90E09C0198
:10193000220F331F280F391F220F331F220F331F8F
:10194000F901E40FF51FE454FB4F80818C93FA01F9
:10195000EB53FA4F808116968C9316974F5F5F4F2B
:1019600011964630510561F70FC0A5ECB5E0812F07
:10197000902F9C01F9019FEF90838D918683319682
:1019800085E0AB3CB807C1F71F910F91FF90089518
:10199000EF92FF920F931F93CF93DF937C018B0104
:1019A000EC0111C0888199812296F82FE0E0DF01D7
:1019B000A90FB11DCD01A0E0B0E0280F391F4A1FCB
:1019C0005B1F625070406230710560F7F801EE7F76
:1019D000EE0DFF1D00FF08C0908180E0A0E0B0E0A8
:1019E000280F391F4A1F5B1FCA01AA27BB27407057
:1019F0005070820F931FA41FB51F9D0144275527C8
:101A0000A070B070280F391F4A1F5B1F20953095BA
:101A1000C901DF91CF911F910F91FF90EF90089531
:101A2000AF92BF92CF92DF92EF92FF920F931F93EC
:101A30007C015A016B010E946D0C88E090E0F70177
:101A4000958784878701025F1F4F80E490E0F8014B
:101A50009783868380E88087809152029091530219
:101A6000019690935302809352029483858385E478
:101A7000F7018687F8011182A08AB18AC28AD38AC7
:101A80008091FC049091FD04A091FE04B091FF04AC
:101A900084879587A687B78713861286C80164E175
:101AA00070E020E030E040E050E00E94C80CF80117
:101AB000928783871F910F91FF90EF90DF90CF90D7
:101AC000BF90AF9008956F927F928F929F92AF9246
:101AD000BF92CF92DF92EF92FF920F931F93CF931B
:101AE000DF938C01EC01A296BC01625F7F4FDB01AA
:101AF0001C96CD90DD90ED90FC901F9740E050E05B
:101B0000E6E1AE2EB12C4A9DF0014B9DF00D5A9DA1
:101B1000F00D1124E75FFA4F80819181A281B3819A
:101B20008C159D05AE05BF0509F0A1C02481358146
:101B3000888199812817390709F099C08885998586
:101B4000AA85BB8580879187A287B3878C819D8179
:101B5000AE81BF8184879587A687B7878D85808B67
:101B600083898F3F11F083E0838BFB01F280E38058
:101B70002CEE3FEFE20EF31E8C8590E0807F90709C
:101B80009595879595958795E81AF90A00E010E0F4
:101B900086E190E0489FF001499FF00D589FF00DBD
:101BA0001124E75FFA4FA484B584C684D7842485C2
:101BB00035854685578564847584868497848485B5
:101BC0009585A685B785B82FAA2799278827AD2C94
:101BD000BB24CC24DD248A0D9B1DAC1DBD1D2070B3
:101BE00030705070232F342F452F5527820F931FAD
:101BF000A41FB51F20E03FEF40E050E062227322B7
:101C000084229522982C872C762C6624860D971D8D
:101C1000A81DB91D8E0D9F1DA01FB11F182F0027D5
:101C2000FF24EE242B2F332744275527E20EF31EE3
:101C3000041F151F9C01AD01207030705070232FC0
:101C4000342F452F5527E20EF31E041F151F8070F9
:101C5000A070B070BA2FA92F982F8827E80EF91E10
:101C60000A1F1B1FE486F586068717874FC04F5F44
:101C70005F4F4530510509F046CF20E030E066E186
:101C800070E0269FA001279F500D369F500D112414
:101C9000FA01E75FFA4F80819181A281B3810097B9
:101CA000A105B10569F5C082D182E282F382D80133
:101CB00092968D919C919397958384838A819B8141
:101CC0009783868388859985AA85BB858087918738
:101CD000A287B3878C819D81AE81BF8184879587E0
:101CE000A687B7878D85808B128A118A83E0838BC4
:101CF000148AFA01E25EFA4F80818E7F808306C0EB
:101D00002F5F3F4F2530310509F0BBCFDF91CF91D9
:101D10001F910F91FF90EF90DF90CF90BF90AF9009
:101D20009F908F907F906F900895EF92FF920F9306
:101D30001F93CF93DF937B018C0120E030E0C6E15D
:101D4000D0E0622F2C9FF0012D9FF00D3C9FF00DF5
:101D50001124E75FFA4F80819181A281B3818E15B2
:101D60009F05A007B10729F4848195818417950701
:101D700031F02F5F3F4F2530310519F765E0862F91
:101D8000DF91CF911F910F91FF90EF90089520E088
:101D900001C02F5FA22FB0E0FD01EE0FFF1FEE0F7D
:101DA000FF1FE25CFD4F0190F081E02D309789F03C
:101DB0009091870280918802E817F90751F7AA0FDE
:101DC000BB1FAA0FBB1FA05CBD4FED91FC9180E033
:101DD00009950895CF93DF93582F40E0282F30E0E6
:101DE00086E190E0289FE001299FD00D389FD00D1B
:101DF0001124C15FDA4F01C04F5FA42FB0E0FD0195
:101E0000EE0FFF1FEE0FFF1FE65DFD4F0190F0810B
:101E1000E02D309769F02881398188819981892F57
:101E20009927322F2227820F931FE817F90721F7EE
:101E3000AA0FBB1FAA0FBB1FA45DBD4FED91FC9164
:101E4000852F0995DF91CF910895863038F5282F99
:101E500030E086E190E0289FD001299FB00D389FA7
:101E6000B00D1124FD01E75FFA4F1082118212823A
:101E700013821582148217821682108611861286AA
:101E800013861486158616861786108A128A118A7A
:101E9000138AA25EBA4F8C918E7F8C9308954F92D5
:101EA0005F926F927F928F929F92AF92BF92CF92EA
:101EB000DF92EF92FF920F931F93CF93DF93EC018A
:101EC00081E7482E82E0582E70E086E190E0689F1E
:101ED000F001699FF00D789FF00D1124E75FFA4F34
:101EE0008681978190938602809385028481958173
:101EF0009093880280938702109298021092970222
:101F000081E094EF909394028093930280E5809314
:101F10009102E484F58406851785248535854685F8
:101F20005785A484B584C684D78484859585A68581
:101F3000B785982E882477246624E12EFF24002775
:101F400011276E0C7F1C801E911E20703070507007
:101F5000232F342F452F5527620E731E841E951E86
:101F600080E09FEFA0E0B0E0A822B922CA22DB22E5
:101F7000DC2CCB2CBA2CAA246A0C7B1C8C1C9D1C40
:101F8000808980939202808981FF16C00894611C29
:101F9000711C811C911C82E08093990284E08093E3
:101FA0009A0281E080939B0284EF80939C0280E6FA
:101FB00080939102C4E0D0E0562D44273327222796
:101FC000892D9927AA27BB27280F391F4A1F5B1F76
:101FD000D401C30180709070B070892F9A2FAB2FFD
:101FE000BB27280F391F4A1F5B1F80E09FEFA0E02F
:101FF000B0E0682279228A229B22B82DA72D962D47
:102000008827280F391F4A1F5B1F20938D023093AA
:102010008E0240938F025093900286E190E0689F79
:102020008001699F100D789F100D1124075F1A4FD2
:10203000F80180859185A285B3858093890290936C
:102040008A02A0938B02B0938C02CE018896D201B3
:1020500012969C93129713968C93139786E0199679
:102060008C93408151816281738183E692E00E946A
:10207000100D109296021092950270917302609169
:102080007402685F7F4F8091710290E08F70907052
:10209000880F991F880F991F681B790B6250704039
:1020A0009B0140E050E06E5F7F4F8DE792E00E9421
:1020B000C80C9093950280939602CE01C69663E673
:1020C00072E00E949622F801108ADF91CF911F9151
:1020D0000F91FF90EF90DF90CF90BF90AF909F90C7
:1020E0008F907F906F905F904F9008958F929F9206
:1020F000AF92BF92DF92EF92FF920F931F93CF9315
:10210000DF937B018C015A0149018BB78F7D8BBF17
:1021100020E030E046E150E0D22E249FE001259FF0
:10212000D00D349FD00D1124C75FDA4F888199817B
:10213000AA81BB810097A105B105F1F4822F0E940D
:10214000250FE882F9820A831B83BD82AC829F82BD
:102150008E8282ED94E0A0E0B0E088879987AA871C
:10216000BB8789E299E0A0E0B0E08C879D87AE87CD
:10217000BF878EE18B8B06C0D3942F5F3F4F2530F6
:10218000310551F62D2D30E086E190E0289FF001D9
:10219000299FF00D389FF00D1124E75FFA4F82E080
:1021A000808B80E090E06D2D0E944F0F8BB7806296
:1021B0008BBFDF91CF911F910F91FF90EF90DF9038
:1021C000BF90AF909F908F900895682F282F30E098
:1021D00086E190E0289FF001299FF00D389FF00DD7
:1021E0001124E75FFA4F8FEF9FEF928B818B81E194
:1021F000808B80E090E00E944F0F08957F928F9235
:102200009F92AF92BF92CF92DF92EF92FF920F9385
:102210001F93CF93DF9320E001C02F5F822E99247C
:10222000F401EE0FFF1FEE0FFF1FE65DFD4F019063
:10223000F081E02D309709F4ECC2909187028091F3
:102240008802E817F90749F790919202892F827165
:10225000823109F0C5C083E692E00E94630D2091AF
:102260007D0230917E0240917F0250918002C091A8
:102270008502D091860260E070E006E110E0609F88
:10228000F001619FF00D709FF00D1124E75FFA4F90
:1022900080819181A281B38182179307A407B5073A
:1022A00029F4848195818C179D0731F06F5F7F4FF2
:1022B0006530710521F7ADC2262F30E086E190E050
:1022C000289F4001299F900C389F900C112489E091
:1022D00095E0880E991E8EE1D40153968C93539706
:1022E0001C962D913D914D915C911F971C96ED9000
:1022F000FD900D911C911F971C96AD90BD90CD90B7
:10230000DC901F971C968D919D910D90BC91A02DF6
:10231000252F332744275527B82FAA279927882701
:10232000280F391F4A1F5B1F2F5F3F4F4F4F5F4FD3
:1023300080E090E0AFEFB0E0E822F9220A231B230F
:10234000EF2CF02E012F11272E0D3F1D401F511F86
:1023500080E09FEFA0E0B0E0A822B922CA22DB22F1
:10236000DC2CCB2CBA2CAA242A0D3B1D4C1D5D1D48
:10237000122F0027FF24EE24852F9927AA27BB2799
:10238000E80EF91E0A1F1B1FDA01C9018070907048
:10239000B070892F9A2FAB2FBB27E80EF91E0A1FAA
:1023A0001B1F207040705070542F432F322F222754
:1023B000E20EF31E041F151FD4011C96ED92FD9230
:1023C0000D931C931F9780E150968C9380E090E0D2
:1023D0000E944F0F81E090E0F401928B818B19C233
:1023E000923009F045C083E692E00E94630D20918F
:1023F0007D0230917E0240917F0250918002C09117
:102400008502D091860260E070E006E110E0609FF6
:10241000F001619FF00D709FF00D1124E75FFA4FFE
:1024200080819181A281B38182179307A407B507A8
:1024300029F4848195818C179D0731F06F5F7F4F60
:102440006530710521F7E5C1262F30E086E190E087
:10245000289FF001299FF00D389FF00D1124E75FB0
:10246000FA4F82E1808B80E090E00E944F0FD1C153
:1024700020917D0230917E0240917F025091800236
:102480006091850270918602C0E0D0E006E110E024
:102490007C2EC09FF001C19FF00DD09FF00D112444
:1024A000E75FFA4F80819181A281B3818217930700
:1024B000A407B50729F4848195818617970729F029
:1024C0002196C530D10521F79BC183E692E00E9499
:1024D000630D4C2F50E086E190E0489FF001499F4A
:1024E000F00D589FF00D1124E75FFA4F808980FDB1
:1024F0008EC08AC020918305309184054091850566
:1025000050918605E0908305F09084050091850543
:1025100010918605A0908305B0908405C090850534
:10252000D09086058091830590918405A0918505C2
:10253000B0918605252F332744275527B82FAA2782
:1025400099278827280F391F4A1F5B1F2F5F3F4F8E
:102550004F4F5F4F80E090E0AFEFB0E0E822F9220C
:102560000A231B23EF2CF02E012F11272E0D3F1DC8
:10257000401F511F80E09FEFA0E0B0E0A822B922E9
:10258000CA22DB22DC2CCB2CBA2CAA242A0D3B1D20
:102590004C1D5D1D122F0027FF24EE24852F992747
:1025A000AA27BB27E80EF91E0A1F1B1FDA01C90163
:1025B00080709070B070892F9A2FAB2FBB27E80ED8
:1025C000F91E0A1F1B1F207040705070542F432F9C
:1025D000322F2227E20EF31E041F151FE0928305FF
:1025E000F0928405009385051093860580918705F8
:1025F00080FF08C080E18093870580E090E065E07F
:102600000E944F0F85E08EC0808982FF8EC086E1D8
:1026100090E0489FE001499FD00D589FD00D1124B4
:10262000C75FDA4F2C853D854E855F85EC84FD8440
:102630000E851F85AC84BD84CE84DF848C859D850A
:10264000AE85BF85252F332744275527B82FAA27C6
:1026500099278827280F391F4A1F5B1F2F5F3F4F7D
:102660004F4F5F4F80E090E0AFEFB0E0E822F922FB
:102670000A231B23EF2CF02E012F11272E0D3F1DB7
:10268000401F511F80E09FEFA0E0B0E0A822B922D8
:10269000CA22DB22DC2CCB2CBA2CAA242A0D3B1D0F
:1026A0004C1D5D1D122F0027FF24EE24852F992736
:1026B000AA27BB27E80EF91E0A1F1B1FDA01C90152
:1026C00080709070B070892F9A2FAB2FBB27E80EC7
:1026D000F91E0A1F1B1F207040705070542F432F8B
:1026E000322F2227E20EF31E041F151FEC86FD86F3
:1026F0000E871F87888980FF14C0880C991C880C5E
:10270000991CACE2B2E08A0E9B1ED401ED91FC91C3
:10271000872D099580E1888B80E090E0672D0E94ED
:102720004F0F872D0E94250F74C0808983FF17C02B
:10273000808984FF14C0818992890196928B818B54
:1027400088E1808B880C991C880C991CECE2F2E0E3
:102750008E0E9F1ED401ED91FC918C2F4FC086E10F
:1027600090E0489F9001499F300D589F300D1124F3
:10277000F901E75FFA4F808984FF0AC0F901E25E40
:10278000FA4F808180FD04C080818160808341C0D8
:1027900086E190E0489FF001499FF00D589FF00DB1
:1027A0001124DF01A75FBA4F50968C91509784FF98
:1027B00030C0E25EFA4F808180FF2BC051968D9130
:1027C0009C9152978F5F9F4F21F180E150968C939F
:1027D000509751968D919C915297019652969C9349
:1027E0008E935197880C991C880C991C8CE292E06E
:1027F000880E991ED401ED91FC91872D099509C091
:1028000083E692E00E94630D80919202857009F048
:1028100071CEDF91CF911F910F91FF90EF90DF90DC
:10282000CF90BF90AF909F908F907F900895EF9240
:10283000FF920F931F93CF93DF93C0E0D0E006E1A8
:1028400010E083E0E82EB4E1FB2EC09FF001C19FB1
:10285000F00DD09FF00D1124E75FFA4F8389882394
:1028600019F580819181A281B3810097A105B105FD
:1028700009F1E38A84898F5F848B8150863080F0F0
:102880008BB78F7D8BBFF08A80E090E06C2F0E9429
:102890004F0F8BB780628BBF8C2F0E94250F0AC011
:1028A0008C2F0E94EA0E06C083898F3F19F083891E
:1028B0008150838B2196C530D10539F6DF91CF91B8
:1028C0001F910F91FF90EF9008958F929F92AF927A
:1028D000BF92CF92DF92EF92FF920F931F935C0112
:1028E000F5E8CF2EF2E0DF2EECEEEE2EEFEFFE2E2F
:1028F000EC0CFD1C70938502609386025093870256
:102900004093880208969093890280938A02C501B9
:102910004C96F7019283838381E181874EED842E6B
:102920004FEF942E8C0C9D1CC401B901A8010E948C
:10293000100D10928C0210928B02F701728163814C
:10294000685F7F4F808190E08F709070880F991F33
:10295000880F991F681B790B675F7F4F9B0140E0D1
:1029600050E069507040C60108970E94C80C9093CF
:102970008B0280938C02C5018A96B4010E94962234
:102980001F910F91FF90EF90DF90CF90BF90AF908D
:102990009F908F9008956F927F928F929F92AF92A7
:1029A000BF92CF92DF92EF92FF920F931F933B0162
:1029B0004C0181E7A82E82E0B82EB4E1CB2ED12CB9
:1029C000CA0CDB1C40938502F6012183F582E48268
:1029D000178306831382128280E094E59093740239
:1029E0008093730281E080937A0282EF9FEFA80EBA
:1029F000B91EC501B401A3010E94100D70917302AC
:102A0000609174028091710290E08F709070880FD5
:102A1000991F880F991F681B790BC60120E030E0D1
:102A200040E050E00E94C80CF6019283838382E666
:102A300090E0B5010E9496221F910F91FF90EF90B8
:102A4000DF90CF90BF90AF909F908F907F906F90CE
:102A500008950F931F93809171029091720280509C
:102A6000914009F0C1C0809173029091740208975F
:102A700009F0BAC080917502863009F0B5C0809126
:102A80007602843009F0B0C02091890230918A0228
:102A900040918B0250918C028091FC049091FD0436
:102AA000A091FE04B091FF04281739074A075B077D
:102AB00009F09AC08091770290917802E1E080302D
:102AC0009E0709F08CC00E94730B01E712E00E50C4
:102AD000104040917F02509180026091810270917C
:102AE0008202C8010E946D0C88E096E0F80195878B
:102AF000848740917F0250918002609181027091A1
:102B0000820220E030E0F901EE0FFF1FE20FF31F19
:102B1000EE0FFF1FEE0FFF1FE454FB4F86819781DE
:102B2000A085B18584179507A607B70731F02F5FF9
:102B30003F4F2530310539F725C0A1E7B2E040E02D
:102B400050E0822F90E09C01220F331F280F391F85
:102B5000220F331F220F331FF901E40FF51FE45436
:102B6000FB4F808152968C935297FA01EB53FA4FA8
:102B7000808118968C9318974F5F5F4F119646305F
:102B8000510551F780E092E09093780280937702AC
:102B900080917F0290918002A0918102B091820287
:102BA0008093890290938A02A0938B02B0938C0247
:102BB0008091FC049091FD04A091FE04B091FF046B
:102BC00080937F0290938002A0938102B09382024F
:102BD0008CE390E063E672E00E94962205C080508C
:102BE000924011F40E94730B1F910F910895EF9280
:102BF000FF920F931F9380916F029091700226E0D5
:102C00008830920719F40E942915A9C0089709F085
:102C1000A6C020918102309182024091830250919E
:102C200084028091FC049091FD04A091FE04B09177
:102C3000FF04281739074A075B0709F090C00E9474
:102C4000730B80917A02813009F07FC080918502F8
:102C50008823C1F0883009F082C060917D027091B4
:102C60007E0280917F029091800200918B021091F0
:102C70008C02E0908902F0908A0240E020E00E94FD
:102C8000CB146DC000D000D000D083ED90E0EDB744
:102C9000FEB79283818380917D0290917E02A09104
:102CA0007F02B09180029070A070B0708383948393
:102CB000A583B6830E94E8098FEC90E0EDB7FEB7DC
:102CC0009283818380917E0290E0A0E0B0E08383D4
:102CD0009483A583B6830E94E8098BEC90E0EDB75E
:102CE000FEB79283818380917F0290E0A0E0B0E004
:102CF00083839483A583B6830E94E80987EC90E0E0
:102D0000EDB7FEB79283818380917D0290917E0220
:102D1000A0917F02B09180028B2F9927AA27BB2711
:102D200083839483A583B6830E94E8090F900F9054
:102D30000F900F908DEB90E0EDB7FEB792838183FB
:102D40000E94E8090F900F900AC0863011F40E948B
:102D5000FE1080917A02813111F40E94C70E1F91FA
:102D60000F91FF90EF9008958091FB0481FF09C0BF
:102D70000E9417140E94B70A8091FB048D7F8093F4
:102D8000FB048091FB0480FD0DC0089588E592E06E
:102D900063E672E00E940A22FC01E05AFD4F1082B5
:102DA0000E94F715B29BF2CF8091FB048E7F809337
:102DB000FB048BB780628BBF08958F929F92AF9276
:102DC000BF92CF92DF92EF92FF920F931F93DF9308
:102DD000CF93CDB7DEB7AA970FB6F894DEBF0FBE7C
:102DE000CDBF4B015C018E01015F1F4F8091FC0440
:102DF0009091FD04A091FE04B091FF0488259925CF
:102E0000AA25BB25209104053091050540910605B2
:102E10005091070582239323A423B5230097A1058E
:102E2000B10519F47501640108C0C0900005D09087
:102E30000105E0900205F090030588E096E09E878A
:102E40008D87CE010196B701A6010E946D0C80917D
:102E5000FC049091FD04A091FE04B091FF04F801E0
:102E600086879787A08BB18BC08ED18EE28EF38E32
:102E7000A5ECB5E08D918087128A319625E0AB3CB8
:102E8000B207C1F720E031E0F8013183208388E008
:102E900090E09383828386E0848384E08583378314
:102EA00026838AE290E0BE016F5F7F4F0E949622E8
:102EB00010E05AC0422FF901EE0FFF1FE20FF31F7F
:102EC000EE0FFF1FEE0FFF1FE454FB4F868197812B
:102ED000A085B18588159905AA05BB0531F02F5F3E
:102EE0003F4F2530310531F745E020E030E0F90172
:102EF000EE0FFF1FE20FF31FEE0FFF1FEE0FFF1F7E
:102F0000E454FB4F86819781A085B1858C159D0582
:102F1000AE05BF0531F02F5F3F4F2530310539F742
:102F20003AC0453021F5822F90E0FC01EE0FFF1FE3
:102F3000E80FF91FEE0FFF1FEE0FFF1FE454FB4FCA
:102F400086829782A086B18612C080E090E0000061
:102F50000196F7E280319F07D1F70E94B4161F5FF8
:102F6000143111F480E004C020E030E0A3CF81E010
:102F7000AA960FB6F894DEBF0FBECDBFCF91DF91FA
:102F80001F910F91FF90EF90DF90CF90BF90AF9087
:102F90009F908F9008954530C1F2E9CFCF92DF9294
:102FA000EF92FF920F931F93DF93CF9300D000D047
:102FB000CDB7DEB78C016A017B010E945B36898345
:102FC000C80101960E945B368A83C80102960E945E
:102FD0005B368B83C80103960E945B368C838981A4
:102FE0009A81AB81BC818F3F2FEF92072FEFA20711
:102FF0002FEFB20711F06C017D01B601C7010F90F0
:103000000F900F900F90CF91DF911F910F91FF9034
:10301000EF90DF90CF9008950F931F930E94A51813
:103020008EE190E04AE050E060E07BE50E94CE1740
:103030006093FC047093FD048093FE049093FF045E
:1030400082E290E04FEF5FEF6FEF70E00E94CE17EB
:10305000609304057093050580930605909307051A
:1030600086E290E04AE050E060E071E00E94CE1716
:10307000609300057093010580930205909303050A
:103080001092C50582E28093C60589EF8093C7053B
:1030900081E08093C8051092C9058093CA0500D0CD
:1030A0008AEF90E0ADB7BEB712969C938E931197BE
:1030B0000E94E8090F900F900E94E22200D081EF59
:1030C00090E0EDB7FEB7928381830E94E8090F90EC
:1030D0000F9003E612E08CE390E0B8010E94962284
:1030E0008CE390E0B8010E9496228DB79EB70A97B4
:1030F0000FB6F8949EBF0FBE8DBFEDB7FEB73196E9
:1031000086ED90E0ADB7BEB712969C938E93119763
:103110008091FC04828313828091FD048483158254
:103120008091FE04868317828091FF048087118638
:103130000E94E809EDB7FEB73A960FB6F894FEBFC5
:103140000FBEEDBF1F910F9108958EB58D608EBD9E
:103150001DBC1CBC88E09DE39BBD8ABD89B7806116
:1031600089BF08951F920F920FB60F9211242F93CB
:103170003F934F935F936F937F938F939F93AF93FF
:10318000BF93EF93FF9380918F0590919005A0914D
:103190009105B09192050196A11DB11D80938F05F7
:1031A00090939005A0939105B0939205809154025D
:1031B00090915502A0915602B09157020196A11D1F
:1031C000B11D8093540290935502A0935602B09380
:1031D00057020197A109B109815B9440A040B0401A
:1031E00050F0109254021092550210925602109212
:1031F00057020E940C188091FB0482608093FB04AC
:10320000FF91EF91BF91AF919F918F917F916F91BE
:103210005F914F913F912F910F900FBE0F901F9094
:103220001895E0E0F0E0099408950F931F93009142
:10323000D4051091D5058091D4059091D5050E94B3
:10324000173000D000D000D0EDB7FEB7319624EF94
:1032500033E0ADB7BEB712963C932E93119713830C
:103260000283848315820E94E8098DB79EB7069673
:103270000FB6F8949EBF0FBE8DBF1F910F9108959A
:103280002091D4053091D5054091D6055091D705B0
:1032900000D000D000D0EDB7FEB7319684EF94E0B7
:1032A000ADB7BEB712969C938E931197338322834A
:1032B000558344830E94E8098091D4059091D505F7
:1032C0008091D4059091D5052DB73EB72A5F3F4F29
:1032D0000FB6F8943EBF0FBE2DBF089708F080C010
:1032E00083B32091D4053091D50590E002C0959527
:1032F00087952A95E2F780FF10C045B32091D40549
:103300003091D50581E090E002C0880F991F2A9581
:10331000E2F78095842385BB0EC045B32091D40588
:103320003091D50581E090E002C0880F991F2A9561
:10333000E2F7482B45BB85B385BB8091D6059091BC
:10334000D70537E28031930798F46AE070E00E9475
:10335000CB339B0140E060E47CE904C0CB010197E2
:10336000F1F74F5F842F90E082179307B8F309C0FD
:1033700088EE93E020E931E0F9013197F1F7019708
:10338000D9F783B32091D4053091D50590E002C0E0
:10339000959587952A95E2F780FF12C045B3209155
:1033A000D4053091D50581E090E002C0880F991FC7
:1033B0002A95E2F78095842385BB85B385BB089564
:1033C00045B32091D4053091D50581E090E002C04D
:1033D000880F991F2A95E2F7482B45BB85B385BB1B
:1033E00008952091D4053091D5054091D60550918E
:1033F000D70500D000D000D0EDB7FEB731968EE2F1
:1034000095E0ADB7BEB712969C938E931197338318
:103410002283558344830E94E8094091D605509148
:10342000D705EDB7FEB736960FB6F894FEBF0FBEC0
:10343000EDBF4130510561F485B32091D405309141
:10344000D50502C0440F551F2A95E2F7842B14C0FE
:103450008091D6059091D705892B91F445B32091A1
:10346000D4053091D50581E090E002C0880F991F06
:103470002A95E2F78095842385BB85B385BB0895A3
:1034800000D08EE095E0ADB7BEB712969C938E93B8
:1034900011970E94E8090F900F9008958091D4052C
:1034A0009091D5058091D4059091D5050897F8F4B1
:1034B00023B34091D4055091D50500D000D081E4CC
:1034C00095E0EDB7FEB79283818381E090E002C082
:1034D000880F991F4A95E2F730E082239323948363
:1034E00083830E94E8090F900F900F900F9008952A
:1034F00043B383B300D000D000D0EDB7FEB7319610
:1035000028E735E0ADB7BEB712963C932E931197DE
:1035100050E0417050705383428390E0827090700D
:1035200095958795958384830E94E80983B343B377
:1035300063B300D0EDB7FEB731962FE535E0ADB7F8
:10354000BEB712963C932E93119790E084709070C2
:1035500095958795959587959383828350E04870DC
:10356000507073E0559547957A95E1F755834483FC
:1035700070E06071707044E0759567954A95E1F769
:10358000778366830E94E80983B323B363B3EDB7FF
:10359000FEB7319646E455E0ADB7BEB712965C93E0
:1035A0004E93119790E08072907035E095958795D5
:1035B0003A95E1F79383828330E02074307086E09F
:1035C000359527958A95E1F735832483661F66270D
:1035D000661F668317820E94E8098DB79EB708961A
:1035E0000FB6F8949EBF0FBE8DBF08958091D4058D
:1035F0009091D5058091D4059091D505049718F543
:1036000029B34091D4055091D50500D000D08CE865
:1036100095E0ADB7BEB712969C938E93119781E05B
:1036200090E002C0880F991F4A95E2F730E08223AC
:10363000932314969C938E9313970E94E8090F90FE
:103640000F900F900F908091D4059091D50504971D
:1036500020F18091D4059091D5050897F0F4E09180
:10366000D405F091D50500D000D089E895E0ADB73C
:10367000BEB712969C938E931197EE0FFF1FE05AE0
:10368000FF4F8081918114969C938E9313970E9493
:10369000E8090F900F900F900F9008950F931F93CC
:1036A000CF93DF93E9B329B349B369B38DB79EB71D
:1036B0000A970FB6F8949EBF0FBE8DBFADB7BEB7C9
:1036C00011968BE995E0CDB7DEB79A838983F0E058
:1036D000E170F0701396FC93EE93129730E0227035
:1036E00030703595279515963C932E93149750E09E
:1036F00044705070559547955595479517965C932E
:103700004E93169770E06870707093E075956795AA
:103710009A95E1F719967C936E9318970E94E809A1
:103720000F900F900F900F90EDB7FEB7319601E913
:1037300015E0ADB7BEB712961C930E93119784E0B7
:1037400090E09383828380916800909169009583D3
:1037500084830E94E809EDB7FEB73196CDB7DEB796
:103760001A83098385E090E09383828380916A00C5
:1037700090916B00958384830E94E809EDB7FEB7B2
:103780003196ADB7BEB712961C930E93119786E093
:1037900090E09383828380916C0090916D0095837B
:1037A00084830E94E809CDB7DEB726960FB6F89459
:1037B000DEBF0FBECDBFDF91CF911F910F91089556
:1037C000EF92FF921F93CF93DF93C6E0D1E06CEBB3
:1037D000E62E65E0F62EFE012196149100D000D071
:1037E000EDB7FEB73196ADB7BEB71296FC92EE922A
:1037F0001197128313820E94E8090F900F900F9087
:103800000F90112341F7DF91CF911F91FF90EF901F
:1038100008958DB79EB708970FB6F8949EBF0FBE58
:103820008DBFEDB7FEB731968FEB95E0ADB7BEB764
:1038300012969C938E9311978091CB05828313826D
:1038400080916202848315828091FA0486831782B4
:103850000E94E8098DB79EB708960FB6F8949EBFF0
:103860000FBE8DBF0895CF93DF93E091D405F09103
:10387000D5058091D6059091D705A0E6B0E0EE0F72
:10388000FF1FEA0FFB1F918380834091D405509165
:10389000D5052091D4053091D50500D000D000D0B9
:1038A000EDB7FEB7319685ED95E0CDB7DEB79A83DB
:1038B000898353834283220F331FA20FB31F8D913D
:1038C0009C91958384830E94E8098DB79EB70696E4
:1038D0000FB6F8949EBF0FBE8DBFDF91CF910895B4
:1038E000CF92DF92EF92FF920F931F93DF93CF93CC
:1038F000CDB7DEB728970FB6F894DEBF0FBECDBFA9
:103900000E94F02F082F11E06E010894C11CD11CF9
:1039100036E0E32E34E0F32E3CC0812FB6010E9446
:10392000F72F8823A9F18DB79EB744970FB6F89467
:103930009EBF0FBE8DBFEDB7FEB73196ADB7BEB718
:103940001296FC92EE9211971283138289818483DE
:1039500015828A81868317828B81808711868C816C
:10396000828713868D81848715868E818687178648
:103970008F81808B118A8885828B138A0E94E80947
:103980008DB79EB744960FB6F8949EBF0FBE8DBFFD
:103990001F5F011710F628960FB6F894DEBF0FBE12
:1039A000CDBFCF91DF911F910F91FF90EF90DF90EE
:1039B000CF900895DF93CF93CDB7DEB728970FB69A
:1039C000F894DEBF0FBECDBF8091D4059091D50590
:1039D000BE016F5F7F4F0E94F72F8823D9F120919E
:1039E000D4053091D5058DB79EB744970FB6F8949E
:1039F0009EBF0FBE8DBFEDB7FEB7319681E594E057
:103A0000ADB7BEB712969C938E93119733832283E2
:103A10008981848315828A81868317828B8180873E
:103A200011868C81828713868D81848715868E818D
:103A3000868717868F81808B118A8885828B138A6F
:103A40000E94E8098DB79EB744960FB6F8949EBFC2
:103A50000FBE8DBF28960FB6F894DEBF0FBECDBF48
:103A6000CF91DF9108958091D4059091D5050E9462
:103A7000A6308823A1F02091D4053091D50500D03F
:103A800000D087E394E0EDB7FEB79283818334835F
:103A900023830E94E8090F900F900F900F900895D4
:103AA0008091D4059091D5050E945E31882301F163
:103AB0002091D4053091D50500D000D000D0EDB7CD
:103AC000FEB7319681E894E0ADB7BEB712969C93ED
:103AD0008E93119733832283148215820E94E80902
:103AE0008DB79EB706960FB6F8949EBF0FBE8DBFDA
:103AF0000895DF93CF93CDB7DEB728970FB6F8942C
:103B0000DEBF0FBECDBF8091D4059091D5058983CE
:103B10008091D6059091D7058A838091D8059091A0
:103B2000D9058B838091DA059091DB058C83809198
:103B3000DC059091DD058D838091DE059091DF0598
:103B40008E838091E0059091E1058F838091E2055D
:103B50009091E3058887CE0101960E94AC318DB724
:103B60009EB742970FB6F8949EBF0FBE8DBFEDB7BC
:103B7000FEB731968AE994E0ADB7BEB712969C9332
:103B80008E9311978981828313828A81848315821F
:103B90008B81868317828C81808711868D818287B5
:103BA00013868E81848715868F8186871786888500
:103BB000808B118A0E94E8098DB79EB742960FB696
:103BC000F8949EBF0FBE8DBF28960FB6F894DEBF47
:103BD0000FBECDBFCF91DF910895CF93DF93C091FA
:103BE000D405D091D5052091D6053091D70500D0C8
:103BF00000D000D0EDB7FEB7319686EC94E0ADB7BB
:103C0000BEB712969C938E931197D383C28335834C
:103C100024830E94E8098DB79EB706960FB6F894E4
:103C20009EBF0FBE8DBFE199FECF6091D60570910A
:103C3000D705CE010E946D36DF91CF9108950F9385
:103C40001F93CF93DF938C018091D4059091D5057C
:103C5000892BA1F0C0E0D0E0E199FECFFE01EE0F8C
:103C6000FF1FEC52FA4F60817181CE01800F911FCE
:103C70000E946D362196C430D10571F7DF91CF9146
:103C80001F910F910895E199FECF8091D4059091F5
:103C9000D5050E945B364091D4055091D50500D0E2
:103CA00000D000D0EDB7FEB731962DED34E0ADB7C2
:103CB000BEB712963C932E9311975383428384830D
:103CC00015820E94E8098DB79EB706960FB6F89444
:103CD0009EBF0FBE8DBF089586E290E00E941F1E1A
:103CE00086E290E04AE050E060E071E00E94CE178A
:103CF000609300057093010580930205909303057E
:103D00008DB79EB70A970FB6F8949EBF0FBE8DBFB2
:103D1000EDB7FEB7319686EF95E0ADB7BEB7129618
:103D20009C938E93119780910005828313828091DA
:103D30000105848315828091020586831782809114
:103D40000305808711860E94E8098DB79EB70A9601
:103D50000FB6F8949EBF0FBE8DBF089582E290E02B
:103D60000E941F1E82E290E04FEF5FEF6FEF70E066
:103D70000E94CE1760930405709305058093060595
:103D8000909307058DB79EB70A970FB6F8949EBF1C
:103D90000FBE8DBFEDB7FEB7319683E196E0ADB7AC
:103DA000BEB712969C938E931197809104058283DF
:103DB0001382809105058483158280910605868390
:103DC000178280910705808711860E94E8098DB7C8
:103DD0009EB70A960FB6F8949EBF0FBE8DBF08958A
:103DE0008EE190E00E941F1E8EE190E04AE050E0DC
:103DF00060E07BE50E94CE176093FC047093FD04A5
:103E00008093FE049093FF048DB79EB70A970FB678
:103E1000F8949EBF0FBE8DBFEDB7FEB731968EE210
:103E200096E0ADB7BEB712969C938E931197809192
:103E3000FC04828313828091FD0484831582809127
:103E4000FE04868317828091FF04808711860E947A
:103E5000E8098DB79EB70A960FB6F8949EBF0FBEBD
:103E60008DBF0895AF92BF92CF92DF92EF92FF92F3
:103E70000F931F93DF93CF9300D0CDB7DEB79A8314
:103E80008983CE01019660EA70E00E940A366C01D7
:103E900010E00FC01F5FE12FF0E0EE0FFF1FEE0FED
:103EA000FF1FE65DFE4F80819181892B11F480E038
:103EB00048C0E12EFF24F701EE0FFF1FEE0FFF1F9A
:103EC000E65DFE4F80819181B6010E949035892B7D
:103ED00009F700E010E05E010894A11CB11CC501C7
:103EE00062EA70E00E940A366C0160E070E040E037
:103EF00050E00E940134F801EE0FFF1FEC52FA4F20
:103F00007183608380819181892B49F480910000C5
:103F1000882329F0D6018C9190E0918380830F5FF4
:103F20001F4F0A301105D9F6EE0CFF1CEE0CFF1CDA
:103F30008CE291E0E80EF91ED701ED91FC91099514
:103F400081E00F900F90CF91DF911F910F91FF9023
:103F5000EF90DF90CF90BF90AF900895CF93DF9315
:103F6000EC01DB0134C086958695FD018193888143
:103F700083708295807F11968C93119799819923F4
:103F800021F4DF01119642E026C092959F70890FBF
:103F900011968C93119789818F70880F880F1296D4
:103FA0008C9312979A81992319F4139641E013C0C8
:103FB0009295969596959370890F12968C93129779
:103FC0008A818F7313968C93139714962396888106
:103FD000882349F640E01C92EB0108C0E881F0E03C
:103FE000EF73F070E95BF94FE491E993CA17DB07CF
:103FF000A9F7FD01842F9DE302C09193815088238E
:10400000E1F7A40FB11D1C92DF91CF910895FF92AB
:104010000F931F93CF93DF93C0919C00D0919D008D
:104020008091F8049091F904C817D90709F469C080
:1040300060E070E026E130E0F62E629FF001639FC1
:10404000F00D729FF00D1124E75FFA4F8681978182
:104050008050974109F046C080918D0580FD51C088
:1040600080918D05816080938D0580919E00909157
:104070009F009093F9048093F80440E050E015C04D
:10408000FA01ED59FD4FD9018D9186ABB093F9043A
:10409000A093F804A45CB54031F420533040309331
:1040A000F9042093F8044F5F5F4F2091F80430919A
:1040B000F904C217D30721F786E190E0689F8001D9
:1040C000699F100D789F100D1124075F1A4F88E12A
:1040D000F801808BCA016F2D0E944F0F83E0F80119
:1040E000838B0FC06F5F7F4F6530710509F0A4CFE0
:1040F0008091080582FF05C0809108058B7F809321
:104100000805DF91CF911F910F91FF9008951F93A4
:10411000182F682F70E086E190E0689FF001699F9A
:10412000F00D789FF00D1124E75FFA4F808980FF32
:1041300006C0809108058B7F80930805A1C0818906
:104140009289892B21F0818992890197E1F486E196
:1041500090E0689FF001699FF00D789FF00D1124A9
:10416000E75FFA4F81E090E0928B818B80910805A8
:1041700084608093080580918D058E7F80938D05E6
:104180008FEF838B7DC0818992890297F0F18089BE
:1041900083FF3BC082E090E0928B818B2091910263
:1041A00030E0207F30703595279535952795F901BA
:1041B000B29680917402482F50E04E5D5F4F90910F
:1041C000730280E0480F591F421B530BDF01AD59AA
:1041D000BD4F05C05D9BFECF8D918CB93196E41724
:1041E000F507C4F386E190E0689FF001699FF00D48
:1041F000789FF00D1124E75FFA4F80E1808B80E01B
:1042000090E0612F0E944F0F3BC086E190E0689FD5
:10421000F001699FF00D789FF00D1124E75FFA4FD0
:10422000818992890297B8F0808984FF14C08091B7
:104230008D0580FF10C08FEF838B8091F8049091E3
:10424000F90490939F0080939E0080918D058E7F4E
:1042500080938D0515C086E190E0689FF001699F0D
:10426000F00D789FF00D1124E75FFA4F80898823C5
:1042700039F480918D058E7F80938D050E940720F3
:104280001F91089587E190E067E870E20E94FC0AC0
:104290000895FC01C4988AE38FB9779BFECF07C0CD
:1042A0001FB8779BFECF8FB181936150704061152D
:1042B0007105B1F7C49A0895FC01C4988AE78FB9D3
:1042C000779BFECF81918FB961507040779BFECF75
:1042D00061157105B9F7C49A0895C498962F9F7116
:1042E000982B9FB9779BFECF1FB8779BFECF67FFB8
:1042F00003C01FB8779BFECF8FB1C49A0895C498AE
:104300008FB9779BFECF6FB9779BFECFC49A089584
:10431000FF920F931F93F62E082F0F710B3198F415
:10432000182F107680911106181769F01093110656
:104330008FEB63E00E947F211295169517708FE92D
:10434000612F0E947F21802F80646F2D0E947F212A
:104350001F910F91FF9008950F931F93082F90E0E6
:104360008F7190704B979CF4102F107680911106EE
:10437000181769F0109311068FEB63E00E947F21FC
:104380001295169517708FE9612F0E947F2180E0AA
:10439000602F0E946D211F910F9108950F931F931D
:1043A000982F162F072F84ED692F0E94882186ED04
:1043B000612F0E94882187ED602F0E9488218AEE5C
:1043C0000E94AC2180FDFBCF1F910F9108950F93A8
:1043D0001F93682F84ED0E94882182ED61E00E9486
:1043E00088218AEE0E94AC2180FDFBCF82ED60E047
:1043F0000E94882189ED0E94AC21182F00E088EDF1
:104400000E94AC21282F30E0202B312BC9011F91B5
:104410000F910895EF92FF920F931F93CF93DF9325
:10442000EC017B018CE10E94AC2186FD08C089E390
:104430000E94AC21882319F400E010E06FC0609165
:1044400012067091130680E00E94882120911206C6
:104450003091130681E0632F0E9488218AE360E097
:104460000E946D2190E090931306809312060091B4
:104470001206109113068AE360E00E946D21382F26
:1044800020E0202B312B30931306209312068AE371
:1044900060E00E946D21082F10E08AE360E00E9436
:1044A0006D21382F20E0022B132B8AE360E00E945D
:1044B0006D218AE360E00E946D21C017D10708F4E6
:1044C0008E01C701B8010E94492180911206909186
:1044D00013068091120690911306019780509A411D
:1044E00038F08CE06FEF0E9488218DE069E110C008
:1044F000609112067091130661508CE00E94882131
:104500002091120630911306215030408DE0632F28
:104510000E9488218EE960E40E947F21C801DF911A
:10452000CF911F910F91FF90EF900895CF92DF925E
:10453000EF92FF920F931F93CF93DF938C016B0148
:10454000C0E0D0E080EAE82E8FE0F82E8FE10E94F4
:10455000AC2183FF07C0C7010197F1F72196C23351
:10456000D105A1F782E060E00E94882183E06AE142
:104570000E94882186E0602F0E94882198012050A7
:10458000364E87E0632F0E9488218AE760E00E9410
:104590007F21C601B8010E945C218FE960E80E947A
:1045A0007F218FEB60E80E947F218FE96CE00E9401
:1045B0007F21DF91CF911F910F91FF90EF90DF90BE
:1045C000CF900895CF93DF938FEF80931106BC9A1D
:1045D00087B3896087BBC49AC79A87B3886B87BB48
:1045E000BE9880E58DB981E08EB980E090E0A0E0D2
:1045F000B0E000000196A11DB11D80342DE09207AE
:1046000023E0A20720E0B207A1F78FEF6FEF0E942F
:104610007F2180E090E0A0E0B0E000000196A11DC5
:10462000B11D8034EDE09E07E3E0AE07E0E0BE0799
:10463000A1F7C0E0D0E001C021968DE10E94AC213D
:1046400080FD04C0FDEFC83EDF07B1F710921306EE
:1046500010921206C9E8D6E0FE0184912196FE016F
:1046600064910E9488212196F6E0C53BDF07A1F7FF
:1046700080E160E071E00E94CE218BE160EC0E945D
:1046800088218FE964E00E947F2184E16AE477E376
:104690000E94CE218FE10E94AC218093100682E718
:1046A0000E94AC2180931006DF91CF91089590E095
:1046B0002DE030E0A901849F9001859F300D949FEB
:1046C000300D1124E0E3F6E0DF01A20FB31F8C915F
:1046D000897F81608C933897E20FF31F13821282D7
:1046E000118210828C91877F8C9384E196E0958370
:1046F000848380E092E09287818785E092E09487CE
:10470000838786E192E09783868308950895CF9307
:10471000DF9340E050E0A82FB0E0C0E9D1E061E0D5
:1047200070E0CD01042E02C0959587950A94E2F7BA
:1047300080FF4BC083B390E0042E02C0959587950F
:104740000A94E2F780FF0CC085B39B01042E02C0DF
:10475000220F331F0A94E2F72095282325BB0AC0B5
:1047600085B39B01042E02C0220F331F0A94E2F787
:10477000822B85BB85B385BB88EB9BE0FE0131971F
:10478000F1F70197D9F783B390E0042E02C0959515
:1047900087950A94E2F780FF0CC085B39B01042E35
:1047A00002C0220F331F0A94E2F72095282325BB6D
:1047B0000AC085B39B01042E02C0220F331F0A9446
:1047C000E2F7822B85BB85B385BB4F5F5F4F4830D7
:1047D000510509F0A6CFDF91CF91089508952F924A
:1047E0003F924F925F926F927F928F929F92AF9281
:1047F000BF92CF92DF92EF92FF920F931F93DF93BE
:10480000CF93CDB7DEB7C358D0400FB6F894DEBF14
:104810000FBECDBFCD57DF4F8883C358D040682E21
:1048200077248DE090E0689E9001699E300D789E1F
:10483000300D1124F901E05DF94F808180FD07C042
:10484000F901E85DF94F8DE99EE09383828386E16B
:1048500090E0689EF001699EF00D789EF00D1124A5
:10486000E75FFA4F8089882379F48DE090E0689EB5
:10487000F001699EF00D789EF00D1124E85DF94F6E
:1048800080819181938382838DE090E0689E900186
:10489000699E300D789E300D1124F901E85DF94FC5
:1048A00082819381918380831A821982BAE22B2EAE
:1048B000B6E03B2E220E331EA2E0CA2ED12CCE0E25
:1048C000DF1EE3E08E2E912C8C0E9D1E70E2572E83
:1048D0008DC2D601ED91FC9111973196ED93FC9329
:1048E0003197E4912D593D4FD901D696EC93E5329D
:1048F00009F077C2C101B40143E652E09E012F5F87
:104900003F4F0E94BD2B882309F06BC2C101B40147
:1049100043E652E09E012F5F3F4F0E94F031882313
:1049200009F05FC2F6010081118186E891E0B801CB
:1049300043E050E00E946635892BC1F50D5F1F4FA3
:10494000F80184910F5F1F4FF801649160512AE0D4
:10495000829FC0011124680FE62FF0E0EE0FFF1FC9
:10496000E05AFF4F80819181B4014AE050E00E94FB
:104970002236C40160E870E00E94FF35082F10E085
:1049800089819A8187569D4FB401A8010E947E3586
:1049900089819A810197800F911F9A838983D6011B
:1049A0008D919C91119705968D939C93F6010081B2
:1049B00011818AE891E0B80146E050E00E94663536
:1049C000892B09F0E8C001501040D6010D931C93CB
:1049D0005AE0452EBBC0E199FECFC7010E945B366D
:1049E000982F9F7082958F708A3018F440E3B42E10
:1049F00002C037E3B32EB80E9A3018F420E3A22E8B
:104A000002C087E3A82EA90EC7018F70907088306E
:104A1000910579F18930910530F4009759F00497A8
:104A200009F079C031C08C30910571F10F9709F010
:104A300072C035C0C701B4014AE050E00E9422367E
:104A4000C40160E870E00E94FF35082F10E0898102
:104A50009A8187569D4FB401A8010E947E358981B5
:104A60009A81800F911FFC01ED59FD4FBAE3B6AB5F
:104A700005C0F801ED59FD4F56AAC8010196FC0189
:104A8000ED59FD4F56AA05C0F801ED59FD4F56AA44
:104A9000C8010196FC01ED59FD4FB6AA41C0F801CD
:104AA000ED59FD4FB6AAC8010196FC01ED59FD4F25
:104AB000A6AA01969A838983C40160ED7EE00E94D4
:104AC0005F35C40160E870E00E94FF35082F10E0F8
:104AD00089819A8187569D4FB401A8010E947E3535
:104AE00029813A81200F311FF901ED59FD4F8DE0E9
:104AF00086AB2F5F3F4FF901ED59FD4F46AA8091DC
:104B00001B0290911C02019690931C0280931B0241
:104B10003A8329831BC0F801ED59FD4FB6AAC8019D
:104B20000196FC01ED59FD4FA6AA0196FC01ED5935
:104B3000FD4F56AA01969A83898380911B0290911A
:104B40001C02019690931C0280931B02E0901B02B2
:104B5000F0901C02A0E0EA16A4E0FA0660F40981D5
:104B60001A81B2E008311B0708F435CFEFEFEE16DB
:104B7000E3E0FE0658F0D6018D919C9111970796BF
:104B80008D939C9310921C0210921B0289819A8132
:104B900001979A838983F6016081718181E991E0AF
:104BA00043E050E00E946635892B09F049C08091AE
:104BB000CB0590E0B4014AE050E00E94223689E63D
:104BC00096E0B4010E94F83589E696E065E971E067
:104BD0000E94ED35809162028A3030F489E696E0D9
:104BE00067E971E00E94ED358091620290E0B401C6
:104BF0004AE050E00E94223689E696E0B4010E9425
:104C0000ED3589E696E06AE070E00E94FF35082FF6
:104C100010E089819A8187569D4F69E676E0A80168
:104C20000E947E3589819A810197800F911F9A8316
:104C30008983D6018D919C91119703968D939C93B6
:104C4000F6010081118189E991E0B80144E050E06A
:104C50000E946635892B09F051C00B5F1F4FF80188
:104C60003491305301501040F8016491633481F065
:104C7000643428F4613441F06234F1F407C06434E0
:104C800049F06835C9F410C02BB305C028B303C080
:104C900025B301C022B381E090E002C0880F991FC4
:104CA0003A95E2F7282302C020917200222321F0D6
:104CB000C40168EC7EE003C0C40166EC7EE00E94A3
:104CC0005F35C40160E870E00E94FF35082F10E0F6
:104CD00089819A8187569D4FB401A8010E947E3533
:104CE00089819A810197800F911F9A838983D601C8
:104CF0008D919C91119706968D939C93F60100815E
:104D000011818EE991E0B80143E050E00E946635E0
:104D1000892B09F04BC00C5F1F4FF80134913053C1
:104D200001501040F8016491623461F0633418F46A
:104D30006134D1F405C0633439F06434A9F406C099
:104D400029B305C026B303C023B301C020B381E05B
:104D500090E002C0880F991F3A95E2F7282321F0CE
:104D6000C4016CEB7EE003C0C40162EB7EE00E94F4
:104D70005F35C40160E870E00E94FF35082F10E045
:104D800089819A8187569D4FB401A8010E947E3582
:104D900089819A810197800F911F9A838983D60117
:104DA0008D919C91119705968D939C93F60160814E
:104DB000718182EA91E043E050E00E946635892BE0
:104DC00081F486E190E0689EF001699EF00D789E86
:104DD000F00D1124E75FFA4F8DEF9FEF928B818BDF
:104DE0000CC089819A8101969A83898329813A81AD
:104DF000F1E02C383F0708F46CCD86E190E0689E26
:104E0000F001699EF00D789EF00D1124E75FFA4FD6
:104E100088E1808B89819A81CD57DF4F6881C358A3
:104E2000D0400E944F0FCD57DF4F0FB6F894DEBF32
:104E30000FBECDBFCF91DF911F910F91FF90EF90EB
:104E4000DF90CF90BF90AF909F908F907F906F90AA
:104E50005F904F903F902F9008952F923F924F92E6
:104E60005F926F927F928F929F92AF92BF92CF92FA
:104E7000DF92EF92FF920F931F93DF93CF93CDB703
:104E8000DEB72B970FB6F894DEBF0FBECDBF898378
:104E900080919102682E772420EF62227724759406
:104EA000679475946794C3018B579D4F65ED7EE0C1
:104EB0000E94C835892B89F08981282F30E08DE048
:104EC00090E0289FF001299FF00D389FF00D1124EC
:104ED000E05DF94F8081886080839981892E9924D3
:104EE0008DE090E0889EA001899E500D989E500D07
:104EF0001124DA01A85DB94FBD016A5F7F4F169694
:104F0000ED91FC9117978081882309F45BC012E230
:104F1000E12EF12CE60CF71C80917402282F30E072
:104F20002E5D3F4F9091730280E0280F391F2619A4
:104F3000370987010D591D4F405D594F1496F4E113
:104F4000AF2EF6E0BF2EE6E1CE2EE2E0DE2E37C039
:104F5000FA01808180FD18C0F8018081ED91FC91FB
:104F6000119791911196FC93EE93891719F0119670
:104F7000BC92AE92ED91FC9111978081882321F42F
:104F8000FA01808181608083F8018081FB0140808B
:104F90005180F20191912F01FB01518240828917CA
:104FA00011F0D182C0820F5F1F4FFB018081918180
:104FB000FC018081882331F00894E11CF11CE21689
:104FC000F30630F28DE090E0889E9001899E300DCE
:104FD000989E300D1124F901E05DF94FE081E0FF6A
:104FE000A4C1E3FFA2C142E2A42EB12CA60CB71CBF
:104FF00093E2292E312C260C371C83E6E82E82E022
:10500000F82EEA0CFB1C03E6402E02E0502E420C68
:10501000531C3F832E83C901885D994F19E0612E8F
:10502000712C680E791E9C01255F3F4F39872887B8
:105030005FC1D7016C91D301ED91FC9111978191E2
:105040001196FC93EE93681721F0E0E0F2E0ED9307
:10505000FC93D301ED91FC918081882329F5F70120
:105060009281238181818435D1F49334C1F420531A
:105070008FEF90E0022E02C0959587950A94E2F793
:1050800080FF0DC081E090E002C0880F991F2A9533
:10509000E2F79C0180915C02822B80935C02E0E04D
:1050A000F2E0D301ED93FC9380910F02E82FF0E042
:1050B000E65FFD4F90818F5F80930F02691711F0BB
:1050C00010920F02E0910F02F0E0E65FFD4F808149
:1050D0008823A9F5B501F501ED59FD4F02C06F5FB9
:1050E0007F4F641775071CF481918632C1F7D70191
:1050F00011968C911197803351F412968C918837C8
:1051000031F46D597D4FC20140E150E005C06D5949
:105110007D4FC2014AE050E00E94013470935F026B
:1051200060935E0280915E0290915F028150944094
:1051300020F010925F0210925E0210920F02F701AF
:10514000208180911502E82FF0E0E05FFD4F908113
:105150008F5F80931502291711F010921502E091CC
:105160001502F0E0E05FFD4F8081882309F06EC0FA
:10517000BB86AA8680917402282F30E02E5D3F4FB7
:10518000F0917302FB831A828A819B81280F391F59
:105190008091910290E0807F90709595879595958C
:1051A0008795281B390BF501ED59FD4F05C0AA85E0
:1051B000BB851196BB87AA878A859B858217930733
:1051C0001CF48191863299F7D70111968C91119731
:1051D0008033C1F412968C918837A1F400915E025D
:1051E00010915F02EA85FB85ED59FD4FFB87EA8749
:1051F000C201BF0140E150E00E940134C8010E9499
:105200006D3622C08101A3E6CA2EA2E0DA2EC20CBE
:10521000D31C0DC0019690935F0280935E020197AC
:10522000D6016D916D010E946D360F5F1F4FEA85AB
:10523000FB850E171F0744F480915E0290915F0278
:10524000F4E080309F0730F310921502D7018C9163
:10525000A885B985ED91FC91119791911196FC93D8
:10526000EE93891721F0E5E0F2E0ED93FC930894CA
:10527000211C311C0894E11CF11C0894411C511C98
:10528000A885B985ED91FC918081882371F5EE8127
:10529000FF81E05DF94F8081877F808380E094E02B
:1052A00090935F0280935E021BBA10925802809125
:1052B000590285BB1092590212BA10925A0280917B
:1052C0005B0290E00E94862310925B0280915C0258
:1052D00090E00E94872310925C0280915D0290E032
:1052E0000E94EE2310925D0220C00894A11CB11C04
:1052F00080917402482F50E04E5D5F4FB091730271
:10530000BD831C82EC81FD814E0F5F1F8091910255
:1053100090E0807F90709595879595958795481B2F
:10532000590BA416B50608F484CE8DE090E0889E53
:10533000F001899EF00D989EF00D1124E85DF94F63
:1053400082819381892B09F0A8C08091910290E01D
:10535000807F90709595879595958795FC01B79678
:1053600020917402422F50E04E5D5F4F30917302E6
:1053700020E0420F531F481B590BDF01AD59BD4FB1
:1053800018C08D918D30A1F4ED59FD4F10828091A0
:105390009102A82EBB24F0EFAF22BB24B594A794B2
:1053A000B594A79425E832E0A20EB31E10E066C0C3
:1053B0003196E417F50728F3EACFC501B7010E943B
:1053C000A335892B09F459C08DE090E0889E5001E7
:1053D000899EB00C989EB00C112480E396E0A80E34
:1053E000B91ED5011C9112601C93C70166EA71E0D9
:1053F0000E94A335C7016BEA71E00E94A335892B97
:1054000071F08DE090E0889EF001899EF00D989EED
:10541000F00D1124E05DF94F808182608083C70127
:1054200060EB71E00E94A335892B71F08DE090E074
:10543000889EF001899EF00D989EF00D1124E05D8C
:10544000F94F80818D7F80838DE090E0889EF00110
:10545000899EF00D989EF00D1124E85DF94FCC0C5B
:10546000DD1CCC0CDD1C2EEE31E0C20ED31ED601AD
:105470008D919C919383828310C01F5FC12EDD2488
:10548000F601EE0FFF1FEE0FFF1FE451FE4FE0800D
:10549000F180E114F10409F090CF8DE090E0889E56
:1054A0009001899E300D989E300D1124D901A85D80
:1054B000B94F1696ED91FC9117978081882331F4AE
:1054C000F901E05DF94FE081E3FF1BC086E190E068
:1054D000889E8001899E100D989E100D1124075FF3
:1054E0001A4F80E1F801808B80E090E069810E9492
:1054F0004F0F81E090E0D80152969C938E93519784
:10550000C0C0E0FD35C086E190E0889E8001899EA4
:10551000100D989E100D1124075F1A4FF801808915
:1055200083FF26C08DE99EE013969C938E9312977D
:105530008091910290E0807F9070959587959595E8
:1055400087958B579D4F60E27EE04CE750E00E94CC
:10555000563588E1D80150968C938CE790E06981AC
:105560000E944F0F82E090E0F801928B818B89C0FE
:105570008DE090E0889EF001899EF00D989EF00DE0
:105580001124E85DF94F82819381892B39F580914F
:105590009A0090919B00019690939B0080939A00B3
:1055A0008051974221F410929B0010929A008DE056
:1055B00090E0889EF001899EF00D989EF00D1124D8
:1055C000DF01A85DB94F85EB96E013969C938E930F
:1055D0001297E05DF94F80818D7F808386E190E0B6
:1055E000889E8001899E100D989E100D1124075FE2
:1055F0001A4F82E090E0D80152969C938E93519777
:105600008DE090E0889EF001899EF00D989EF00D4F
:105610001124E05DF94FE081E695E170E130A9F4F5
:105620008091910290E0807F9070959587959595F7
:1056300087958B579D4F6DEC7DE042E550E00E94D1
:10564000563588E1F801808B17C0EE23D1F48091A4
:10565000910290E0807F90709595879595958795BC
:105660008B579D4F6AE77DE042E550E00E9456353A
:1056700088E1D80150968C9382E590E069810E9480
:105680004F0F2B960FB6F894DEBF0FBECDBFCF9154
:10569000DF911F910F91FF90EF90DF90CF90BF901F
:1056A000AF909F908F907F906F905F904F903F90C2
:1056B0002F9008951F93CF93DF93182FC82FD0E01A
:1056C00086E190E0C89FF001C99FF00DD89FF00DD2
:1056D0001124E75FFA4F808980FD3EC0818992895D
:1056E000019719F4812F0E94572386E190E0C89F0B
:1056F000F001C99FF00DD89FF00D1124E75FFA4F1C
:1057000081899289039720F4812F0E942D2724C03C
:1057100081899289039748F0818992898E5F9F4F92
:1057200020F4812F0E94EF2317C086E190E0C89FEC
:10573000F001C99FF00DD89FF00D1124E75FFA4FDB
:10574000818992898E5F9F4F38F08EEF9FEF928B09
:10575000818B812F0E94E510DF91CF911F910895D9
:1057600085EB91E064E176E00E94AE1F80E590E079
:105770006AE57BE20E94FC0A08952F923F924F92C5
:105780005F926F927F928F929F92AF92BF92CF92D1
:10579000DF92EF92FF920F931F93DF93CF9300D08E
:1057A00000D00F92CDB7DEB74C016B015A013B839D
:1057B0002A83D901ED90FC90FC01008111818DE1DB
:1057C00092E0B80142E050E00E946635892B11F06A
:1057D00080E0A4C301501040D4010D931C9380912C
:1057E0006002882309F06BC3C60163E270E10E9486
:1057F0005F35C60160E870E00E94FF35082F10E0B9
:10580000C701C6968A0D9B1DB601A8010E947E3570
:10581000E00EF11EC60164ED7FE00E945F35C60117
:1058200060E870E00E94FF35082F10E0C701C696BF
:105830008A0D9B1DB601A8010E947E3580916002F1
:105840008F5F80936002015010400E0D1F1DEA8192
:10585000FB811183008361C390E001973C0143E029
:10586000759467944A95E1F737E0832E912C88224E
:105870009922F1E06F167104F1F021E062167104D3
:1058800048F032E063167104E9F083E068167104B1
:10589000A9F42BC089B390E021E0422E512C082CB2
:1058A00002C0440C551C0A94E2F7482259223FE0FA
:1058B00080E020EF2DC080E18093600244245524D5
:1058C00030E024C083B390E0082C02C09595879502
:1058D0000A94E2F780FF04C001E0402E512C02C080
:1058E0004424552430E08FEF12C080B390E0082CA0
:1058F00002C0959587950A94E2F780FF04C011E0F5
:10590000412E512C02C04424552430EF80E020E089
:1059100090E0082C02C0959587950A94E2F780FDE7
:1059200002C0332409C080E090E0452811F481E0F2
:1059300090E02C01B4E53B2E832F90E0082C02C0B0
:10594000959587950A94E2F780FF07C0332019F4F4
:10595000A9E43A2E02C0F6E43F2E822F90E0082CF4
:1059600002C0959587950A94E2F780FF06C0332020
:1059700009F4ECC2E6E43E2E03C0332009F499C2D8
:10598000C6016AEC7FE00E945F35C60160E870E006
:105990000E94FF35082F10E0C701C6968A0D9B1D97
:1059A000B601A8010E947E350E0D1F1D962D9F5B2E
:1059B0009983F501E00FF11F96ABC801019670E3E2
:1059C000272E280CF501E80FF91F26AA7C01089460
:1059D000E11CF11CC60160EC7FE00E945F35C6014E
:1059E00060E870E00E94FF35A82FB0E0BD83AC8373
:1059F000085C1F4FC501800F911FB601AD010E94C9
:105A00007E35B2E06B16710420F0C3018150904ED8
:105A100001C0C30163E0880F991F6A95E1F7EC812B
:105A2000FD81EE0DFF1D880D991D54E0880F991F13
:105A30005A95E1F746E4E42EF12CE80EF91EF596AE
:105A40008F010A0D1B1DF597FD83EC8336E5632E50
:105A5000712C680E791E13C0C7010E945B36D801F5
:105A600011968C93EC81FD813196FD83EC830F5F61
:105A70001F4F0894E11CF11CE614F70421F0D80133
:105A80008C91882349F7C6016AEB7FE00E945F355D
:105A9000C60160E870E00E94FF35082F10E08C819D
:105AA0009D81C6968A0D9B1DB601A8010E947E3578
:105AB0006C807D80600E711E26E3E22EF12CE60CD8
:105AC000F71CB1E43B1609F44BC0C60168E97FE05E
:105AD0000E945F35C60160E870E00E94FF35082F24
