:100000000C9427070C9444070C9444070C94260A7C
:100010000C9444070C9444070C9444070C948117E7
:100020000C9444070C9444070C9444070C94440724
:100030000C9444070C9428080C9444070C9444072F
:100040000C94F02C0C9444070C9444070C94440733
:100050000C9444074552524F520D0A0D0A000D0AE6
:1000600000436F6D70696C69657274206D697420EE
:100070004743432056657273696F6E20342E332ECA
:10008000350D0A00436F6D70696C6965727420618B
:100090006D20536570203135203230313220756D3E
:1000A0002030313A34393A34320D0A000A0D53798E
:1000B0007374656D2052656164790A0D003A2050B1
:1000C0004F4E47210D0A002E2569002E2569002E6E
:1000D0002569002569004D792049503A202531696C
:1000E0002E2531692E2531692E2531690D0A0D0A1B
:1000F000005245414459210D0A000A0D4E49432042
:10010000696E69743A0048454C5020202020202D0B
:10011000207072696E742048656C70746578740D17
:100120000A3F20202020202020202D207072696E80
:10013000742048656C70746578740D0A5245534597
:1001400054202020202D207265736574207468650A
:1001500020415652202D20436F6E74726F6C6C6577
:10016000720D0A5443502020202020202D206C693D
:1001700073742074686520746370207461626C65A8
:100180000D0A4950202020202020202D206C69734A
:10019000742F6368616E67652069700D0A4E45545F
:1001A0002020202020202D206C6973742F6368612B
:1001B0006E6765206E65746D61736B0D0A524F55E5
:1001C0005445522020202D206C6973742F63686180
:1001D0006E676520726F757465722069700D0A54C0
:1001E000494D4520202020202D206765742074690A
:1001F0006D650D0A504F525441202020202D206C57
:1002000069737420504F5254410D0A504F5254415B
:10021000474554202D2067657420504F525441208B
:10022000302D370D0A504F525443202020202D20CE
:100230006C69737420504F5254430D0A504F5254FE
:1002400043474554202D2067657420504F52544336
:1002500020302D370D0A504F525443534554202D12
:100260002073657420504F52544320302D37203076
:100270002F310D0A504F525443544F47202D2074B4
:100280006F67676C6520504F52544320302D3720E4
:1002900078787878286D73290D0A4D414320202005
:1002A000202D206C697374204D41432D616464726C
:1002B0006573730D0A535620202020202D2073656E
:1002C00074207661726961626C650D0A0045455063
:1002D000524F4D2057726974653A282569293A258D
:1002E000690D0A00454550524F4D2057726974659B
:1002F0003A282569293A25630D0A00746F67676CEF
:1003000065506F727444202531692D3E2531692076
:100310006D730D0A004552524F5220504152414DCB
:100320004554455220205B50696E2E53746174759C
:10033000735D0D0A00736574706F7274432025310C
:10034000692E2531690D0A0025690D0A0043353AE9
:100350002025690D0A43363A2025690D0A43373AAC
:100360002025690D0A0043323A2025690D0A4333DE
:100370003A2025690D0A43343A2025690D0A0043C5
:10038000303A2025690D0A43313A2025690D0A00CB
:1003900025690025690D0A004125693A2025690D66
:1003A0000A0041303A2025690D0A41313A20256979
:1003B0000D0A41323A2025690D0A41333A20256958
:1003C0000D0A002563000A0D54494D453A20253297
:1003D000693A2532693A2532690D0A00496E686129
:1003E0006C7420646572205661726961626C655B31
:1003F0002532695D203D202532690D0A00526F7556
:100400007465722049503A202531692E2531692EB4
:100410002531692E2531690D0A004E45544D415351
:100420004B3A202531692E2531692E2531692E253B
:1004300031690D0A004D792049503A202531692E45
:100440002531692E2531692E2531690D0A00414279
:10045000434445464748494A4B4C4D4E4F505152F4
:10046000535455565758595A6162636465666768B4
:10047000696A6B6C6D6E6F70717273747576777874
:10048000797A303132333435363738392B2F3D00D5
:100490003C2F7461626C653E0D0A003C2F74723E05
:1004A0000D0A003C2F74643E00223E00206E616DF8
:1004B000653D224F5554222076616C75653D22546E
:1004C00000636865636B6564003C696E70757420D9
:1004D000747970653D22636865636B626F78222072
:1004E000003C74643E003C2F74643E00223E0020B9
:1004F0006E616D653D224F5554222076616C7565A5
:100500003D225300636865636B6564003C696E70EF
:10051000757420747970653D22636865636B626FE2
:10052000782220003C74643E003C2F74643E003C02
:1005300074643E00293B223E3C2F74643E00302C04
:100540003135332C30003135332C302C30003C74B5
:1005500064207374796C653D226261636B67726FAE
:10056000756E642D636F6C6F723A2072676228003B
:100570003C2F74643E003C2F74643E3C74643E0027
:100580003C74723E3C74643E50003C74723E3C7459
:10059000643E503C2F74643E3C74643E4E616D6515
:1005A0003C2F74643E3C74643E56616C75653C2F10
:1005B00074643E3C74643E5377697463683C2F7482
:1005C000643E3C74643E546F67676C653C2F746492
:1005D0003E3C2F74723E0D0A003C7461626C6520D3
:1005E0007374796C653D2277696474683A2033309E
:1005F0003070783B223E0D0A000400051A06FF0702
:100600001F080009000AFF0B19C100C00DC232CA41
:10061000EECB05C412C612C70CE400E522E2F9E3F2
:1006200001E000E1013C68746D6C3E3C686561640A
:100630003E3C6D65746120687474702D65717569D8
:10064000763D22726566726573682220636F6E74F0
:10065000656E743D2233302220746578742F68747F
:100660006D6C3B20636861727365743D69736F2DB7
:10067000383835392D31223E0D0A3C7469746C6569
:100680003E415652204E455420494F3C2F746974C8
:100690006C653E0D0A3C7374796C652074797065E5
:1006A0003D22746578742F637373223E0D0A2E66A3
:1006B000657474207B666F6E742D776569676874E6
:1006C0003A20626F6C643B206D617267696E2D74B5
:1006D0006F703A313570783B7D0D0A7464207B2051
:1006E00063656C6C70616464696E673A203270781F
:1006F0003B207D0D0A626F6479207B20666F6E74EB
:100700002D66616D696C793A20617269616C3B207C
:1007100020666F6E742D73697A653A20312E302011
:10072000656D3B20636F6C6F723A20233030303040
:1007300030303B206261636B67726F756E642D634E
:100740006F6C6F723A20726762283235352C203216
:1007500035352C20323034297D0D0A6831207B74E8
:100760006578742D616C69676E3A2063656E746597
:10077000723B20666F6E742D7765696768743A20E6
:10078000626F6C643B20636F6C6F723A20776869AC
:1007900074653B20666F6E742D73697A653A2031FB
:1007A0002E3220656D7D0D0A3C2F7374796C653E89
:1007B0000D0A3C2F686561643E3C626F64793E3C83
:1007C00063656E7465723E0D0A3C7461626C6520EF
:1007D0007374796C653D2277696474683A203630A9
:1007E0003070783B20746578742D616C69676E3A5F
:1007F000206C6566743B206261636B67726F756E17
:10080000642D636F6C6F723A2072676228313533E2
:100810002C203135332C20323535293B222063659D
:100820006C6C70616464696E673D2235223E0D0A0E
:100830003C74723E3C74643E3C2F74643E3C2F74A6
:10084000723E0D0A3C74723E3C74643E3C68313E1C
:100850004156522D4E45542D494F3C2F68313E0D87
:100860000A3C7461626C65207374796C653D227713
:10087000696474683A20313030253B20666F6E74AD
:100880002D7765696768743A20626F6C643B223E1D
:100890000D0A3C74723E3C74643E53657276657218
:1008A0007A6569743A20255449403C2F74643E3C73
:1008B0007464207374796C653D22746578742D615D
:1008C0006C69676E3A2072696768743B223E5061BA
:1008D0006765636F756E7465723A202556414032C4
:1008E000393C2F74643E3C2F74723E3C2F7461621D
:1008F0006C653E0D0A3C2F74643E3C2F74723E3C86
:100900002F7461626C653E0D0A3C62723E3C666FFC
:10091000726D206E616D653D22666F726D312220B1
:100920006D6574686F643D22706F7374222061631B
:1009300074696F6E3D2220223E0D0A3C7461626C28
:1009400065207374796C653D2277696474683A2018
:1009500036303070783B20746578742D616C69672F
:100960006E3A2063656E7465723B20616C69676ED8
:100970003D63656E7465723B206261636B67726F85
:10098000756E642D636F6C6F723A207267622832E5
:1009900035352C203235352C20313533293B22207A
:1009A000626F726465723D2230223E0D0A3C7472A1
:1009B0003E3C74643E3C2F74643E3C2F74723E0D8A
:1009C0000A3C74723E3C74643E3C2F74643E3C2F7F
:1009D00074723E0D0A3C74723E3C74643E3C70205E
:1009E000616C69676E3D2263656E746572223E4973
:1009F0004E5055542F4F55545055543C2F703E3C3B
:100A000068723E3C2F74643E3C2F74723E0D0A3C6B
:100A100074723E3C74643E25494F3C2F74643E3CE6
:100A20002F74723E0D0A3C74723E3C74643E3C6806
:100A3000723E3C7020616C69676E3D2263656E7426
:100A40006572223E3C696E70757420747970653DE4
:100A5000227375626D697422206E616D653D22534B
:100A60005542222076616C75653D2253656E646542
:100A70006E223E3C2F703E3C2F666F726D3E3C2FC7
:100A800074643E3C2F74723E0D0A3C2F7461626C9C
:100A9000653E0D0A3C2F74643E3C2F74723E3C2F21
:100AA0007461626C653E0D0A3C62723E3C68723E47
:100AB0000D0A3C6469763E504F525442202D3E2030
:100AC000454E4332384A36303C2F6469763E0D0A33
:100AD0003C6469763E41636874756E673A204B6585
:100AE000696E204C434420616E20504F5254432085
:100AF000616E7363686C6965EFBFBD656E212042EE
:100B000065736368EFBFBD646967756E67206DEFDD
:100B1000BFBD676C6963682E3C2F6469763E0D0A21
:100B20003C62723E0D0A3C6469763E5765627365AD
:100B30007276657220766F6E20556C7269636820DC
:100B400052616469672056312E302E39393C2F644A
:100B500069763E0D0A3C6469763E436F6D70696C40
:100B60006965727420616D205365702031342032C4
:100B700030313220756D2032333A35343A333820F3
:100B80006D6974204743432056657273696F6E2008
:100B9000342E332E353C2F6469763E0D0A3C646951
:100BA000763E56657273696F6E20312E3520526F16
:100BB00042756520766F6D2031382E30322E3230FE
:100BC00030392066EFBFBD72204156522D4E45543C
:100BD0002D494F3C2F6469763E0D0A3C2F7370619E
:100BE0006E3E3C2F626F64793E3C2F68746D6C3EA4
:100BF0000D0A25454E44002556414030340D0A2546
:100C000056414030350D0A2556414030360D0A25F3
:100C1000454E44003C666F726D206E616D653D22ED
:100C2000666F726D3222206D6574686F643D22704C
:100C30006F73742220616374696F6E3D2220223EBF
:100C4000414444523A3C696E707574206E616D6522
:100C50003D22414444223E3C62723E3C696E7075C6
:100C60007420747970653D2268696464656E226ED3
:100C7000616D653D22676E6161223E56414C55456E
:100C80003A3C696E707574206E616D653D22564107
:100C90004C223E3C696E70757420747970653D22FB
:100CA0007375626D697422206E616D653D225355C6
:100CB00042222076616C75653D2253656E64656ED7
:100CC000223E3C2F666F726D3E0D0A2545455052FF
:100CD0004F4D3C62723E0D0A4E414D453A37303A17
:100CE0003435340D0A25454E4400485454502F31B4
:100CF0002E302032303020446F63756D656E742065
:100D0000666F6C6C6F77730D0A5365727665723A15
:100D1000204156525F5745425F5377697463680DAF
:100D20000A436F6E74656E742D547970653A207441
:100D30006578742F68746D6C0D0A0D0A0048545460
:100D4000502F312E302032303020446F63756D6566
:100D50006E7420666F6C6C6F77730D0A53657276D4
:100D600065723A204156525F5745425F5377697426
:100D700063680D0A436F6E74656E742D54797065E7
:100D80003A20696D6167652F6A70670D0A0D0A0068
:100D9000485454502F312E302034303120556E615C
:100DA0007574686F72697A65640D0A536572766549
:100DB000723A204156525F5745425F5377697463D8
:100DC000680D0A5757572D41757468656E746963CD
:100DD0006174653A204261736963207265616C6D6C
:100DE0003D224E65656450617373776F7264220DA6
:100DF0000A436F6E74656E742D547970653A207471
:100E00006578742F68746D6C0D0A0D0A00343031EA
:100E100020556E617574686F72697A656425454EF8
:100E20004400302C203135332C2030003135332C28
:100E300020302C2030000000636865636B6564001F
:100E40003C62723E00504F5354002578200011241C
:100E50001FBECFE5D8E0DEBFCDBF12E0A0E6B0E018
:100E6000E2E2F8E602C005900D92A232B107D9F78E
:100E700016E0A2E2B2E001C01D92AE37B107E1F781
:100E80000E9446070C940F340C940000FF920F93BD
:100E90001F93CF93DF931ABA8FEF84BB11BA60E828
:100EA00075E280E090E00E94F9070E94D92C00D002
:100EB0008CEA90E0EDB7FEB7928381830E94B70879
:100EC00084E890E0EDB7FEB7928381830E94B70873
:100ED00081E690E0EDB7FEB7928381830E94B70868
:100EE00080E090E0A0E0B0E00F900F90000001964D
:100EF000A11DB11D8034F2E49F07FFE0AF07F0E0D1
:100F0000BF07A1F70E94DB160E948A2B0E94D22CF9
:100F10008BB780628BBF78948FEEF82E0EE510E0D1
:100F2000C4E5D0E0F6B80E94831580910A0580FFE1
:100F30001DC000D0EDB7FEB7128301830E94B70831
:100F40000F900F9085E995E00E945B1C882349F47F
:100F500000D0EDB7FEB7D283C1830E94B7080F90CF
:100F60000F9080910A058E7F80930A05609191050C
:100F700070919205809193059091940520E13EE057
:100F800040E050E00E945331CA01B90128E130E04D
:100F900040E050E00E9453316093CD05609191058F
:100FA0007091920580919305909194052CE330E027
:100FB00040E050E00E945331CA01B9012CE330E017
:100FC00040E050E00E94533160935C0260919105D3
:100FD0007091920580919305909194052CE330E0F7
:100FE00040E050E00E9453316093FC040E94972B34
:100FF00099CF9B01AC0188E98AB984E0220F331FA5
:10100000441F551F8A95D1F760E074E284EF90E0A9
:101010000E945331215029B980910A058B7F80931A
:101020000A050895982F80910A0582FD03C05D9BF3
:10103000FECF9CB90895CF93DF93EC0103C02196B6
:101040000E94120888818823D1F7DF91CF910895FB
:101050001F920F920FB60F9211241F932F933F935D
:101060004F935F936F937F938F939F93AF93BF93B0
:10107000EF93FF9380910A0582FD4BC01CB1812F35
:101080000E94120880910A0580FF04C080910A0521
:10109000826028C0183069F4809122029091230266
:1010A000892B09F452C0809122029091230201976A
:1010B0002BC01D30D1F4E0912202F0912302EC56B6
:1010C000FA4F80818C3589F0E0912202F091230261
:1010D000EB56FA4F10821092230210922202809156
:1010E0000A05816080930A0530C0809122029091A8
:1010F0002302C19750F58091220290912302FC01B6
:10110000EB56FA4F108301969093230280932202AC
:101110001CC020919C0030919D0080919E00909178
:101120009F0001972817390781F08CB1F90181934D
:10113000F0939D00E0939C00E65CF54031F4205371
:10114000304030939D0020939C00FF91EF91BF9120
:10115000AF919F918F917F916F915F914F913F914F
:101160002F911F910F900FBE0F901F9018956F92A7
:101170007F928F929F92AF92BF92CF92DF92EF9227
:10118000FF920F931F93DF93CF93CDB7DEB7649792
:101190000FB6F894DEBF0FBECDBF8E010B5D1F4FA3
:1011A000F801E190F1908F01BB243E010894611C8D
:1011B000711C5BE0852E912C8C0E9D1E40E3A42EAD
:1011C00002C068018601F7018491882309F489C06F
:1011D0000894E11CF11C853209F080C0F7010894E5
:1011E000E11CF11C2491822F90E0C0970A9710F027
:1011F000822F0BC02B871C86C4010E94A432B82EFC
:10120000F7010894E11CF11C8491893671F08A364B
:1012100028F4823661F08336A1F61DC0833749F089
:10122000883729F18F3669F620C04AE021C042E0B4
:101230001FC032E0C32ED12CC00ED11EF801008198
:10124000118104C00F5F1F4F0E941208F8018081B6
:101250008823C1F7B7CF22E0C22ED12CC00ED11EF9
:10126000F80180810E941208ADCF48E001C040E142
:1012700092E0C92ED12CC00ED11EF801808191813F
:10128000B30150E00E94963320E030E0A9014F5FA7
:101290005F4FF301E20FF31F8081882311F09A0161
:1012A000F5CF8B2D90E0281739079CF4B21AF40182
:1012B000C4018B0D911D01C0A192E817F907E1F758
:1012C0001082C401B3010E946133C301B4010E94C2
:1012D0006C33C3010E941B08BB2474CF0E94120808
:1012E00070CF64960FB6F894DEBF0FBECDBFCF911E
:1012F000DF911F910F91FF90EF90DF90CF90BF9003
:10130000AF909F908F907F906F90089540E050E055
:101310009A01220F331F240F351FD901AA0FBB1FBB
:10132000AA0FBB1FA254BB4F1A968D919C911B977D
:10133000892B09F51C9211961C921197F901EE0F59
:10134000FF1FEE0FFF1FE054FB4F108213961C92FD
:101350001397F901EE0FFF1FEE0FFF1FEE53FB4F28
:10136000108215961C92159716961D921D921D922D
:101370001C92199709C01A968D919C911B97019701
:101380001B969C938E931A974F5F5F4F4530510584
:1013900009F0BECF0895AC0120E001C02F5FA22F5D
:1013A000B0E0FD01EE0FFF1FEE0FFF1FEC5DFD4FE4
:1013B00080819181892B91F7253050F451834083AE
:1013C000AA0FBB1FAA0FBB1FAA5DBD4F6D937C93D5
:1013D000089520E001C02F5FA22FB0E0FD01EE0FC5
:1013E000FF1FEE0FFF1FEC5DFD4F0190F081E02D20
:1013F000309719F0E817F90771F7253040F4AA0F74
:10140000BB1FAA0FBB1FAC5DBD4F6D937C930895AE
:10141000AC0120E001C02F5FA22FB0E0FD01EE0F74
:10142000FF1FEE0FFF1FE85CFD4F80819181892B2C
:1014300091F7253050F451834083AA0FBB1FAA0FA8
:10144000BB1FA65CBD4F6D937C9308951F920F92B6
:101450000FB60F9211248F938091FD0481608093C9
:10146000FD0410924E0210924F0210925002109200
:1014700051028BB78F7D8BBF8F910F900FBE0F9056
:101480001F9018950F931F93CF93DF9300916902DC
:1014900010916A0260E070E086E008301807C1F43D
:1014A000FB01EE0FFF1FE60FF71FEE0FFF1FEE0F02
:1014B000FF1FE254FB4F2681378140855185809183
:1014C000790290917A02A0917B02B0917C021AC0BD
:1014D0000830110509F5FB01EE0FFF1FE60FF71F9E
:1014E000EE0FFF1FEE0FFF1FE254FB4F26813781E7
:1014F000408551858091770290917802A091790280
:10150000B0917A02281739074A075B0729F484E665
:1015100090E09387828788C06F5F7F4F6530710549
:1015200009F0BACF20E030E0A901440F551F420F67
:10153000531FEA01CC0FDD1FCC0FDD1FC254DB4F60
:10154000BE016A5F7F4F8E819F81A885B985009714
:10155000A105B10509F062C0E6E008301E0749F5B3
:1015600080916302888380916402898380916502FF
:10157000FA01EE0FFF1FEE0FFF1FE054FB4F8083B9
:10158000809166028B8380916702FA01EE0FFF1F44
:10159000EE0FFF1FEE53FB4F8083809168028D8317
:1015A0008091790290917A02A0917B02B0917C02A5
:1015B0002BC008301105C1F58091630288838091AA
:1015C0006402898380916502FA01EE0FFF1FEE0F1E
:1015D000FF1FE054FB4F8083809166028B838091D4
:1015E0006702FA01EE0FFF1FEE0FFF1FEE53FB4FD6
:1015F0008083809168028D83809177029091780238
:10160000A0917902B0917A02FB0180839183A28339
:10161000B38384E690E09B878A8706C02F5F3F4FA5
:101620002530310509F080CFDF91CF911F910F91C7
:1016300008951F93AB01BC0120E030E0122FF901A7
:10164000EE0FFF1FE20FF31FEE0FFF1FEE0FFF1F46
:10165000E254FB4F86819781A085B1858417950759
:10166000A607B70731F02F5F3F4F2530310531F71F
:1016700015E0812F1F910895FF920F931F93182F4C
:10168000092F20E030E0F22EF901EE0FFF1FE20FEC
:10169000F31FEE0FFF1FEE0FFF1FE254FB4F86817B
:1016A0009781A085B18584179507A607B70731F004
:1016B0002F5F3F4F2530310531F726C0212F302FC6
:1016C000C901DC0140E050E08F2D90E09C01220F29
:1016D000331F280F391F220F331F220F331FF90129
:1016E000E40FF51FE254FB4F80818C93FA01E9531C
:1016F000FA4F808116968C9316974F5F5F4F119625
:101700004630510561F70FC0A7ECB5E0812F902F4F
:101710009C01F9019FEF90838D918683319685E03E
:10172000AD3CB807C1F71F910F91FF900895EF925C
:10173000FF920F931F93CF93DF937C018B01EC01FA
:1017400011C0888199812296F82FE0E0DF01A90F6E
:10175000B11DCD01A0E0B0E0280F391F4A1F5B1F6B
:10176000625070406230710560F7F801EE7FEE0D57
:10177000FF1D00FF08C0908180E0A0E0B0E0280FCE
:10178000391F4A1F5B1FCA01AA27BB274070507030
:10179000820F931FA41FB51F9D0144275527A070DA
:1017A000B070280F391F4A1F5B1F20953095C90163
:1017B000DF91CF911F910F91FF90EF900895AF921D
:1017C000BF92CF92DF92EF92FF920F931F937C0113
:1017D0005A016B010E943C0B88E090E0F70195876D
:1017E00084878701025F1F4F80E490E0F8019783B0
:1017F000868380E8808780914C0290914D0201960B
:1018000090934D0280934C029483858385E4F70185
:101810008687F8011182A08AB18AC28AD38A809110
:10182000FE049091FF04A0910005B091010584870A
:101830009587A687B78713861286C80164E170E092
:1018400020E030E040E050E00E94970BF8019287E2
:1018500083871F910F91FF90EF90DF90CF90BF9003
:10186000AF9008956F927F928F929F92AF92BF92A6
:10187000CF92DF92EF92FF920F931F93CF93DF935C
:101880008C01EC01A296BC01625F7F4FDB011C96CC
:10189000CD90DD90ED90FC901F9740E050E0E6E1A8
:1018A000AE2EB12C4A9DF0014B9DF00D5A9DF00DCE
:1018B0001124E55FFA4F80819181A281B3818C155B
:1018C0009D05AE05BF0509F0A1C024813581888141
:1018D00099812817390709F099C088859985AA85C3
:1018E000BB8580879187A287B3878C819D81AE81DC
:1018F000BF8184879587A687B7878D85808B8389ED
:101900008F3F11F083E0838BFB01F280E3802CEEAC
:101910003FEFE20EF31E8C8590E0807F90709595EE
:10192000879595958795E81AF90A00E010E086E119
:1019300090E0489FF001499FF00D589FF00D112451
:10194000E55FFA4FA484B584C684D78424853585A1
:1019500046855785648475848684978484859585B7
:10196000A685B785B82FAA2799278827AD2CBB2431
:10197000CC24DD248A0D9B1DAC1DBD1D2070307054
:101980005070232F342F452F5527820F931FA41FEC
:10199000B51F20E03FEF40E050E062227322842236
:1019A0009522982C872C762C6624860D971DA81DD1
:1019B000B91D8E0D9F1DA01FB11F182F0027FF24DA
:1019C000EE242B2F332744275527E20EF31E041F46
:1019D000151F9C01AD01207030705070232F342FE3
:1019E000452F5527E20EF31E041F151F8070A070AF
:1019F000B070BA2FA92F982F8827E80EF91E0A1F5A
:101A00001B1FE486F586068717874FC04F5F5F4F21
:101A10004530510509F046CF20E030E066E170E046
:101A2000269FA001279F500D369F500D1124FA01CB
:101A3000E55FFA4F80819181A281B3810097A10572
:101A4000B10569F5C082D182E282F382D801929613
:101A50008D919C919397958384838A819B819783B1
:101A6000868388859985AA85BB8580879187A2878B
:101A7000B3878C819D81AE81BF8184879587A6873E
:101A8000B7878D85808B128A118A83E0838B148AB5
:101A9000FA01E05EFA4F80818E7F808306C02F5F5F
:101AA0003F4F2530310509F0BBCFDF91CF911F911A
:101AB0000F91FF90EF90DF90CF90BF90AF909F90ED
:101AC0008F907F906F900895EF92FF920F931F93E6
:101AD000CF93DF937B018C0120E030E0C6E1D0E0C2
:101AE000622F2C9FF0012D9FF00D3C9FF00D1124D3
:101AF000E55FFA4F80819181A281B3818E159F05A8
:101B0000A007B10729F4848195818417950731F0E6
:101B10002F5F3F4F2530310519F765E0862FDF91A4
:101B2000CF911F910F91FF90EF90089520E001C099
:101B30002F5FA22FB0E0FD01EE0FFF1FEE0FFF1F82
:101B4000E85CFD4F0190F081E02D309789F0909195
:101B5000810280918202E817F90751F7AA0FBB1F93
:101B6000AA0FBB1FA65CBD4FED91FC9180E00995CB
:101B70000895CF93DF93582F40E0282F30E086E17F
:101B800090E0289FE001299FD00D389FD00D1124AF
:101B9000CF5EDA4F01C04F5FA42FB0E0FD01EE0F22
:101BA000FF1FEE0FFF1FEC5DFD4F0190F081E02D58
:101BB000309769F02881398188819981892F992707
:101BC000322F2227820F931FE817F90721F7AA0F58
:101BD000BB1FAA0FBB1FAA5DBD4FED91FC91852FC6
:101BE0000995DF91CF910895863038F5282F30E0A0
:101BF00086E190E0289FD001299FB00D389FB00D5D
:101C00001124FD01E55FFA4F1082118212821382C6
:101C10001582148217821682108611861286138608
:101C20001486158616861786108A128A118A138AD8
:101C3000A05EBA4F8C918E7F8C9308954F925F92E5
:101C40006F927F928F929F92AF92BF92CF92DF92CC
:101C5000EF92FF920F931F93CF93DF93EC018BE6EC
:101C6000482E82E0582E70E086E190E0689FF001F7
:101C7000699FF00D789FF00D1124E55FFA4F868182
:101C800097819093800280937F02848195819093C5
:101C9000820280938102109292021092910281E05E
:101CA00094EF90938E0280938D0280E580938B0257
:101CB000E484F58406851785248535854685578512
:101CC000A484B584C684D78484859585A685B78584
:101CD000982E882477246624E12EFF2400271127DC
:101CE0006E0C7F1C801E911E207030705070232F50
:101CF000342F452F5527620E731E841E951E80E0DB
:101D00009FEFA0E0B0E0A822B922CA22DB22DC2C9F
:101D1000CB2CBA2CAA246A0C7B1C8C1C9D1C8089A1
:101D200080938C02808981FF16C00894611C711C0D
:101D3000811C911C82E08093930284E08093940242
:101D400081E08093950284EF8093960280E68093F1
:101D50008B02C4E0D0E0562D442733272227892D5B
:101D60009927AA27BB27280F391F4A1F5B1FD401B9
:101D7000C30180709070B070892F9A2FAB2FBB2752
:101D8000280F391F4A1F5B1F80E09FEFA0E0B0E0E3
:101D9000682279228A229B22B82DA72D962D88278A
:101DA000280F391F4A1F5B1F209387023093880238
:101DB0004093890250938A0286E190E0689F8001F7
:101DC000699F100D789F100D1124055F1A4FF801BF
:101DD00080859185A285B385809383029093840248
:101DE000A0938502B0938602CE018896D201129606
:101DF0009C93129713968C93139786E019968C9365
:101E000040815181628173818DE592E00E94DF0BF8
:101E10001092900210928F0270916D0260916E028A
:101E2000685F7F4F80916B0290E08F709070880F99
:101E3000991F880F991F681B790B625070409B0196
:101E400040E050E06E5F7F4F87E792E00E94970B83
:101E500090938F0280939002CE01C6966DE572E05A
:101E60000E948522F801108ADF91CF911F910F9176
:101E7000FF90EF90DF90CF90BF90AF909F908F90AA
:101E80007F906F905F904F9008958F929F92AF9246
:101E9000BF92DF92EF92FF920F931F93CF93DF9346
:101EA0007B018C015A0149018BB78F7D8BBF20E0EC
:101EB00030E046E150E0D22E249FE001259FD00D76
:101EC000349FD00D1124C55FDA4F88819981AA8192
:101ED000BB810097A105B105F1F4822F0E94F40D9A
:101EE000E882F9820A831B83BD82AC829F828E8244
:101EF00082ED94E0A0E0B0E088879987AA87BB874D
:101F000089E299E0A0E0B0E08C879D87AE87BF872B
:101F10008EE18B8B06C0D3942F5F3F4F2530310568
:101F200051F62D2D30E086E190E0289FF001299FA9
:101F3000F00D389FF00D1124E55FFA4F82E0808BA1
:101F400080E090E06D2D0E941E0E8BB780628BBFEB
:101F5000DF91CF911F910F91FF90EF90DF90BF9095
:101F6000AF909F908F900895682F282F30E086E1E2
:101F700090E0289FF001299FF00D389FF00D11246B
:101F8000E55FFA4F8FEF9FEF928B818B81E1808B22
:101F900080E090E00E941E0E08957F928F929F92A3
:101FA000AF92BF92CF92DF92EF92FF920F931F9367
:101FB000CF93DF9320E001C02F5F822E9924F4019C
:101FC000EE0FFF1FEE0FFF1FEC5DFD4F0190F08144
:101FD000E02D309709F4ECC2909181028091820249
:101FE000E817F90749F790918C02892F82718231A5
:101FF00009F0C5C08DE592E00E94320C2091770275
:10200000309178024091790250917A02C0917F021A
:10201000D091800260E070E006E110E0609FF00186
:10202000619FF00D709FF00D1124E55FFA4F8081E4
:102030009181A281B38182179307A407B50729F480
:10204000848195818C179D0731F06F5F7F4F6530DC
:10205000710521F7ADC2262F30E086E190E0289F80
:102060004001299F900C389F900C11248BE095E043
:10207000880E991E8EE1D40153968C9353971C962B
:102080002D913D914D915C911F971C96ED90FD9087
:102090000D911C911F971C96AD90BD90CD90DC903A
:1020A0001F971C968D919D910D90BC91A02D252F71
:1020B000332744275527B82FAA2799278827280F81
:1020C000391F4A1F5B1F2F5F3F4F4F4F5F4F80E00D
:1020D00090E0AFEFB0E0E822F9220A231B23EF2CB7
:1020E000F02E012F11272E0D3F1D401F511F80E0A4
:1020F0009FEFA0E0B0E0A822B922CA22DB22DC2CAC
:10210000CB2CBA2CAA242A0D3B1D4C1D5D1D122F71
:102110000027FF24EE24852F9927AA27BB27E80E46
:10212000F91E0A1F1B1FDA01C90180709070B07080
:10213000892F9A2FAB2FBB27E80EF91E0A1F1B1FF2
:10214000207040705070542F432F322F2227E20E00
:10215000F31E041F151FD4011C96ED92FD920D93E2
:102160001C931F9780E150968C9380E090E00E9432
:102170001E0E81E090E0F401928B818B19C29230A7
:1021800009F045C08DE592E00E94320C2091770263
:10219000309178024091790250917A02C0917F0289
:1021A000D091800260E070E006E110E0609FF001F5
:1021B000619FF00D709FF00D1124E55FFA4F808153
:1021C0009181A281B38182179307A407B50729F4EF
:1021D000848195818C179D0731F06F5F7F4F65304B
:1021E000710521F7E5C1262F30E086E190E0289FB8
:1021F000F001299FF00D389FF00D1124E55FFA4F93
:1022000082E1808B80E090E00E941E0ED1C120917F
:102210007702309178024091790250917A02609170
:102220007F0270918002C0E0D0E006E110E07C2ED9
:10223000C09FF001C19FF00DD09FF00D1124E55F0C
:10224000FA4F80819181A281B38182179307A407FD
:10225000B50729F4848195818617970729F021967F
:10226000C530D10521F79BC18DE592E00E94320C6B
:102270004C2F50E086E190E0489FF001499FF00D1F
:10228000589FF00D1124E55FFA4F808980FD8EC0C4
:102290008AC020918505309186054091870550912F
:1022A0008805E0908505F0908605009187051091DE
:1022B0008805A0908505B0908605C0908705D090D0
:1022C00088058091850590918605A0918705B0913C
:1022D0008805252F332744275527B82FAA27992764
:1022E0008827280F391F4A1F5B1F2F5F3F4F4F4F13
:1022F0005F4F80E090E0AFEFB0E0E822F9220A23E0
:102300001B23EF2CF02E012F11272E0D3F1D401FF8
:10231000511F80E09FEFA0E0B0E0A822B922CA22BE
:10232000DB22DC2CCB2CBA2CAA242A0D3B1D4C1D05
:102330005D1D122F0027FF24EE24852F9927AA2741
:10234000BB27E80EF91E0A1F1B1FDA01C9018070A6
:102350009070B070892F9A2FAB2FBB27E80EF91E13
:102360000A1F1B1F207040705070542F432F322FB4
:102370002227E20EF31E041F151FE0928505F0923E
:10238000860500938705109388058091890580FF55
:1023900008C080E18093890580E090E065E00E94BC
:1023A0001E0E85E08EC0808982FF8EC086E190E09F
:1023B000489FE001499FD00D589FD00D1124C55F63
:1023C000DA4F2C853D854E855F85EC84FD840E8536
:1023D0001F85AC84BD84CE84DF848C859D85AE85CD
:1023E000BF85252F332744275527B82FAA2799279C
:1023F0008827280F391F4A1F5B1F2F5F3F4F4F4F02
:102400005F4F80E090E0AFEFB0E0E822F9220A23CE
:102410001B23EF2CF02E012F11272E0D3F1D401FE7
:10242000511F80E09FEFA0E0B0E0A822B922CA22AD
:10243000DB22DC2CCB2CBA2CAA242A0D3B1D4C1DF4
:102440005D1D122F0027FF24EE24852F9927AA2730
:10245000BB27E80EF91E0A1F1B1FDA01C901807095
:102460009070B070892F9A2FAB2FBB27E80EF91E02
:102470000A1F1B1F207040705070542F432F322FA3
:102480002227E20EF31E041F151FEC86FD860E8721
:102490001F87888980FF14C0880C991C880C991CA0
:1024A000A6E2B2E08A0E9B1ED401ED91FC91872D2D
:1024B000099580E1888B80E090E0672D0E941E0ED8
:1024C000872D0E94F40D74C0808983FF17C0808916
:1024D00084FF14C0818992890196928B818B88E157
:1024E000808B880C991C880C991CE6E2F2E08E0E19
:1024F0009F1ED401ED91FC918C2F4FC086E190E09E
:10250000489F9001499F300D589F300D1124F901CB
:10251000E55FFA4F808984FF0AC0F901E05EFA4F57
:10252000808180FD04C080818160808341C086E11C
:1025300090E0489FF001499FF00D589FF00D112445
:10254000DF01A55FBA4F50968C91509784FF30C041
:10255000E05EFA4F808180FF2BC051968D919C9157
:1025600052978F5F9F4F21F180E150968C93509747
:1025700051968D919C915297019652969C938E9371
:102580005197880C991C880C991C86E292E0880E61
:10259000991ED401ED91FC91872D099509C08DE517
:1025A00092E00E94320C80918C02857009F071CE0D
:1025B000DF91CF911F910F91FF90EF90DF90CF901F
:1025C000BF90AF909F908F907F900895EF92FF9271
:1025D0000F931F93CF93DF93C0E0D0E006E110E0AC
:1025E00083E0E82EB4E1FB2EC09FF001C19FF00D07
:1025F000D09FF00D1124E55FFA4F8389882319F5E8
:1026000080819181A281B3810097A105B10509F173
:10261000E38A84898F5F848B8150863080F08BB70A
:102620008F7D8BBFF08A80E090E06C2F0E941E0EA1
:102630008BB780628BBF8C2F0E94F40D0AC08C2F49
:102640000E94B90D06C083898F3F19F0838981509C
:10265000838B2196C530D10539F6DF91CF911F913B
:102660000F91FF90EF9008958F929F92AF92BF923B
:10267000CF92DF92EF92FF920F931F935C01FFE7DF
:10268000CF2EF2E0DF2EECEEEE2EEFEFFE2EEC0C76
:10269000FD1C70937F0260938002509381024093EF
:1026A000820208969093830280938402C5014C961F
:1026B000F7019283838381E181874EED842E4FEF72
:1026C000942E8C0C9D1CC401B901A8010E94DF0B43
:1026D0001092860210928502F70172816381685F11
:1026E0007F4F808190E08F709070880F991F880FC6
:1026F000991F681B790B675F7F4F9B0140E050E09B
:1027000069507040C60108970E94970B909385020C
:1027100080938602C5018A96B4010E9485221F918A
:102720000F91FF90EF90DF90CF90BF90AF909F9070
:102730008F9008956F927F928F929F92AF92BF92E7
:10274000CF92DF92EF92FF920F931F933B014C01C8
:102750008BE6A82E82E0B82EB4E1CB2ED12CCA0C89
:10276000DB1C40937F02F6012183F582E48217830C
:1027700006831382128280E094E590936E02809328
:102780006D0281E08093740282EF9FEFA80EB91E64
:10279000C501B401A3010E94DF0B70916D0260912D
:1027A0006E0280916B0290E08F709070880F991F7D
:1027B000880F991F681B790BC60120E030E040E0CC
:1027C00050E00E94970BF6019283838382E690E0AB
:1027D000B5010E9485221F910F91FF90EF90DF902D
:1027E000CF90BF90AF909F908F907F906F90089503
:1027F0000F931F9380916B0290916C0280509140D7
:1028000009F0C1C080916D0290916E02089709F0A5
:10281000BAC080916F02863009F0B5C08091700215
:10282000843009F0B0C0209183023091840240913D
:102830008502509186028091FE049091FF04A09140
:102840000005B0910105281739074A075B0709F011
:102850009AC08091710290917202E1E080309E07EF
:1028600009F08CC00E94420A0BE612E00E501040A4
:102870004091790250917A0260917B0270917C02C2
:10288000C8010E943C0B88E096E0F8019587848798
:102890004091790250917A0260917B0270917C02A2
:1028A00020E030E0F901EE0FFF1FE20FF31FEE0F03
:1028B000FF1FEE0FFF1FE254FB4F86819781A0851B
:1028C000B18584179507A607B70731F02F5F3F4FF3
:1028D0002530310539F725C0ABE6B2E040E050E0E5
:1028E000822F90E09C01220F331F280F391F220FE7
:1028F000331F220F331FF901E40FF51FE254FB4F82
:10290000808152968C935297FA01E953FA4F808155
:1029100018968C9318974F5F5F4F1196463051056C
:1029200051F780E092E0909372028093710280915F
:10293000790290917A02A0917B02B0917C028093FF
:10294000830290938402A0938502B09386028091C3
:10295000FE049091FF04A0910005B09101058093C1
:10296000790290937A02A0937B02B0937C028CE36D
:1029700090E06DE572E00E94852205C08050924093
:1029800011F40E94420A1F910F910895EF92FF9255
:102990000F931F938091690290916A0226E088301C
:1029A000920719F40E94F813A9C0089709F0A6C06D
:1029B00020917B0230917C0240917D0250917E02F9
:1029C0008091FE049091FF04A0910005B091010553
:1029D000281739074A075B0709F090C00E94420A8E
:1029E00080917402813009F07FC080917F0288233A
:1029F000C1F0883009F082C060917702709178024E
:102A00008091790290917A0200918502109186025C
:102A1000E0908302F090840240E020E00E949A134C
:102A20006DC000D000D000D083ED90E0EDB7FEB7D0
:102A3000928381838091770290917802A0917902AC
:102A4000B0917A029070A070B07083839483A58354
:102A5000B6830E94B7088FEC90E0EDB7FEB7928383
:102A600081838091780290E0A0E0B0E0838394833A
:102A7000A583B6830E94B7088BEC90E0EDB7FEB754
:102A8000928381838091790290E0A0E0B0E083831B
:102A90009483A583B6830E94B70887EC90E0EDB7D6
:102AA000FEB7928381838091770290917802A09102
:102AB0007902B0917A028B2F9927AA27BB278383AB
:102AC0009483A583B6830E94B7080F900F900F9050
:102AD0000F908DEB90E0EDB7FEB7928381830E945B
:102AE000B7080F900F900AC0863011F40E94CD0FE6
:102AF00080917402813111F40E94960D1F910F9103
:102B0000FF90EF9008958091FD0481FF09C00E941D
:102B1000E6120E9486098091FD048D7F8093FD045A
:102B20008091FD0480FD0DC0089588E592E06DE57B
:102B300072E00E94F921FC01E65AFD4F10820E94CA
:102B4000C614B29BF2CF8091FD048E7F8093FD046A
:102B50008BB780628BBF08958F929F92AF92BF9286
:102B6000CF92DF92EF92FF920F931F93DF93CF9359
:102B7000CDB7DEB7AA970FB6F894DEBF0FBECDBFB4
:102B80004B015C018E01015F1F4F8091FE0490910B
:102B9000FF04A0910005B091010588259925AA257B
:102BA000BB252091060530910705409108055091FD
:102BB000090582239323A423B5230097A105B1051A
:102BC00019F47501640108C0C0900205D090030596
:102BD000E0900405F090050588E096E09E878D87DB
:102BE000CE010196B701A6010E943C0B8091FE0424
:102BF0009091FF04A0910005B0910105F80186872E
:102C00009787A08BB18BC08ED18EE28EF38EA7EC0E
:102C1000B5E08D918087128A319625E0AD3CB207F0
:102C2000C1F720E031E0F8013183208388E090E0B3
:102C30009383828386E0848384E08583378326833D
:102C40008AE290E0BE016F5F7F4F0E94852210E014
:102C50005AC0422FF901EE0FFF1FE20FF31FEE0FD4
:102C6000FF1FEE0FFF1FE254FB4F86819781A08567
:102C7000B18588159905AA05BB0531F02F5F3F4F37
:102C80002530310531F745E020E030E0F901EE0F65
:102C9000FF1FE20FF31FEE0FFF1FEE0FFF1FE254A7
:102CA000FB4F86819781A085B1858C159D05AE056A
:102CB000BF0531F02F5F3F4F2530310539F73AC05E
:102CC000453021F5822F90E0FC01EE0FFF1FE80F49
:102CD000F91FEE0FFF1FEE0FFF1FE254FB4F86821E
:102CE0009782A086B18612C080E090E00000019635
:102CF000F7E280319F07D1F70E9483151F5F1431DF
:102D000011F480E004C020E030E0A3CF81E0AA9677
:102D10000FB6F894DEBF0FBECDBFCF91DF911F91EC
:102D20000F91FF90EF90DF90CF90BF90AF909F906A
:102D30008F9008954530C1F2E9CFCF92DF92EF92A4
:102D4000FF920F931F93DF93CF9300D000D0CDB7A6
:102D5000DEB78C016A017B010E94BF338983C80101
:102D600001960E94BF338A83C80102960E94BF3336
:102D70008B83C80103960E94BF338C8389819A811B
:102D8000AB81BC818F3F2FEF92072FEFA2072FEF70
:102D9000B20711F06C017D01B601C7010F900F90D1
:102DA0000F900F90CF91DF911F910F91FF90EF90B7
:102DB000DF90CF9008950F931F930E9474178EE1B8
:102DC00090E04AE050E060E07BE50E949D16609351
:102DD000FE047093FF04809300059093010582E246
:102DE00090E04FEF5FEF6FEF70E00E949D166093F1
:102DF000060570930705809308059093090586E200
:102E000090E04AE050E060E071E00E949D1660931F
:102E100002057093030580930405909305051092B5
:102E2000C70582E28093C80589EF8093C90581E0D8
:102E30008093CA051092CB058093CC0500D08AEF11
:102E400090E0ADB7BEB712969C938E9311970E94F7
:102E5000B7080F900F900E94D12200D081EF90E030
:102E6000EDB7FEB7928381830E94B7080F900F9051
:102E70000DE512E08CE390E0B8010E9485228CE31E
:102E800090E0B8010E9485228DB79EB70A970FB6D1
:102E9000F8949EBF0FBE8DBFEDB7FEB7319686ED9D
:102EA00090E0ADB7BEB712969C938E931197809128
:102EB000FE04828313828091FF04848315828091B3
:102EC00000058683178280910105808711860E9404
:102ED000B708EDB7FEB73A960FB6F894FEBF0FBE2F
:102EE000EDBF1F910F9108958EB58D608EBD1DBCF5
:102EF0001CBC88E09DE39BBD8ABD89B7806189BF0A
:102F000008951F920F920FB60F9211242F933F93A3
:102F10004F935F936F937F938F939F93AF93BF93E1
:102F2000EF93FF938091910590919205A091930565
:102F3000B09194050196A11DB11D809391059093C8
:102F40009205A0939305B093940580914E029091C1
:102F50004F02A0915002B09151020196A11DB11DE6
:102F600080934E0290934F02A0935002B09351026F
:102F70000197A109B109815B9440A040B04050F095
:102F800010924E0210924F02109250021092510273
:102F90000E94DB168091FD0482608093FD04FF9106
:102FA000EF91BF91AF919F918F917F916F915F91C1
:102FB0004F913F912F910F900FBE0F901F9018953A
:102FC000E0E0F0E009940895089508952091D60571
:102FD0003091D7054091D8055091D90500D000D047
:102FE00000D0EDB7FEB731968BEF92E0ADB7BEB72C
:102FF00012969C938E931197338322835583448337
:103000000E94B7088091D6059091D7058091D6058A
:103010009091D7052DB73EB72A5F3F4F0FB6F89472
:103020003EBF0FBE2DBF089708F080C083B320912C
:10303000D6053091D70590E002C0959587952A95E1
:10304000E2F780FF10C045B32091D6053091D70537
:1030500081E090E002C0880F991F2A95E2F78095E1
:10306000842385BB0EC045B32091D6053091D7058A
:1030700081E090E002C0880F991F2A95E2F7482B63
:1030800045BB85B385BB8091D8059091D90537E2C2
:103090008031930798F46AE070E00E942C319B0124
:1030A00040E060E47CE904C0CB010197F1F74F5F99
:1030B000842F90E082179307B8F309C088EE93E05D
:1030C00020E931E0F9013197F1F70197D9F783B39E
:1030D0002091D6053091D70590E002C0959587954F
:1030E0002A95E2F780FF12C045B32091D6053091B2
:1030F000D70581E090E002C0880F991F2A95E2F77A
:103100008095842385BB85B385BB089545B3209105
:10311000D6053091D70581E090E002C0880F991F55
:103120002A95E2F7482B45BB85B385BB08952091CE
:10313000D6053091D7054091D8055091D90500D0DA
:1031400000D000D0EDB7FEB7319685E393E0ADB780
:10315000BEB712969C938E93119733832283558327
:1031600044830E94B7084091D8055091D905EDB726
:10317000FEB736960FB6F894FEBF0FBEEDBF4130D6
:10318000510561F485B32091D6053091D70502C071
:10319000440F551F2A95E2F7842B14C08091D8055F
:1031A0009091D905892B91F445B32091D6053091A2
:1031B000D70581E090E002C0880F991F2A95E2F7B9
:1031C0008095842385BB85B385BB089500D085E1B8
:1031D00093E0ADB7BEB712969C938E9311970E9461
:1031E000B7080F900F9008958091D6059091D7055C
:1031F0008091D6059091D7050897F8F423B34091B4
:10320000D6055091D70500D000D088E493E0EDB703
:10321000FEB79283818381E090E002C0880F991FFE
:103220004A95E2F730E082239323948383830E94BC
:10323000B7080F900F900F900F90089543B383B38A
:1032400000D000D000D0EDB7FEB731962FE733E0C5
:10325000ADB7BEB712963C932E93119750E04170D4
:1032600050705383428390E082709070959587955B
:10327000958384830E94B70883B343B363B300D0BC
:10328000EDB7FEB7319626E633E0ADB7BEB712967E
:103290003C932E93119790E084709070959587954C
:1032A000959587959383828350E04870507073E0C2
:1032B000559547957A95E1F75583448370E06071A1
:1032C000707044E0759567954A95E1F7778366835A
:1032D0000E94B70883B323B363B3EDB7FEB731964B
:1032E0004DE453E0ADB7BEB712965C934E93119781
:1032F00090E08072907035E0959587953A95E1F76A
:103300009383828330E02074307086E03595279572
:103310008A95E1F735832483661F6627661F6683D7
:1033200017820E94B7088DB79EB708960FB6F8941B
:103330009EBF0FBE8DBF08958091D6059091D70591
:103340008091D6059091D705049718F529B340913F
:10335000D6055091D70500D000D083E993E0ADB7F2
:10336000BEB712969C938E93119781E090E002C0B5
:10337000880F991F4A95E2F730E082239323149631
:103380009C938E9313970E94B7080F900F900F9005
:103390000F908091D6059091D705049720F18091E8
:1033A000D6059091D7050897F0F4E091D605F091F5
:1033B000D70500D000D080E993E0ADB7BEB7129634
:1033C0009C938E931197EE0FFF1FE05AFF4F808161
:1033D000918114969C938E9313970E94B7080F9037
:1033E0000F900F900F9008950F931F93CF93DF933B
:1033F000E9B329B349B369B38DB79EB70A970FB63E
:10340000F8949EBF0FBE8DBFADB7BEB7119682EACE
:1034100093E0CDB7DEB79A838983F0E0E170F07076
:103420001396FC93EE93129730E02270307035952E
:10343000279515963C932E93149750E04470507046
:10344000559547955595479517965C934E931697C6
:1034500070E06870707093E0759567959A95E1F7E4
:1034600019967C936E9318970E94B7080F900F904F
:103470000F900F90EDB7FEB7319608E913E0ADB7A6
:10348000BEB712961C930E93119784E090E093833D
:1034900082838091680090916900958384830E9463
:1034A000B708EDB7FEB73196CDB7DEB71A830983FB
:1034B00085E090E09383828380916A0090916B0015
:1034C000958384830E94B708EDB7FEB73196ADB7F8
:1034D000BEB712961C930E93119786E090E09383EB
:1034E000828380916C0090916D00958384830E940B
:1034F000B708CDB7DEB726960FB6F894DEBF0FBE7D
:10350000CDBFDF91CF911F910F910895EF92FF9260
:103510001F93CF93DF93C6E0D1E063ECE62E63E028
:10352000F62EFE012196149100D000D0EDB7FEB723
:103530003196ADB7BEB71296FC92EE9211971283F8
:1035400013820E94B7080F900F900F900F901123D5
:1035500041F7DF91CF911F91FF90EF9008958DB7C4
:103560009EB708970FB6F8949EBF0FBE8DBFEDB7FC
:10357000FEB7319686EC93E0ADB7BEB712969C933A
:103580008E9311978091CD058283138280915C0286
:10359000848315828091FC04868317820E94B70879
:1035A0008DB79EB708960FB6F8949EBF0FBE8DBF1D
:1035B0000895CF93DF93E091D605F091D7058091E0
:1035C000D8059091D905A0E6B0E0EE0FFF1FEA0FF5
:1035D000FB1F918380834091D6055091D7052091A0
:1035E000D6053091D70500D000D000D0EDB7FEB79A
:1035F00031968CED93E0CDB7DEB79A838983538300
:103600004283220F331FA20FB31F8D919C9195838C
:1036100084830E94B7088DB79EB706960FB6F894BC
:103620009EBF0FBE8DBFDF91CF910895CF93DF93E3
:10363000C091D605D091D7052091D8053091D905F4
:1036400000D000D000D0EDB7FEB731968DEC92E0FF
:10365000ADB7BEB712969C938E931197D383C28356
:10366000358324830E94B7088DB79EB706960FB6A0
:10367000F8949EBF0FBE8DBFE199FECF6091D80533
:103680007091D905CE010E94C733DF91CF91089583
:103690000F931F93CF93DF938C018091D605909168
:1036A000D705892BA1F0C0E0D0E0E199FECFFE0163
:1036B000EE0FFF1FEA52FA4F60817181CE01800F39
:1036C000911F0E94C7332196C430D10571F7DF9155
:1036D000CF911F910F910895E199FECF8091D6056A
:1036E0009091D7050E94BF334091D6055091D705E0
:1036F00000D000D000D0EDB7FEB7319624EE32E016
:10370000ADB7BEB712963C932E9311975383428365
:10371000848315820E94B7088DB79EB706960FB6B0
:10372000F8949EBF0FBE8DBF089586E290E00E9480
:10373000481B86E290E04AE050E060E071E00E94C1
:103740009D16609302057093030580930405909382
:1037500005058DB79EB70A970FB6F8949EBF0FBEAA
:103760008DBFEDB7FEB731968DEF93E0ADB7BEB725
:1037700012969C938E9311978091020582831382F7
:1037800080910305848315828091040586831782C6
:1037900080910505808711860E94B7088DB79EB776
:1037A0000A960FB6F8949EBF0FBE8DBF089582E2B1
:1037B00090E00E94481B82E290E04FEF5FEF6FEFD6
:1037C00070E00E949D166093060570930705809334
:1037D0000805909309058DB79EB70A970FB6F89420
:1037E0009EBF0FBE8DBFEDB7FEB731968AE194E064
:1037F000ADB7BEB712969C938E9311978091060534
:103800008283138280910705848315828091080545
:103810008683178280910905808711860E94B708E8
:103820008DB79EB70A960FB6F8949EBF0FBE8DBF98
:1038300008958EE190E00E94481B8EE190E04AE0FE
:1038400050E060E07BE50E949D166093FE0470935B
:10385000FF0480930005909301058DB79EB70A97EA
:103860000FB6F8949EBF0FBE8DBFEDB7FEB7319671
:1038700085E394E0ADB7BEB712969C938E931197F3
:103880008091FE04828313828091FF0484831582D9
:1038900080910005868317828091010580871186BB
:1038A0000E94B7088DB79EB70A960FB6F8949EBFD0
:1038B0000FBE8DBF0895AF92BF92CF92DF92EF926D
:1038C000FF920F931F93DF93CF9300D0CDB7DEB756
:1038D0009A838983CE01019660EA70E00E947E336C
:1038E0006C0110E00FC01F5FE12FF0E0EE0FFF1F33
:1038F000EE0FFF1FEE5EFE4F80819181892B11F448
:1039000080E048C0E12EFF24F701EE0FFF1FEE0F0D
:10391000FF1FEE5EFE4F80819181B6010E9404334D
:10392000892B09F700E010E05E010894A11CB11C8E
:10393000C50162EA70E00E947E336C0160E070E0D5
:1039400040E050E00E947531F801EE0FFF1FEA528F
:10395000FA4F7183608380819181892B49F4809132
:103960000000882329F0D6018C9190E09183808318
:103970000F5F1F4F0A301105D9F6EE0CFF1CEE0C3D
:10398000FF1C84E191E0E80EF91ED701ED91FC9156
:10399000099581E00F900F90CF91DF911F910F91CA
:1039A000FF90EF90DF90CF90BF90AF900895CF93AE
:1039B000DF93EC01DB0134C086958695FD01819390
:1039C000888183708295807F11968C93119799815D
:1039D000992321F4DF01119642E026C092959F7051
:1039E000890F11968C93119789818F70880F880F9A
:1039F00012968C9312979A81992319F4139641E0A9
:103A000013C09295969596959370890F12968C9304
:103A100012978A818F7313968C931397149623961B
:103A20008881882349F640E01C92EB0108C0E881B8
:103A3000F0E0EF73F070E25BFB4FE491E993CA179B
:103A4000DB07A9F7FD01842F9DE302C0919381500C
:103A50008823E1F7A40FB11D1C92DF91CF91089547
:103A60002F923F924F925F926F927F928F929F928E
:103A7000AF92BF92CF92DF92EF92FF920F931F937C
:103A8000DF93CF9300D000D00F92CDB7DEB74C01BB
:103A90006B015A013B832A83D901ED90FC90FC0114
:103AA0000081118186E591E0B80142E050E00E947A
:103AB000DA32892B11F080E0C0C301501040D401EC
:103AC0000D931C9380915202882309F087C3C6018D
:103AD00069ED75E00E94D332C60160E870E00E9493
:103AE0007333082F10E0C701C6968A0D9B1DB601DF
:103AF000A8010E94F232E00EF11EC6016AE875E0EC
:103B00000E94D332C60160E870E00E947333082F30
:103B100010E0C701C6968A0D9B1DB601A8010E9440
:103B2000F232809152028F5F809352020150104016
:103B30000E0D1F1DEA81FB81118300837DC390E080
:103B400001973C0143E0759467944A95E1F737E0AB
:103B5000832E912C88229922F1E06F167104D1F105
:103B600021E06216710448F032E063167104C9F175
:103B700083E06816710489F547C089B390E08F70BF
:103B80009070B6014AE050E00E949633C60160E8AA
:103B900070E00E947333082F10E0C701C6968A0DAB
:103BA0009B1DB601A8010E94F23201501040E00EA8
:103BB000F11E89B390E021E0422E512C082C02C066
:103BC000440C551C0A94E2F7482259223FE080E059
:103BD00020E72DC080E1809352024424552430E038
:103BE00024C083B390E0082C02C0959587950A9471
:103BF000E2F780FF04C001E0402E512C02C04424B3
:103C0000552430E08FEF12C080B390E0082C02C042
:103C1000959587950A94E2F780FF04C011E0412E44
:103C2000512C02C04424552430EF80E020E090E085
:103C3000082C02C0959587950A94E2F780FD02C092
:103C4000332409C080E090E0452811F481E090E041
:103C50002C01B4E53B2E832F90E0082C02C09595F3
:103C600087950A94E2F780FF07C0332019F4A9E48E
:103C70003A2E02C0F6E43F2E822F90E0082C02C0BC
:103C8000959587950A94E2F780FF06C0332009F4E2
:103C9000ECC2E6E43E2E03C0332009F499C2C6010B
:103CA00060E875E00E94D332C60160E870E00E94CF
:103CB0007333082F10E0C701C6968A0D9B1DB6010D
:103CC000A8010E94F2320E0D1F1D962D9F5B998355
:103CD000F501E00FF11F96ABC801019670E3272EA6
:103CE000280CF501E80FF91F26AA7C010894E11CB5
:103CF000F11CC60166E775E00E94D332C60160E898
:103D000070E00E947333A82FB0E0BD83AC83085CE1
:103D10001F4FC501800F911FB601AD010E94F23205
:103D2000B2E06B16710420F0C3018150904E01C0C7
:103D3000C30163E0880F991F6A95E1F7EC81FD816B
:103D4000EE0DFF1D880D991D54E0880F991F5A959F
:103D5000E1F746E4E42EF12CE80EF91EF5968F010A
:103D60000A0D1B1DF597FD83EC8336E5632E712C40
:103D7000680E791E13C0C7010E94BF33D801119687
:103D80008C93EC81FD813196FD83EC830F5F1F4F97
:103D90000894E11CF11CE614F70421F0D8018C9181
:103DA000882349F7C60160E775E00E94D332C60157
:103DB00060E870E00E947333082F10E08C819D81D1
:103DC000C6968A0D9B1DB601A8010E94F2326C8036
:103DD0007D80600E711E26E3E22EF12CE60CF71CAE
:103DE000B1E43B1609F44BC0C6016EE475E00E94D5
:103DF000D332C60160E870E00E947333082F10E0F0
:103E0000C5018E0D9F1DB601A8010E94F2327301FB
:103E1000E00EF11E4114510421F0C60166E475E084
:103E200003C0C6016EE375E00E94D332C60160E8AC
:103E300070E00E947333082F10E0C701C6968A0D08
:103E40009B1DB601A8010E94F232E00EF11EC601D0
:103E500064E375E00E94D332C60160E870E00E941E
:103E60007333082F10E0C701C6968A0D9B1DB6015B
:103E7000A8010E94F2324701800E911E4EC0C60179
:103E80006FE275E00E94D332C60160E870E00E94E4
:103E90007333082F10E0C5018E0D9F1DB601A801D8
:103EA0000E94F2327301E00EF11E880C991CEEECB8
:103EB000F5E08E0E9F1ED4018D919C91B6014AE0D3
:103EC00050E00E949633C60160E870E00E947333B0
:103ED000082F10E0C701C6968A0D9B1DB601A801E8
:103EE0000E94F232015010400E0D1F1DC60169E202
:103EF00075E00E94D332C60160E870E00E9473331F
:103F0000E82EFF24C801C6968A0D9B1DB601A701A5
:103F10000E94F23248018E0C9F1CC60164E275E0DB
:103F20000E94D332C60160E870E00E947333082F0C
:103F300010E0C401C6968A0D9B1DB601A8010E941F
:103F4000F232800E911EB6E43B1641F4F501E80D05
:103F5000F91D36AA0894811C911C70C0E3E53E1639
:103F600009F06CC0C6016CE075E00E94D332C60156
:103F700060E870E00E947333082F10E0C401C69619
:103F80008A0D9B1DB601A8010E94F2327401E00E59
:103F9000F11E41145104B1F4C60164E075E00E94C1
:103FA000D332C60160E870E00E947333082F10E03E
:103FB000C701C6968A0D9B1DB601A8010E94F23268
:103FC000E00EF11EC6016FEE74E00E94D332C6010E
:103FD00060E870E00E947333082F10E0C701C696B6
:103FE0008A0D9B1DB601A8010E94F2320E0D1F1D05
:103FF000F501E00FF11F298126ABC8010196F501FB
:10400000E80FF91F26AA4C010894811C911CC601D7
:104010006CEE74E00E94D332C60160E870E00E944A
:104020007333E82EFF24085C1F4FC501800F911FDA
:10403000B601A7010E94F2328E0C9F1CC60166EEEB
:1040400074E00E94D332C60160E870E00E947333CE
:10405000082F10E0C401C6968A0D9B1DB601A80169
:104060000E94F2327401E00EF11EC60161EE74E0AE
:104070000E94D332C60160E870E00E947333082FBB
:1040800010E0C701C6968A0D9B1DB601A8010E94CB
:10409000F2324701800E911E34E5331609F06BC0F1
:1040A000C60169EC74E00E94D332C60160E870E09A
:1040B0000E947333082F10E0C401C6968A0D9B1D21
:1040C000B601A8010E94F2327401E00EF11E4528EB
:1040D000B1F4C60161EC74E00E94D332C60160E81D
:1040E00070E00E947333082F10E0C701C6968A0D56
:1040F0009B1DB601A8010E94F232E00EF11EC6011E
:104100006CEA74E00E94D332C60160E870E00E945D
:104110007333082F10E0C701C6968A0D9B1DB601A8
:10412000A8010E94F2320E0D1F1DF501E00FF11FD4
:10413000898186ABC8010196F501E80FF91F26AA0F
:104140004C010894811C911CC60169EA74E00E942C
:10415000D332C60160E870E00E947333E82EFF247A
:10416000085C1F4FC501800F911FB601A7010E9477
:10417000F2328E0C9F1CC60163EA74E00E94D332B7
:10418000C60160E870E00E947333082F10E0C4019C
:10419000C6968A0D9B1DB601A8010E94F2327401D9
:1041A000E00EF11EC6016BE974E00E94D332C60135
:1041B00060E870E00E947333082F10E0C701C696D4
:1041C0008A0D9B1DB601A8010E94F232E00EF11E7D
:1041D000809152028F5F8093520227C0813238F45F
:1041E000B6ECEB16B1E0FB0608F4A9CC1EC01092A9
:1041F0005202C60160E974E00E94D332C60160E851
:1042000070E00E947333082F10E0C701C6968A0D34
:104210009B1DB601A8010E94F232E00EF11EF401CE
:10422000808191810396918380830894E108F1084D
:10423000AA81BB81ED92FC9281E00F900F900F90CC
:104240000F900F90CF91DF911F910F91FF90EF9002
:10425000DF90CF90BF90AF909F908F907F906F90A6
:104260005F904F903F902F90089581E4382E17CDA6
:10427000FC01C4988AE38FB9779BFECF07C01FB8B3
:10428000779BFECF8FB181936150704061157105AE
:10429000B1F7C49A0895FC01C4988AE78FB9779B57
:1042A000FECF81918FB961507040779BFECF611531
:1042B0007105B9F7C49A0895C498962F9F71982BE9
:1042C0009FB9779BFECF1FB8779BFECF67FF03C0D8
:1042D0001FB8779BFECF8FB1C49A0895C4988FB949
:1042E000779BFECF6FB9779BFECFC49A0895FF925C
:1042F0000F931F93F62E082F0F710B3198F4182F80
:10430000107680911306181769F0109313068FEB3F
:1043100063E00E946E211295169517708FE9612F48
:104320000E946E21802F80646F2D0E946E211F914C
:104330000F91FF9008950F931F93082F90E08F71B6
:1043400090704B979CF4102F1076809113061817DD
:1043500069F0109313068FEB63E00E946E211295B3
:10436000169517708FE9612F0E946E2180E0602FF3
:104370000E945C211F910F9108950F931F93982F16
:10438000162F072F84ED692F0E94772186ED612F6C
:104390000E94772187ED602F0E9477218AEE0E948C
:1043A0009B2180FDFBCF1F910F9108950F931F93C9
:1043B000682F84ED0E94772182ED61E00E947721D1
:1043C0008AEE0E949B2180FDFBCF82ED60E00E947F
:1043D000772189ED0E949B21182F00E088ED0E9433
:1043E0009B21282F30E0202B312BC9011F910F91E9
:1043F0000895EF92FF920F931F93CF93DF93EC01F9
:104400007B018CE10E949B2186FD08C089E30E940C
:104410009B21882319F400E010E06FC0609114061E
:104420007091150680E00E9477212091140630914A
:10443000150681E0632F0E9477218AE360E00E94E5
:104440005C2190E090931506809314060091140669
:10445000109115068AE360E00E945C21382F20E06D
:10446000202B312B30931506209314068AE360E04D
:104470000E945C21082F10E08AE360E00E945C212A
:10448000382F20E0022B132B8AE360E00E945C218E
:104490008AE360E00E945C21C017D10708F48E0116
:1044A000C701B8010E943821809114069091150629
:1044B0008091140690911506019780509A4138F02A
:1044C0008CE06FEF0E9477218DE069E110C0609170
:1044D00014067091150661508CE00E94772120919E
:1044E000140630911506215030408DE0632F0E9454
:1044F00077218EE960E40E946E21C801DF91CF919F
:104500001F910F91FF90EF900895CF92DF92EF925D
:10451000FF920F931F93CF93DF938C016B01C0E049
:10452000D0E080EAE82E8FE0F82E8FE10E949B21F8
:1045300083FF07C0C7010197F1F72196C233D10568
:10454000A1F782E060E00E94772183E06AE10E94A7
:10455000772186E0602F0E94772198012050364E07
:1045600087E0632F0E9477218AE760E00E946E2136
:10457000C601B8010E944B218FE960E80E946E21BC
:104580008FEB60E80E946E218FE96CE00E946E2143
:10459000DF91CF911F910F91FF90EF90DF90CF901F
:1045A0000895CF93DF938FEF80931306BC9A87B360
:1045B000896087BBC49AC79A87B3886B87BBBE984C
:1045C00080E58DB981E08EB980E090E0A0E0B0E0B8
:1045D00000000196A11DB11D80342DE0920723E05B
:1045E000A20720E0B207A1F78FEF6FEF0E946E21C4
:1045F00080E090E0A0E0B0E000000196A11DB11DB8
:104600008034EDE09E07E3E0AE07E0E0BE07A1F7EF
:10461000C0E0D0E001C021968DE10E949B2180FD89
:1046200004C0FDEFC83EDF07B1F7109215061092E7
:104630001406C9EFD5E0FE0184912196FE01649134
:104640000E9477212196F6E0C532DF07A1F780E1CD
:1046500060E071E00E94BD218BE160EC0E94772157
:104660008FE964E00E946E2184E16AE477E30E94AE
:10467000BD218FE10E949B218093120682E70E9458
:104680009B2180931206DF91CF91089590E02DE059
:1046900030E0A901849F9001859F300D949F300DDB
:1046A0001124E2E3F6E0DF01A20FB31F8C91897FB2
:1046B00081608C933897E20FF31F1382128211826C
:1046C00010828C91877F8C9386E196E0958384831A
:1046D00084EC91E09287818789EC91E094878387CD
:1046E0008AED91E09783868308950895CF93DF93B1
:1046F00040E050E0A82FB0E0C0E9D1E061E070E018
:10470000CD01042E02C0959587950A94E2F780FFAB
:104710004BC083B390E0042E02C0959587950A9410
:10472000E2F780FF0CC085B39B01042E02C0220F6C
:10473000331F0A94E2F72095282325BB0AC085B3CE
:104740009B01042E02C0220F331F0A94E2F7822B32
:1047500085BB85B385BB88EB9BE0FE013197F1F704
:104760000197D9F783B390E0042E02C09595879501
:104770000A94E2F780FF0CC085B39B01042E02C0AF
:10478000220F331F0A94E2F72095282325BB0AC085
:1047900085B39B01042E02C0220F331F0A94E2F757
:1047A000822B85BB85B385BB4F5F5F4F483051057A
:1047B00009F0A6CFDF91CF91089508952F923F92EF
:1047C0004F925F926F927F928F929F92AF92BF9221
:1047D000CF92DF92EF92FF920F931F93DF93CF93CD
:1047E000CDB7DEB7C258D0400FB6F894DEBF0FBECB
:1047F000CDBF482E682E77248DE090E0689E900112
:10480000699E300D789E300D1124F901EE5CF94F50
:10481000808180FD07C0F901E65DF94F8DE09EE0E3
:104820009383828386E190E0689EF001699EF00D9B
:10483000789EF00D1124E55FFA4F8089882379F482
:104840008DE090E0689EF001699EF00D789EF00D7D
:104850001124E65DF94F80819181938382838DE0FD
:1048600090E0689E9001699E300D789E300D112475
:10487000F901E65DF94F82819381918380831A82E9
:104880001982BCE22B2EB6E03B2E220E331EA2E094
:10489000CA2ED12CCE0EDF1E73E0872E912C8C0EEB
:1048A0009D1E60E2562E80C2D601ED91FC911197BB
:1048B0003196ED93FC933197E491235A3D4FD90102
:1048C000D696EC93E53209F06AC2C101B4014DE518
:1048D00052E09E012F5F3F4F0E94301D882309F058
:1048E0005EC2F6010081118189E591E0B80143E0E3
:1048F00050E00E94DA32892BC1F50D5F1F4FF8019D
:1049000084910F5F1F4FF801649160512AE0829FEC
:10491000C0011124680FE62FF0E0EE0FFF1FE05AF0
:10492000FF4F80819181B4014AE050E00E949633AC
:10493000C40160E870E00E947333082F10E08981A1
:104940009A818D569D4FB401A8010E94F23289814F
:104950009A810197800F911F9A838983D6018D9147
:104960009C91119705968D939C93F601008111817E
:104970008DE591E0B80146E050E00E94DA32892BE3
:1049800009F0E7C001501040D6010D931C93BCC044
:10499000E199FECFC7010E94BF33982F9F70829587
:1049A0008F708A3018F440E3B42E02C037E3B32E80
:1049B000B80E9A3018F420E3A22E02C087E3A82E86
:1049C000A90EC7018F7090708830910579F18930F8
:1049D000910530F4009759F0049709F07AC031C07E
:1049E0008C30910571F10F9709F073C035C0C70184
:1049F000B4014AE050E00E949633C40160E870E0E0
:104A00000E947333082F10E089819A818D569D4F43
:104A1000B401A8010E94F23289819A81800F911F0E
:104A2000FC01E35AFD4FBAE3B6AB05C0F801E35A07
:104A3000FD4F56AAC8010196FC01E35AFD4F56AA44
:104A400005C0F801E35AFD4F56AAC8010196FC01C2
:104A5000E35AFD4FB6AA42C0F801E35AFD4FB6AA89
:104A6000C8010196FC01E35AFD4FA6AA01969A835C
:104A70008983C40160E47EE00E94D332C40160E80F
:104A800070E00E947333082F10E089819A818D565F
:104A90009D4FB401A8010E94F23229813A81200F72
:104AA000311FF901E35AFD4F8DE086AB2F5F3F4F79
:104AB000F901E35AFD4FAAE0A6AB8091DF01909186
:104AC000E00101969093E0018093DF013A8329830E
:104AD0001BC0F801E35AFD4FB6AAC8010196FC01BC
:104AE000E35AFD4FA6AA0196FC01E35AFD4F56AAD0
:104AF00001969A8389838091DF019091E00101966C
:104B00009093E0018093DF01E090DF01F090E001FD
:104B1000B0E0EB16B4E0FB0660F409811A81E2E034
:104B200008311E0708F434CFFFEFEF16F3E0FF065D
:104B300058F0D6018D919C91119707968D939C9377
:104B40001092E0011092DF0189819A8101979A8386
:104B50008983F6016081718184E691E043E050E051
:104B60000E94DA32892B09F049C08091CD0590E08E
:104B7000B4014AE050E00E9496338BE696E0B4011F
:104B80000E946C338BE696E068E671E00E94613328
:104B900080915C028A3030F48BE696E06AE671E040
:104BA0000E94613380915C0290E0B4014AE050E0E1
:104BB0000E9496338BE696E0B4010E9461338BE647
:104BC00096E06AE070E00E947333082F10E089815C
:104BD0009A818D569D4F6BE676E0A8010E94F232D5
:104BE00089819A810197800F911F9A838983D601C9
:104BF0008D919C91119703968D939C93F601008162
:104C000011818CE691E0B80144E050E00E94DA3274
:104C1000892B09F051C00B5F1F4FF80134913053BD
:104C200001501040F8016491633481F0643428F439
:104C3000613441F06234F1F407C0643449F06835FE
:104C4000C9F410C02BB305C028B303C025B301C0FD
:104C500022B381E090E002C0880F991F3A95E2F7F5
:104C6000282302C020917200222321F0C40168E3AE
:104C70007EE003C0C40166E37EE00E94D332C4013B
:104C800060E870E00E947333082F10E089819A81F8
:104C90008D569D4FB401A8010E94F23289819A81FC
:104CA0000197800F911F9A838983D6018D919C91E2
:104CB000119706968D939C93F6010081118181E7EF
:104CC00091E0B80143E050E00E94DA32892B09F00C
:104CD0004BC00C5F1F4FF80134913053015010400E
:104CE000F8016491623461F0633418F46134D1F4F2
:104CF00005C0633439F06434A9F406C029B305C093
:104D000026B303C023B301C020B381E090E002C00A
:104D1000880F991F3A95E2F7282321F0C4016CE22D
:104D20007EE003C0C40162E27EE00E94D332C4018F
:104D300060E870E00E947333082F10E089819A8147
:104D40008D569D4FB401A8010E94F23289819A814B
:104D50000197800F911F9A838983D6018D919C9131
:104D6000119705968D939C93F6016081718185E77B
:104D700091E043E050E00E94DA32892B81F486E131
:104D800090E0689EF001699EF00D789EF00D112470
:104D9000E55FFA4F8DEF9FEF928B818B0CC089817D
:104DA0009A8101969A83898329813A81F1E02C388E
:104DB0003F0708F479CD86E190E0689EF001699E96
:104DC000F00D789EF00D1124E55FFA4F88E1808B9D
:104DD00089819A81642D0E941E0ECE57DF4F0FB637
:104DE000F894DEBF0FBECDBFCF91DF911F910F9121
:104DF000FF90EF90DF90CF90BF90AF909F908F90FB
:104E00007F906F905F904F903F902F9008952F92DA
:104E10003F924F925F926F927F928F929F92AF924A
:104E2000BF92CF92DF92EF92FF920F931F93DF9387
:104E3000CF93CDB7DEB72B970FB6F894DEBF0FBE7A
:104E4000CDBF898380918B02682E772420EF622268
:104E500077247594679475946794C30181589D4F26
:104E600065E47EE00E943C33892B89F08981282FFC
:104E700030E08DE090E0289FF001299FF00D389FF1
:104E8000F00D1124EE5CF94F808188608083998158
:104E9000892E99248DE090E0889EA001899E500D76
:104EA000989E500D1124DA01A65DB94FBD016A5FCD
:104EB0007F4F1696ED91FC9117978081882309F416
:104EC0005BC012E2E12EF12CE60CF71C80916E0221
:104ED000282F30E02E5D3F4F90916D0280E0280F2B
:104EE000391F261937098701035A1D4F4E5C594F48
:104EF0001496F6E1AF2EF6E0BF2EEAEDCE2EE1E0FD
:104F0000DE2E37C0FA01808180FD18C0F801808153
:104F1000ED91FC91119791911196FC93EE93891765
:104F200019F01196BC92AE92ED91FC91119780818F
:104F3000882321F4FA01808181608083F8018081D7
:104F4000FB0140805180F20191912F01FB015182C0
:104F50004082891711F0D182C0820F5F1F4FFB0181
:104F600080819181FC018081882331F00894E11CCB
:104F7000F11CE216F30630F28DE090E0889E90017D
:104F8000899E300D989E300D1124F901EE5CF94F89
:104F9000E081E0FFA4C1E3FFA2C142E2A42EB12C54
:104FA000A60CB71C93E2292E312C260C371C8DE55C
:104FB000E82E82E0F82EEA0CFB1C0DE5402E02E004
:104FC000502E420C531C3F832E83C901865D994F9E
:104FD00019E0612E712C680E791E9C01255F3F4FF0
:104FE000398728875FC1D7016C91D301ED91FC917E
:104FF000119781911196FC93EE93681721F0E4ECE0
:10500000F1E0ED93FC93D301ED91FC918081882335
:1050100029F5F7019281238181818435D1F493347C
:10502000C1F420538FEF90E0022E02C09595879532
:105030000A94E2F780FF0DC081E090E002C0880F83
:10504000991F2A95E2F79C0180915702822B809349
:105050005702E4ECF1E0D301ED93FC938091D3018E
:10506000E82FF0E0E253FE4F90818F5F8093D301F1
:10507000691711F01092D301E091D301F0E0E253EF
:10508000FE4F80818823A9F5B501F501E35AFD4F54
:1050900002C06F5F7F4F641775071CF481918632E1
:1050A000C1F7D70111968C911197803351F4129664
:1050B0008C91883731F4635A7D4FC20140E150E052
:1050C00005C0635A7D4FC2014AE050E00E9475312D
:1050D00070935A02609359028091590290915A023A
:1050E0008150944020F010925A021092590210926E
:1050F000D301F70120818091D901E82FF0E0EC5233
:10510000FE4F90818F5F8093D901291711F0109283
:10511000D901E091D901F0E0EC52FE4F8081882363
:1051200009F06EC0BB86AA8680916E02282F30E0FF
:105130002E5D3F4FF0916D02FB831A828A819B8125
:10514000280F391F80918B0290E0807F9070959599
:10515000879595958795281B390BF501E35AFD4FE7
:1051600005C0AA85BB851196BB87AA878A859B85C2
:10517000821793071CF48191863299F7D701119613
:105180008C9111978033C1F412968C918837A1F4D9
:105190000091590210915A02EA85FB85E35AFD4FAE
:1051A000FB87EA87C201BF0140E150E00E947531F0
:1051B000C8010E94C73322C08101ADE5CA2EA2E01A
:1051C000DA2EC20CD31C0DC0019690935A02809324
:1051D00059020197D6016D916D010E94C7330F5F8F
:1051E0001F4FEA85FB850E171F0744F48091590273
:1051F00090915A02F4E080309F0730F31092D90169
:10520000D7018C91A885B985ED91FC911197919169
:105210001196FC93EE93891721F0E9ECF1E0ED9300
:10522000FC930894211C311C0894E11CF11C089487
:10523000411C511CA885B985ED91FC918081882382
:1052400071F5EE81FF81EE5CF94F8081877F80836D
:1052500080E094E090935A02809359021BBA109216
:1052600053028091540285BB1092540212BA1092DC
:1052700055028091560290E00E94752310925602CA
:105280008091570290E00E947623109257028091FD
:10529000580290E00E94DD231092580220C008942A
:1052A000A11CB11C80916E02482F50E04E5D5F4FF3
:1052B000B0916D02BD831C82EC81FD814E0F5F1F9A
:1052C00080918B0290E0807F907095958795959561
:1052D0008795481B590BA416B50608F484CE8DE0BB
:1052E00090E0889EF001899EF00D989EF00D1124AB
:1052F000E65DF94F82819381892B09F0A8C08091E6
:105300008B0290E0807F9070959587959595879515
:10531000FC01B79620916E02422F50E04E5D5F4F28
:1053200030916D0220E0420F531F481B590BDF01E3
:10533000A35ABD4F18C08D918D30A1F4E35AFD4F93
:10534000108280918B02A82EBB24F0EFAF22BB24E9
:10535000B594A794B594A7942FE732E0A20EB31E9C
:1053600010E066C03196E417F50728F3EACFC501CF
:10537000B7010E941733892B09F459C08DE090E0E2
:10538000889E5001899EB00C989EB00C112482E337
:1053900096E0A80EB91ED5011C9112601C93C7019E
:1053A00069E771E00E941733C7016EE771E00E9460
:1053B0001733892B71F08DE090E0889EF001899E73
:1053C000F00D989EF00D1124EE5CF94F8081826003
:1053D0008083C70163E871E00E941733892B71F065
:1053E0008DE090E0889EF001899EF00D989EF00D72
:1053F0001124EE5CF94F80818D7F80838DE090E0F9
:10540000889EF001899EF00D989EF00D1124E65DB6
:10541000F94FCC0CDD1CCC0CDD1C26EB31E0C20EB0
:10542000D31ED6018D919C919383828310C01F5F00
:10543000C12EDD24F601EE0FFF1FEE0FFF1FEC540F
:10544000FE4FE080F180E114F10409F090CF8DE08F
:1054500090E0889E9001899E300D989E300D112419
:10546000D901A65DB94F1696ED91FC9117978081F1
:10547000882331F4F901EE5CF94FE081E3FF1BC0B2
:1054800086E190E0889E8001899E100D989E100D07
:105490001124055F1A4F80E1F801808B80E090E0D5
:1054A00069810E941E0E81E090E0D80152969C9383
:1054B0008E935197C0C0E0FD35C086E190E0889E94
:1054C0008001899E100D989E100D1124055F1A4FC2
:1054D000F801808983FF26C08DE09EE013969C939F
:1054E0008E93129780918B0290E0807F90709595BB
:1054F00087959595879581589D4F60E97DE04CE7AC
:1055000050E00E94CA3288E1D80150968C938CE713
:1055100090E069810E941E0E82E090E0F801928B7B
:10552000818B89C08DE090E0889EF001899EF00D0E
:10553000989EF00D1124E65DF94F82819381892BAD
:1055400039F580919A0090919B00019690939B0071
:1055500080939A008051974221F410929B00109200
:105560009A008DE090E0889EF001899EF00D989E53
:10557000F00D1124DF01A65DB94F85E296E0139688
:105580009C938E931297EE5CF94F80818D7F808380
:1055900086E190E0889E8001899E100D989E100DF6
:1055A0001124055F1A4F82E090E0D80152969C9337
:1055B0008E9351978DE090E0889EF001899EF00DCA
:1055C000989EF00D1124EE5CF94FE081E695E170B4
:1055D000E130A9F480918B0290E0807F90709595E6
:1055E00087959595879581589D4F6DE37DE042E5C0
:1055F00050E00E94CA3288E1F801808B17C0EE2388
:10560000D1F480918B0290E0807F90709595879582
:105610009595879581589D4F6AEE7CE042E550E074
:105620000E94CA3288E1D80150968C9382E590E0BE
:1056300069810E941E0E2B960FB6F894DEBF0FBE36
:10564000CDBFCF91DF911F910F91FF90EF90DF9031
:10565000CF90BF90AF909F908F907F906F905F9012
:105660004F903F902F9008951F93CF93DF93182F63
:10567000C82FD0E086E190E0C89FF001C99FF00DEF
:10568000D89FF00D1124E55FFA4F808980FD3EC060
:1056900081899289019719F4812F0E94462386E11E
:1056A00090E0C89FF001C99FF00DD89FF00D112424
:1056B000E55FFA4F81899289039720F4812F0E9438
:1056C000072724C081899289039748F081899289AC
:1056D0008E5F9F4F20F4812F0E94DE2317C086E14A
:1056E00090E0C89FF001C99FF00DD89FF00D1124E4
:1056F000E55FFA4F818992898E5F9F4F38F08EEF78
:105700009FEF928B818B812F0E94B40FDF91CF91FD
:105710001F91089588E891E066E176E00E94D71C29
:1057200080E590E064E37BE20E94CB090895FF925C
:105730000F931F93CF93DF93C0919C00D0919D0056
:105740008091FA049091FB04C817D90709F469C045
:1057500060E070E026E130E0F62E629FF001639F8A
:10576000F00D729FF00D1124E55FFA4F868197814D
:105770008050974109F046C080918F0580FD51C04F
:1057800080918F05816080938F0580919E0090911C
:105790009F009093FB048093FA0440E050E015C012
:1057A000FA01E35AFD4FD9018D9186ABB093FB040A
:1057B000A093FA04A65CB54031F4205330403093F6
:1057C000FB042093FA044F5F5F4F2091FA0430915D
:1057D000FB04C217D30721F786E190E0689F8001A0
:1057E000699F100D789F100D1124055F1A4F88E1F5
:1057F000F801808BCA016F2D0E941E0E83E0F80114
:10580000838B0FC06F5F7F4F6530710509F0A4CFA8
:1058100080910A0582FF05C080910A058B7F8093E5
:105820000A05DF91CF911F910F91FF9008951F936B
:10583000182F682F70E086E190E0689FF001699F63
:10584000F00D789FF00D1124E55FFA4F808980FFFD
:1058500006C080910A058B7F80930A05A1C08189CB
:105860009289892B21F0818992890197E1F486E15F
:1058700090E0689FF001699FF00D789FF00D112472
:10588000E55FFA4F81E090E0928B818B80910A0571
:10589000846080930A0580918F058E7F80938F05A9
:1058A0008FEF838B7DC0818992890297F0F1808987
:1058B00083FF3BC082E090E0928B818B20918B0232
:1058C00030E0207F30703595279535952795F90183
:1058D000B29680916E02482F50E04E5D5F4F9091DE
:1058E0006D0280E0480F591F421B530BDF01A35A82
:1058F000BD4F05C05D9BFECF8D918CB93196E417ED
:10590000F507C4F386E190E0689FF001699FF00D10
:10591000789FF00D1124E55FFA4F80E1808B80E0E5
:1059200090E0612F0E941E0E3BC086E190E0689FD0
:10593000F001699FF00D789FF00D1124E55FFA4F9B
:10594000818992890297B8F0808984FF14C0809180
:105950008F0580FF10C08FEF838B8091FA049091A8
:10596000FB0490939F0080939E0080918F058E7F13
:1059700080938F0515C086E190E0689FF001699FD4
:10598000F00D789FF00D1124E55FFA4F8089882390
:1059900039F480918F058E7F80938F050E94972B1D
:1059A0001F91089587E190E067E17CE20E94CB09B6
:1059B00008951092CF051092CE051092D105109245
:1059C000D0051092D3051092D2051092D5051092F1
:1059D000D4058091E101805C87B98FEE86B9089586
:1059E0001F920F920FB60F9211242F933F938F9314
:1059F000EF93FF9316B88091E20124B135B1E82FFF
:105A0000F0E0EE0FFF1FE253FA4F318320838F5FE8
:105A10008093E2018091E201883020F08091E101E1
:105A20008093E2018091E201805C87B9FF91EF9160
:105A30008F913F912F910F900FBE0F901F9018954F
:105A4000DC0120E040E050E098E115C0FD01E40FEA
:105A5000F51FE08138E08E2F8227F82FF17080FD4E
:105A600029272695F13009F42068315011F0E69588
:105A7000F2CF4F5F5F4F4617570741F7822F0895C8
:105A8000DC01CB0181159105A105B10529F08150FB
:105A90009040A040B040D9F70895FF920F931F9314
:105AA000CF93DF93F82EFB01DA01E9018081482FC3
:105AB00050E0918180E0482B592B80E1F81671F479
:105AC000CA018E7F33E0880F991F3A95E1F726814E
:105AD0004CE050E0421B5109480F591F57FF06C0C8
