:100000000C9420070C943D070C943D070C94190A9E
:100010000C943D070C943D070C943D070C94741709
:100020000C943D070C943D070C943D070C943D0740
:100030000C943D070C941B080C943D070C943D0751
:100040000C943D070C943D070C943D070C943D0720
:100050000C943D074552524F520D0A0D0A000D0AED
:1000600000436F6D70696C69657274206D697420EE
:100070004743432056657273696F6E20342E332ECA
:10008000350D0A00436F6D70696C6965727420618B
:100090006D20536570203238203230313220756D3A
:1000A0002031333A35373A33340D0A000A0D53798B
:1000B0007374656D2052656164790A0D003A2050B1
:1000C0004F4E47210D0A002E2569002E2569002E6E
:1000D0002569002569004D792049503A202531696C
:1000E0002E2531692E2531692E2531690D0A0D0A1B
:1000F000005245414459210D0A000A0D4E49432042
:10010000696E69743A0048454C5020202020202D0B
:10011000207072696E742048656C70746578740D17
:100120000A3F20202020202020202D207072696E80
:10013000742048656C70746578740D0A5245534597
:1001400054202020202D207265736574207468650A
:1001500020415652202D20436F6E74726F6C6C6577
:10016000720D0A5443502020202020202D206C693D
:1001700073742074686520746370207461626C65A8
:100180000D0A4950202020202020202D206C69734A
:10019000742F6368616E67652069700D0A4E45545F
:1001A0002020202020202D206C6973742F6368612B
:1001B0006E6765206E65746D61736B0D0A524F55E5
:1001C0005445522020202D206C6973742F63686180
:1001D0006E676520726F757465722069700D0A54C0
:1001E000494D4520202020202D206765742074690A
:1001F0006D650D0A504F525441202020202D206C57
:1002000069737420504F5254410D0A504F5254415B
:10021000474554202D2067657420504F525441208B
:10022000302D370D0A504F525443202020202D20CE
:100230006C69737420504F5254430D0A504F5254FE
:1002400043474554202D2067657420504F52544336
:1002500020302D370D0A504F525443534554202D12
:100260002073657420504F52544320302D37203076
:100270002F310D0A504F525443544F47202D2074B4
:100280006F67676C6520504F52544320302D3720E4
:1002900078787878286D73290D0A4D414320202005
:1002A000202D206C697374204D41432D616464726C
:1002B0006573730D0A535620202020202D2073656E
:1002C00074207661726961626C650D0A0045455063
:1002D000524F4D2057726974653A282569293A258D
:1002E000690D0A00454550524F4D2057726974659B
:1002F0003A282569293A25630D0A00746F67676CEF
:1003000065506F727444202531692D3E2531692076
:100310006D730D0A004552524F5220504152414DCB
:100320004554455220205B50696E2E53746174759C
:10033000735D0D0A00736574706F7274432025310C
:10034000692E2531690D0A0025690D0A0043353AE9
:100350002025690D0A43363A2025690D0A43373AAC
:100360002025690D0A0043323A2025690D0A4333DE
:100370003A2025690D0A43343A2025690D0A0043C5
:10038000303A2025690D0A43313A2025690D0A00CB
:1003900025690025690D0A004125693A2025690D66
:1003A0000A0041303A2025690D0A41313A20256979
:1003B0000D0A41323A2025690D0A41333A20256958
:1003C0000D0A002563000A0D54494D453A20253297
:1003D000693A2532693A2532690D0A00496E686129
:1003E0006C7420646572205661726961626C655B31
:1003F0002532695D203D202532690D0A00526F7556
:100400007465722049503A202531692E2531692EB4
:100410002531692E2531690D0A004E45544D415351
:100420004B3A202531692E2531692E2531692E253B
:1004300031690D0A004D792049503A202531692E45
:100440002531692E2531692E2531690D0A00414279
:10045000434445464748494A4B4C4D4E4F505152F4
:10046000535455565758595A6162636465666768B4
:10047000696A6B6C6D6E6F70717273747576777874
:10048000797A303132333435363738392B2F3D00D5
:100490000400051A06FF071F080009000AFF0B19D0
:1004A000C100C00DC232CAEECB05C412C612C70CC1
:1004B000E400E522E2F9E301E000E1013C68746D4B
:1004C0006C3E3C686561643E3C6D65746120687497
:1004D00074702D65717569763D22726566726573FB
:1004E000682220636F6E74656E743D223330222063
:1004F000746578742F68746D6C3B206368617273E7
:1005000065743D69736F2D383835392D31223E0DB4
:100510000A3C7469746C653E415652204E45542025
:10052000494F3C2F7469746C653E0D0A3C737479B5
:100530006C6520747970653D22746578742F6373DF
:1005400073223E0D0A2E66657474207B666F6E748E
:100550002D7765696768743A20626F6C643B206D23
:10056000617267696E2D746F703A313570783B7DBA
:100570000D0A7464207B2063656C6C70616464692F
:100580006E673A203270783B207D0D0A626F647985
:10059000207B20666F6E742D66616D696C793A20E0
:1005A000617269616C3B2020666F6E742D73697A8D
:1005B000653A20312E3020656D3B20636F6C6F7281
:1005C0003A20233030303030303B206261636B673B
:1005D000726F756E642D636F6C6F723A2072676212
:1005E000283235352C203235352C20323034297DD7
:1005F0000D0A6831207B746578742D616C69676EB3
:100600003A2063656E7465723B20666F6E742D7759
:1006100065696768743A20626F6C643B20636F6C35
:100620006F723A2077686974653B20666F6E742D2F
:1006300073697A653A20312E3220656D7D0D0A3C52
:100640002F7374796C653E0D0A3C2F686561643EBA
:100650003C626F64793E3C63656E7465723E0D0A60
:100660003C7461626C65207374796C653D227769B6
:100670006474683A2036303070783B207465787442
:100680002D616C69676E3A206C6566743B2062610F
:10069000636B67726F756E642D636F6C6F723A2057
:1006A000726762283135332C203135332C203235B6
:1006B00035293B222063656C6C70616464696E67E8
:1006C0003D2235223E0D0A3C74723E3C74643E3C31
:1006D0002F74643E3C2F74723E0D0A3C74723E3C93
:1006E00074643E3C68313E4156522D4E45542D496E
:1006F0004F3C2F68313E0D0A3C7461626C6520737B
:1007000074796C653D2277696474683A20313030C1
:10071000253B20666F6E742D7765696768743A2093
:10072000626F6C643B223E0D0A3C74723E3C746402
:100730003E5365727665727A6569743A202554492C
:10074000403C2F74643E3C7464207374796C653D46
:1007500022746578742D616C69676E3A20726967DE
:1007600068743B223E50616765636F756E74657295
:100770003A202556414032393C2F74643E3C2F7458
:10078000723E3C2F7461626C653E0D0A3C2F7464AE
:100790003E3C2F74723E3C2F7461626C653E0D0AC4
:1007A0003C62723E3C666F726D206E616D653D22EB
:1007B000666F726D3122206D6574686F643D2270C2
:1007C0006F73742220616374696F6E3D2220223E34
:1007D0000D0A3C7461626C65207374796C653D220E
:1007E00077696474683A2036303070783B207465DD
:1007F00078742D616C69676E3A2063656E746572FA
:100800003B20616C69676E3D63656E7465723B2069
:100810006261636B67726F756E642D636F6C6F726C
:100820003A20726762283235352C203235352C203B
:10083000313533293B2220626F726465723D22306C
:10084000223E0D0A3C74723E3C74643E3C2F74643C
:100850003E3C2F74723E0D0A3C74723E3C74643E02
:100860003C2F74643E3C2F74723E0D0A3C74723E01
:100870003C74643E3C7020616C69676E3D22636528
:100880006E746572223E494E5055542F4F55545048
:1008900055543C2F703E3C68723E3C2F74643E3C85
:1008A0002F74723E0D0A3C74723E3C74643E2549BE
:1008B0004F3C2F74643E3C2F74723E0D0A3C7472A0
:1008C0003E3C74643E3C68723E3C7020616C6967DB
:1008D0006E3D2263656E746572223E3C696E707572
:1008E0007420747970653D227375626D697422207D
:1008F0006E616D653D22535542222076616C7565AF
:100900003D2253656E64656E223E3C2F703E3C2F47
:10091000666F726D3E3C2F74643E3C2F74723E0DC8
:100920000A3C2F7461626C653E0D0A3C2F74643E74
:100930003C2F74723E3C2F7461626C653E0D0A3C24
:1009400062723E3C68723E0D0A3C6469763E504FCE
:10095000525442202D3E20454E4332384A36303CD8
:100960002F6469763E0D0A3C6469763E4163687483
:10097000756E673A204B65696E204C434420616E6A
:1009800020504F52544320616E7363686C6965EF69
:10099000BFBD656E21204265736368EFBFBD6469AA
:1009A00067756E67206DEFBFBD676C6963682E3C2D
:1009B0002F6469763E0D0A3C62723E0D0A3C646902
:1009C000763E57656273657276657220766F6E202B
:1009D000556C726963682052616469672056312ED4
:1009E000302E39393C2F6469763E0D0A3C646976B5
:1009F0003E436F6D70696C6965727420616D205340
:100A00006570203238203230313220756D2031331C
:100A10003A35373A3337206D6974204743432056BF
:100A2000657273696F6E20342E332E353C2F6469E6
:100A3000763E0D0A3C6469763E56657273696F6E48
:100A400020312E3520526F42756520766F6D203132
:100A5000382E30322E323030392066EFBFBD722052
:100A60004156522D4E45542D494F3C2F6469763ED8
:100A70000D0A3C2F7370616E3E3C2F626F64793EAD
:100A80003C2F68746D6C3E0D0A25454E440025567A
:100A9000414030340D0A2556414030350D0A255667
:100AA000414030360D0A25454E44003C666F726D5C
:100AB000206E616D653D22666F726D3222206D651C
:100AC00074686F643D22706F73742220616374696F
:100AD0006F6E3D2220223E414444523A3C696E7082
:100AE0007574206E616D653D22414444223E3C6236
:100AF000723E3C696E70757420747970653D226831
:100B0000696464656E226E616D653D22676E616128
:100B1000223E56414C55453A3C696E707574206EC4
:100B2000616D653D2256414C223E3C696E70757484
:100B300020747970653D227375626D697422206E30
:100B4000616D653D22535542222076616C75653D8D
:100B50002253656E64656E223E3C2F666F726D3E59
:100B60000D0A25454550524F4D3C62723E0D0A4ECE
:100B7000414D453A37303A3435340D0A25454E4417
:100B800000485454502F312E302032303020446FE2
:100B900063756D656E7420666F6C6C6F77730D0A8C
:100BA0005365727665723A204156525F5745425FEF
:100BB0005377697463680D0A436F6E74656E742DA4
:100BC000547970653A20746578742F68746D6C0D73
:100BD0000A0D0A00485454502F312E302032303044
:100BE00020446F63756D656E7420666F6C6C6F77F3
:100BF000730D0A5365727665723A204156525F57FB
:100C000045425F5377697463680D0A436F6E74657C
:100C10006E742D547970653A20696D6167652F6A2D
:100C200070670D0A0D0A00485454502F312E3020A1
:100C300034303120556E617574686F72697A6564FD
:100C40000D0A5365727665723A204156525F5745D8
:100C5000425F5377697463680D0A5757572D417582
:100C60007468656E7469636174653A204261736982
:100C700063207265616C6D3D224E656564506173E1
:100C800073776F7264220D0A436F6E74656E742DF4
:100C9000547970653A20746578742F68746D6C0DA2
:100CA0000A0D0A0034303120556E617574686F7218
:100CB000697A656425454E4400302C203135332C4B
:100CC0002030003135332C20302C203000000063E0
:100CD0006865636B6564003C62723E00504F53541C
:100CE000003C2F7461626C653E0D0A003C2F7472EB
:100CF0003E0D0A003C2F74643E00223E00206E61CF
:100D00006D653D224F5554222076616C75653D22FC
:100D10005400636865636B6564003C696E7075744C
:100D200020747970653D22636865636B626F782219
:100D300020003C74643E003C2F74643E00223E0060
:100D4000206E616D653D224F5554222076616C7591
:100D5000653D225300636865636B6564003C696EA2
:100D600070757420747970653D22636865636B6289
:100D70006F782220003C74643E00293B223E3C2FC9
:100D800074643E00302C3135332C30003135332C37
:100D9000302C30003C7464207374796C653D2262A1
:100DA00061636B67726F756E642D636F6C6F723AFF
:100DB0002072676228003C2F74643E003C2F7464EC
:100DC0003E3C74643E003C74723E3C74643E500091
:100DD0003C74723E3C74643E503C2F74643E3C74E0
:100DE000643E4E616D653C2F74643E3C74643E56B7
:100DF000616C75653C2F74643E3C74643E53776946
:100E00007463683C2F74643E3C74643E546F67673F
:100E10006C653C2F74643E3C2F74723E0D0A003C9E
:100E20007461626C65207374796C653D22776964C6
:100E300074683A2033303070783B223E0D0A00004F
:100E400011241FBECFE5D8E0DEBFCDBF11E0A0E684
:100E5000B0E0ECE6FEE502C005900D92A23EB107BF
:100E6000D9F716E0A2EEB1E001C01D92A532B1079C
:100E7000E1F70E943F070C94342F0C9400000F936D
:100E80001F93CF93DF931ABA8FEF84BB11BA60E838
:100E900075E280E090E00E94EC0700D08CEA90E0E0
:100EA000EDB7FEB7928381830E94AA0884E890E0A0
:100EB000EDB7FEB7928381830E94AA0881E690E095
:100EC000EDB7FEB7928381830E94AA0880E090E08C
:100ED000A0E0B0E00F900F9000000196A11DB11DA1
:100EE0008034F2E49F07FFE0AF07F0E0BF07A1F70F
:100EF0000E94CE160E94B7280E945E1E8BB78062A9
:100F00008BBF78940EE510E0C4E5D0E00E94761522
:100F10008091C10480FF1DC000D0EDB7FEB71283E1
:100F200001830E94AA080F900F908BE495E00E9425
:100F30004E1C882349F400D0EDB7FEB7D283C1839D
:100F40000E94AA080F900F908091C1048E7F809319
:100F5000C1046091470570914805809149059091C1
:100F60004A0520E13EE040E050E00E94782CCA01B2
:100F7000B90128E130E040E050E00E94782C609315
:100F800083056091470570914805809149059091CE
:100F90004A052CE330E040E050E00E94782CCA0182
:100FA000B9012CE330E040E050E00E94782C6093DF
:100FB0001B02609147057091480580914905909109
:100FC0004A052CE330E040E050E00E94782C60932A
:100FD000B3040E94231D9ACF9B01AC0188E98AB912
:100FE00084E0220F331F441F551F8A95D1F760E01C
:100FF00074E284EF90E00E94782C215029B980910E
:10100000C1048B7F8093C1040895982F8091C104FF
:1010100082FD03C05D9BFECF9CB90895CF93DF9303
:10102000EC0103C021960E94050888818823D1F72E
:10103000DF91CF9108951F920F920FB60F92112456
:101040001F932F933F934F935F936F937F938F9350
:101050009F93AF93BF93EF93FF938091C10482FD61
:101060004BC01CB1812F0E9405088091C10480FFF4
:1010700004C08091C104826028C0183069F4809156
:10108000E2019091E301892B09F452C08091E201C1
:101090009091E30101972BC01D30D1F4E091E20162
:1010A000F091E301E65BFA4F80818C3589F0E091A5
:1010B000E201F091E301E55BFA4F10821092E30147
:1010C0001092E2018091C10481608093C10430C01C
:1010D0008091E2019091E301C19750F58091E20186
:1010E0009091E301FC01E55BFA4F10830196909328
:1010F000E3018093E2011CC020919C0030919D008F
:1011000080919E0090919F0001972817390781F0E8
:101110008CB1F9018193F0939D00E0939C00EC5712
:10112000F54031F42053304030939D0020939C00D3
:10113000FF91EF91BF91AF919F918F917F916F91AF
:101140005F914F913F912F911F910F900FBE0F9084
:101150001F9018956F927F928F929F92AF92BF923D
:10116000CF92DF92EF92FF920F931F93DF93CF9373
:10117000CDB7DEB764970FB6F894DEBF0FBECDBF14
:101180008E010B5D1F4FF801E190F1908F01BB24A0
:101190003E010894611C711C5BE0852E912C8C0E25
:1011A0009D1E40E3A42E02C068018601F7018491D0
:1011B000882309F489C00894E11CF11C853209F0E8
:1011C00080C0F7010894E11CF11C2491822F90E06B
:1011D000C0970A9710F0822F0BC02B871C86C40182
:1011E0000E94C92DB82EF7010894E11CF11C8491CE
:1011F000893671F08A3628F4823661F08336A1F69A
:101200001DC0833749F0883729F18F3669F620C031
:101210004AE021C042E01FC032E0C32ED12CC00EF4
:10122000D11EF8010081118104C00F5F1F4F0E9481
:101230000508F80180818823C1F7B7CF22E0C22ECC
:10124000D12CC00ED11EF80180810E940508ADCFBF
:1012500048E001C040E192E0C92ED12CC00ED11E61
:10126000F80180819181B30150E00E94BB2E20E003
:1012700030E0A9014F5F5F4FF301E20FF31F808160
:10128000882311F09A01F5CF8B2D90E028173907AC
:101290009CF4B21AF401C4018B0D911D01C0A192FE
:1012A000E817F907E1F71082C401B3010E94862E06
:1012B000C301B4010E94912EC3010E940E08BB24F9
:1012C00074CF0E94050870CF64960FB6F894DEBF05
:1012D0000FBECDBFCF91DF911F910F91FF90EF9087
:1012E000DF90CF90BF90AF909F908F907F906F9046
:1012F000089540E050E09A01220F331F240F351F5C
:10130000D901AA0FBB1FAA0FBB1FAB58BB4F1A9620
:101310008D919C911B97892B09F51C9211961C921B
:101320001197F901EE0FFF1FEE0FFF1FE958FB4F5A
:10133000108213961C921397F901EE0FFF1FEE0F08
:10134000FF1FE758FB4F108215961C9215971696B3
:101350001D921D921D921C92199709C01A968D918B
:101360009C911B9701971B969C938E931A974F5FA6
:101370005F4F4530510509F0BECF0895AC0120E024
:1013800001C02F5FA22FB0E0FD01EE0FFF1FEE0F97
:10139000FF1FEC51FE4F80819181892B91F7253001
:1013A00050F451834083AA0FBB1FAA0FBB1FAA5141
:1013B000BE4F6D937C93089520E001C02F5FA22F54
:1013C000B0E0FD01EE0FFF1FEE0FFF1FEC51FE4FCF
:1013D0000190F081E02D309719F0E817F90771F7C7
:1013E000253040F4AA0FBB1FAA0FBB1FAC51BE4F44
:1013F0006D937C930895AC0120E001C02F5FA22F74
:10140000B0E0FD01EE0FFF1FEE0FFF1FE850FE4F93
:1014100080819181892B91F7253050F4518340834D
:10142000AA0FBB1FAA0FBB1FA650BE4F6D937C9384
:1014300008951F920F920FB60F9211248F938091EF
:10144000B40481608093B40410920E0210920F02D3
:1014500010921002109211028BB78F7D8BBF8F916B
:101460000F900FBE0F901F9018950F931F93CF935F
:10147000DF93009128021091290260E070E086E07D
:1014800008301807C1F4FB01EE0FFF1FE60FF71F2E
:10149000EE0FFF1FEE0FFF1FEB58FB4F268137812A
:1014A000408551858091380290913902A0913A028D
:1014B000B0913B021AC00830110509F5FB01EE0F8F
:1014C000FF1FE60FF71FEE0FFF1FEE0FFF1FEB587A
:1014D000FB4F26813781408551858091360290915E
:1014E0003702A0913802B0913902281739074A070C
:1014F0005B0729F484E690E09387828788C06F5F5A
:101500007F4F6530710509F0BACF20E030E0A901C6
:10151000440F551F420F531FEA01CC0FDD1FCC0FA4
:10152000DD1FCB58DB4FBE016A5F7F4F8E819F81ED
:10153000A885B9850097A105B10509F062C0E6E06C
:1015400008301E0749F5809122028883809123028A
:10155000898380912402FA01EE0FFF1FEE0FFF1F17
:10156000E958FB4F8083809125028B83809126026E
:10157000FA01EE0FFF1FEE0FFF1FE758FB4F8083AE
:10158000809127028D838091380290913902A09139
:101590003A02B0913B022BC008301105C1F5809191
:1015A0002202888380912302898380912402FA0198
:1015B000EE0FFF1FEE0FFF1FE958FB4F8083809156
:1015C00025028B8380912602FA01EE0FFF1FEE0F9A
:1015D000FF1FE758FB4F8083809127028D83809106
:1015E000360290913702A0913802B0913902FB0186
:1015F00080839183A283B38384E690E09B878A876C
:1016000006C02F5F3F4F2530310509F080CFDF91B5
:10161000CF911F910F9108951F93AB01BC0120E062
:1016200030E0122FF901EE0FFF1FE20FF31FEE0F54
:10163000FF1FEE0FFF1FEB58FB4F86819781A085A0
:10164000B18584179507A607B70731F02F5F3F4F85
:101650002530310531F715E0812F1F910895FF9254
:101660000F931F93182F092F20E030E0F22EF9017D
:10167000EE0FFF1FE20FF31FEE0FFF1FEE0FFF1F16
:10168000EB58FB4F86819781A085B185841795071C
:10169000A607B70731F02F5F3F4F2530310531F7EF
:1016A00026C0212F302FC901DC0140E050E08F2DF2
:1016B00090E09C01220F331F280F391F220F331F88
:1016C000220F331FF901E40FF51FEB58FB4F808108
:1016D0008C93FA01E358FA4F808116968C931697F3
:1016E0004F5F5F4F11964630510561F70FC0ADE770
:1016F000B5E0812F902F9C01F9019FEF90838D9190
:101700008683319685E0A338B807C1F71F910F9102
:10171000FF900895EF92FF920F931F93CF93DF9363
:101720007C018B01EC0111C0888199812296F82FF0
:10173000E0E0DF01A90FB11DCD01A0E0B0E0280F6E
:10174000391F4A1F5B1F625070406230710560F79D
:10175000F801EE7FEE0DFF1D00FF08C0908180E0D4
:10176000A0E0B0E0280F391F4A1F5B1FCA01AA275B
:10177000BB2740705070820F931FA41FB51F9D019F
:1017800044275527A070B070280F391F4A1F5B1FD0
:1017900020953095C901DF91CF911F910F91FF9056
:1017A000EF900895AF92BF92CF92DF92EF92FF92A7
:1017B0000F931F937C015A016B010E942F0B88E04D
:1017C00090E0F701958784878701025F1F4F80E4CF
:1017D00090E0F8019783868380E8808780910C02EF
:1017E00090910D02019690930D0280930C029483C8
:1017F000858385E4F7018687F8011182A08AB18A82
:10180000C28AD38A8091B5049091B604A091B7049E
:10181000B091B80484879587A687B7871386128608
:10182000C80164E170E020E030E040E050E00E9458
:101830008A0BF801928783871F910F91FF90EF9099
:10184000DF90CF90BF90AF9008956F927F928F926C
:101850009F92AF92BF92CF92DF92EF92FF920F933F
:101860001F93CF93DF938C01EC01A296BC01625FC2
:101870007F4FDB011C96CD90DD90ED90FC901F9783
:1018800040E050E0E6E1AE2EB12C4A9DF0014B9DC8
:10189000F00D5A9DF00D1124EE53FB4F8081918184
:1018A000A281B3818C159D05AE05BF0509F0A1C0CD
:1018B00024813581888199812817390709F099C0D9
:1018C00088859985AA85BB8580879187A287B387FC
:1018D0008C819D81AE81BF8184879587A687B787DC
:1018E0008D85808B83898F3F11F083E0838BFB0193
:1018F000F280E3802CEE3FEFE20EF31E8C8590E049
:10190000807F90709595879595958795E81AF90A47
:1019100000E010E086E190E0489FF001499FF00D63
:10192000589FF00D1124EE53FB4FA484B584C68458
:10193000D784248535854685578564847584868457
:10194000978484859585A685B785B82FAA2799277A
:101950008827AD2CBB24CC24DD248A0D9B1DAC1D17
:10196000BD1D207030705070232F342F452F552708
:10197000820F931FA41FB51F20E03FEF40E050E00F
:101980006222732284229522982C872C762C66243E
:10199000860D971DA81DB91D8E0D9F1DA01FB11F7F
:1019A000182F0027FF24EE242B2F332744275527F9
:1019B000E20EF31E041F151F9C01AD012070307054
:1019C0005070232F342F452F5527E20EF31E041F8E
:1019D000151F8070A070B070BA2FA92F982F88277C
:1019E000E80EF91E0A1F1B1FE486F5860687178777
:1019F0004FC04F5F5F4F4530510509F046CF20E0A3
:101A000030E066E170E0269FA001279F500D369FD1
:101A1000500D1124FA01EE53FB4F80819181A28178
:101A2000B3810097A105B10569F5C082D182E28238
:101A3000F382D80192968D919C919397958384839C
:101A40008A819B819783868388859985AA85BB85B2
:101A500080879187A287B3878C819D81AE81BF816A
:101A600084879587A687B7878D85808B128A118A90
:101A700083E0838B148AFA01E952FB4F80818E7FC9
:101A8000808306C02F5F3F4F2530310509F0BBCF63
:101A9000DF91CF911F910F91FF90EF90DF90CF904A
:101AA000BF90AF909F908F907F906F900895EF922E
:101AB000FF920F931F93CF93DF937B018C0120E064
:101AC00030E0C6E1D0E0622F2C9FF0012D9FF00D99
:101AD0003C9FF00D1124EE53FB4F80819181A28138
:101AE000B3818E159F05A007B10729F484819581E4
:101AF0008417950731F02F5F3F4F2530310519F7D7
:101B000065E0862FDF91CF911F910F91FF90EF90AD
:101B1000089520E001C02F5FA22FB0E0FD01EE0F7D
:101B2000FF1FEE0FFF1FE850FE4F0190F081E02DE8
:101B3000309789F09091400280914102E817F907AF
:101B400051F7AA0FBB1FAA0FBB1FA650BE4FED91A6
:101B5000FC9180E009950895CF93DF93582F40E0E2
:101B6000282F30E086E190E0289FE001299FD00DEA
:101B7000389FD00D1124C853DB4F01C04F5FA42FF5
:101B8000B0E0FD01EE0FFF1FEE0FFF1FEC51FE4F07
:101B90000190F081E02D309769F0288139818881AA
:101BA0009981892F9927322F2227820F931FE817B7
:101BB000F90721F7AA0FBB1FAA0FBB1FAA51BE4FDF
:101BC000ED91FC91852F0995DF91CF910895863095
:101BD00038F5282F30E086E190E0289FD001299F3A
:101BE000B00D389FB00D1124FD01EE53FB4F108254
:101BF0001182128213821582148217821682108635
:101C00001186128613861486158616861786108A04
:101C1000128A118A138AA952BB4F8C918E7F8C93A2
:101C200008954F925F926F927F928F929F92AF92A0
:101C3000BF92CF92DF92EF92FF920F931F93CF93B9
:101C4000DF93EC018AE2482E82E0582E70E086E1B4
:101C500090E0689FF001699FF00D789FF00D1124CE
:101C6000EE53FB4F8681978190933F0280933E0213
:101C70008481958190934102809340021092510299
:101C80001092500281E094EF90934D0280934C02A9
:101C900080E580934A02E484F584068517852485CF
:101CA000358546855785A484B584C684D7848485C4
:101CB0009585A685B785982E882477246624E12EFD
:101CC000FF24002711276E0C7F1C801E911E2070A0
:101CD00030705070232F342F452F5527620E731EFE
:101CE000841E951E80E09FEFA0E0B0E0A822B922FC
:101CF000CA22DB22DC2CCB2CBA2CAA246A0C7B1C3B
:101D00008C1C9D1C808980934B02808981FF16C0AA
:101D10000894611C711C811C911C82E0809352020A
:101D200084E08093530281E08093540284EF809397
:101D3000550280E680934A02C4E0D0E0562D442745
:101D400033272227892D9927AA27BB27280F391F38
:101D50004A1F5B1FD401C30180709070B070892F3F
:101D60009A2FAB2FBB27280F391F4A1F5B1F80E01C
:101D70009FEFA0E0B0E0682279228A229B22B82D52
:101D8000A72D962D8827280F391F4A1F5B1F2093E8
:101D9000460230934702409348025093490286E13D
:101DA00090E0689F8001699F100D789F100D1124AD
:101DB0000E531B4FF80180859185A285B3858093D2
:101DC000420290934302A0934402B0934502CE0195
:101DD0008896D20112969C93129713968C93139720
:101DE00086E019968C9340815181628173818CE1E8
:101DF00092E00E94D20B10924F0210924E0270910C
:101E00002C0260912D02685F7F4F80912A0290E042
:101E10008F709070880F991F880F991F681B790B1E
:101E2000625070409B0140E050E06E5F7F4F86E360
:101E300092E00E948A0B90934E0280934F02CE0153
:101E4000C6966CE172E00E94B21FF801108ADF9121
:101E5000CF911F910F91FF90EF90DF90CF90BF90A7
:101E6000AF909F908F907F906F905F904F9008956C
:101E70008F929F92AF92BF92DF92EF92FF920F9359
:101E80001F93CF93DF937B018C015A0149018BB7DC
:101E90008F7D8BBF20E030E046E150E0D22E249FC2
:101EA000E001259FD00D349FD00D1124CE53DB4F80
:101EB00088819981AA81BB810097A105B105F1F4C0
:101EC000822F0E94E70DE882F9820A831B83BD827C
:101ED000AC829F828E8282ED94E0A0E0B0E08887A1
:101EE0009987AA87BB8789E299E0A0E0B0E08C8758
:101EF0009D87AE87BF878EE18B8B06C0D3942F5F03
:101F00003F4F2530310551F62D2D30E086E190E030
:101F1000289FF001299FF00D389FF00D1124EE53FA
:101F2000FB4F82E0808B80E090E06D2D0E94110ECF
:101F30008BB780628BBFDF91CF911F910F91FF9084
:101F4000EF90DF90BF90AF909F908F900895682F93
:101F5000282F30E086E190E0289FF001299FF00DC6
:101F6000389FF00D1124EE53FB4F8FEF9FEF928BB4
:101F7000818B81E1808B80E090E00E94110E0895BA
:101F80007F928F929F92AF92BF92CF92DF92EF9209
:101F9000FF920F931F93CF93DF9320E001C02F5F39
:101FA000822E9924F401EE0FFF1FEE0FFF1FEC515C
:101FB000FE4F0190F081E02D309709F4ECC2909132
:101FC000400280914102E817F90749F790914B02CE
:101FD000892F8271823109F0C5C08CE192E00E94A4
:101FE000250C2091360230913702409138025091F1
:101FF0003902C0913E02D0913F0260E070E006E1FC
:1020000010E0609FF001619FF00D709FF00D1124B2
:10201000EE53FB4F80819181A281B3818217930798
:10202000A407B50729F4848195818C179D0731F0A9
:102030006F5F7F4F6530710521F7ADC2262F30E00D
:1020400086E190E0289F4001299F900C389F900CDA
:10205000112482EC94E0880E991E8EE1D4015396EF
:102060008C9353971C962D913D914D915C911F97A8
:102070001C96ED90FD900D911C911F971C96AD90B4
:10208000BD90CD90DC901F971C968D919D910D90E9
:10209000BC91A02D252F332744275527B82FAA27D9
:1020A00099278827280F391F4A1F5B1F2F5F3F4F33
:1020B0004F4F5F4F80E090E0AFEFB0E0E822F922B1
:1020C0000A231B23EF2CF02E012F11272E0D3F1D6D
:1020D000401F511F80E09FEFA0E0B0E0A822B9228E
:1020E000CA22DB22DC2CCB2CBA2CAA242A0D3B1DC5
:1020F0004C1D5D1D122F0027FF24EE24852F9927EC
:10210000AA27BB27E80EF91E0A1F1B1FDA01C90107
:1021100080709070B070892F9A2FAB2FBB27E80E7C
:10212000F91E0A1F1B1F207040705070542F432F40
:10213000322F2227E20EF31E041F151FD4011C9616
:10214000ED92FD920D931C931F9780E150968C9316
:1021500080E090E00E94110E81E090E0F401928B0B
:10216000818B19C2923009F045C08CE192E00E9447
:10217000250C20913602309137024091380250915F
:102180003902C0913E02D0913F0260E070E006E16A
:1021900010E0609FF001619FF00D709FF00D112421
:1021A000EE53FB4F80819181A281B3818217930707
:1021B000A407B50729F4848195818C179D0731F018
:1021C0006F5F7F4F6530710521F7E5C1262F30E045
:1021D00086E190E0289FF001299FF00D389FF00DD7
:1021E0001124EE53FB4F82E1808B80E090E00E944F
:1021F000110ED1C120913602309137024091380240
:102200005091390260913E0270913F02C0E0D0E0EF
:1022100006E110E07C2EC09FF001C19FF00DD09F21
:10222000F00D1124EE53FB4F80819181A281B38187
:1022300082179307A407B50729F48481958186172F
:10224000970729F02196C530D10521F79BC18CE174
:1022500092E00E94250C4C2F50E086E190E0489FD0
:10226000F001499FF00D589FF00D1124EE53FB4FE4
:10227000808980FD8EC08AC020913C0530913D054B
:1022800040913E0550913F05E0903C05F0903D05A2
:1022900000913E0510913F05A0903C05B0903D0592
:1022A000C0903E05D0903F0580913C0590913D0542
:1022B000A0913E05B0913F05252F33274427552790
:1022C000B82FAA2799278827280F391F4A1F5B1F75
:1022D0002F5F3F4F4F4F5F4F80E090E0AFEFB0E098
:1022E000E822F9220A231B23EF2CF02E012F1127BD
:1022F0002E0D3F1D401F511F80E09FEFA0E0B0E07A
:10230000A822B922CA22DB22DC2CCB2CBA2CAA248C
:102310002A0D3B1D4C1D5D1D122F0027FF24EE24AE
:10232000852F9927AA27BB27E80EF91E0A1F1B1F16
:10233000DA01C90180709070B070892F9A2FAB2F8D
:10234000BB27E80EF91E0A1F1B1F2070407050703B
:10235000542F432F322F2227E20EF31E041F151F86
:10236000E0923C05F0923D0500933E0510933F0539
:102370008091400580FF08C080E18093400580E0A7
:1023800090E065E00E94110E85E08EC0808982FF9A
:102390008EC086E190E0489FE001499FD00D589F94
:1023A000D00D1124CE53DB4F2C853D854E855F85A6
:1023B000EC84FD840E851F85AC84BD84CE84DF84CF
:1023C0008C859D85AE85BF85252F332744275527CE
:1023D000B82FAA2799278827280F391F4A1F5B1F64
:1023E0002F5F3F4F4F4F5F4F80E090E0AFEFB0E087
:1023F000E822F9220A231B23EF2CF02E012F1127AC
:102400002E0D3F1D401F511F80E09FEFA0E0B0E068
:10241000A822B922CA22DB22DC2CCB2CBA2CAA247B
:102420002A0D3B1D4C1D5D1D122F0027FF24EE249D
:10243000852F9927AA27BB27E80EF91E0A1F1B1F05
:10244000DA01C90180709070B070892F9A2FAB2F7C
:10245000BB27E80EF91E0A1F1B1F2070407050702A
:10246000542F432F322F2227E20EF31E041F151F75
:10247000EC86FD860E871F87888980FF14C0880C34
:10248000991C880C991CA6EEB1E08A0E9B1ED40103
:10249000ED91FC91872D099580E1888B80E090E09B
:1024A000672D0E94110E872D0E94E70D74C0808950
:1024B00083FF17C0808984FF14C0818992890196A7
:1024C000928B818B88E1808B880C991C880C991CDD
:1024D000E6EEF1E08E0E9F1ED401ED91FC918C2F63
:1024E0004FC086E190E0489F9001499F300D589F72
:1024F000300D1124F901EE53FB4F808984FF0AC08F
:10250000F901E952FB4F808180FD04C08081816028
:10251000808341C086E190E0489FF001499FF00D23
:10252000589FF00D1124DF01AE53BB4F50968C9194
:10253000509784FF30C0E952FB4F808180FF2BC051
:1025400051968D919C9152978F5F9F4F21F180E121
:1025500050968C93509751968D919C9152970196DD
:1025600052969C938E935197880C991C880C991CB9
:1025700086EE91E0880E991ED401ED91FC91872D95
:10258000099509C08CE192E00E94250C80914B02D4
:10259000857009F071CEDF91CF911F910F91FF905F
:1025A000EF90DF90CF90BF90AF909F908F907F90F3
:1025B0000895EF92FF920F931F93CF93DF93C0E0A4
:1025C000D0E006E110E083E0E82EB4E1FB2EC09FEE
:1025D000F001C19FF00DD09FF00D1124EE53FB4F81
:1025E0008389882319F580819181A281B381009725
:1025F000A105B10509F1E38A84898F5F848B81503D
:10260000863080F08BB78F7D8BBFF08A80E090E0C2
:102610006C2F0E94110E8BB780628BBF8C2F0E9493
:10262000E70D0AC08C2F0E94AC0D06C083898F3F36
:1026300019F083898150838B2196C530D10539F6F5
:10264000DF91CF911F910F91FF90EF9008958F929E
:102650009F92AF92BF92CF92DF92EF92FF920F9331
:102660001F935C01FEE3CF2EF2E0DF2EECEEEE2EA8
:10267000EFEFFE2EEC0CFD1C70933E0260933F02C8
:1026800050934002409341020896909342028093F7
:102690004302C5014C96F7019283838381E18187D0
:1026A0004EED842E4FEF942E8C0C9D1CC401B9016D
:1026B000A8010E94D20B1092450210924402F70129
:1026C00072816381685F7F4F808190E08F7090702E
:1026D000880F991F880F991F681B790B675F7F4FC1
:1026E0009B0140E050E069507040C60108970E948D
:1026F0008A0B9093440280934502C5018A96B401E7
:102700000E94B21F1F910F91FF90EF90DF90CF902A
:10271000BF90AF909F908F9008956F927F928F920D
:102720009F92AF92BF92CF92DF92EF92FF920F9360
:102730001F933B014C018AE2A82E82E0B82EB4E13F
:10274000CB2ED12CCA0CDB1C40933E02F601218318
:10275000F582E482178306831382128280E094E577
:1027600090932D0280932C0281E08093330282EFBC
:102770009FEFA80EB91EC501B401A3010E94D20BA0
:1027800070912C0260912D0280912A0290E08F704E
:102790009070880F991F880F991F681B790BC601CD
:1027A00020E030E040E050E00E948A0BF601928386
:1027B000838382E690E0B5010E94B21F1F910F91C2
:1027C000FF90EF90DF90CF90BF90AF909F908F9051
:1027D0007F906F9008950F931F9380912A0290919C
:1027E0002B028050914009F0C1C080912C02909141
:1027F0002D02089709F0BAC080912E02863009F0A8
:10280000B5C080912F02843009F0B0C020914202FF
:102810003091430240914402509145028091B504A9
:102820009091B604A091B704B091B8042817390765
:102830004A075B0709F09AC08091300290913102FB
:10284000E1E080309E0709F08CC00E94350A0AE260
:1028500012E00E50104040913802509139026091C0
:102860003A0270913B02C8010E942F0B88E096E06B
:10287000F801958784874091380250913902609120
:102880003A0270913B0220E030E0F901EE0FFF1FA9
:10289000E20FF31FEE0FFF1FEE0FFF1FEB58FB4F72
:1028A00086819781A085B18584179507A607B7070C
:1028B00031F02F5F3F4F2530310539F725C0AAE2AF
:1028C000B2E040E050E0822F90E09C01220F331FE5
:1028D000280F391F220F331F220F331FF901E40F76
:1028E000F51FEB58FB4F808152968C935297FA015B
:1028F000E358FA4F808118968C9318974F5F5F4F7B
:1029000011964630510551F780E092E090933102E4
:10291000809330028091380290913902A0913A025E
:10292000B0913B028093420290934302A0934402F1
:10293000B09345028091B5049091B604A091B7047C
:10294000B091B8048093380290933902A0933A0270
:10295000B0933B028CE390E06CE172E00E94B21F06
:1029600005C08050924011F40E94350A1F910F91CA
:102970000895EF92FF920F931F93809128029091F8
:10298000290226E08830920719F40E94EB13A9C0AF
:10299000089709F0A6C020913A0230913B0240917D
:1029A0003C0250913D028091B5049091B604A091F3
:1029B000B704B091B804281739074A075B0709F034
:1029C00090C00E94350A80913302813009F07FC0A7
:1029D00080913E028823C1F0883009F082C0609166
:1029E000360270913702809138029091390200913D
:1029F000440210914502E0904202F090430240E010
:102A000020E00E948D136DC000D000D000D083ED77
:102A100090E0EDB7FEB7928381838091360290916A
:102A20003702A0913802B09139029070A070B07056
:102A300083839483A583B6830E94AA088FEC90E0D9
:102A4000EDB7FEB7928381838091370290E0A0E0DA
:102A5000B0E083839483A583B6830E94AA088BEC9D
:102A600090E0EDB7FEB7928381838091380290E0C9
:102A7000A0E0B0E083839483A583B6830E94AA0874
:102A800087EC90E0EDB7FEB79283818380913602A8
:102A900090913702A0913802B09139028B2F99277B
:102AA000AA27BB2783839483A583B6830E94AA08A1
:102AB0000F900F900F900F908DEB90E0EDB7FEB759
:102AC000928381830E94AA080F900F900AC08630DB
:102AD00011F40E94C00F80913302813111F40E94E1
:102AE000890D1F910F91FF90EF9008958091B4048C
:102AF00081FF09C00E94D9120E9479098091B40413
:102B00008D7F8093B4048091B40480FD0DC008953E
:102B100088E592E06CE172E00E94261FFC01E75E0E
:102B2000FD4F10820E94B914B29BF2CF8091B40481
:102B30008E7F8093B4048BB780628BBF08958F9291
:102B40009F92AF92BF92CF92DF92EF92FF920F933C
:102B50001F93DF93CF93CDB7DEB7AA970FB6F89444
:102B6000DEBF0FBECDBF4B015C018E01015F1F4F69
:102B70008091B5049091B604A091B704B091B804C7
:102B800088259925AA25BB252091BD043091BE0436
:102B90004091BF045091C00482239323A423B52302
:102BA0000097A105B10519F47501640108C0C09032
:102BB000B904D090BA04E090BB04F090BC0488E063
:102BC00096E09E878D87CE010196B701A6010E94EF
:102BD0002F0B8091B5049091B604A091B704B091E9
:102BE000B804F80186879787A08BB18BC08ED18EF1
:102BF000E28EF38EADE7B5E08D918087128A319633
:102C000025E0A338B207C1F720E031E0F8013183B5
:102C1000208388E090E09383828386E0848384E04D
:102C20008583378326838AE290E0BE016F5F7F4F02
:102C30000E94B21F10E05AC0422FF901EE0FFF1F91
:102C4000E20FF31FEE0FFF1FEE0FFF1FEB58FB4FBE
:102C500086819781A085B18588159905AA05BB0550
:102C600031F02F5F3F4F2530310531F745E020E04F
:102C700030E0F901EE0FFF1FE20FF31FEE0FFF1F11
:102C8000EE0FFF1FEB58FB4F86819781A085B18522
:102C90008C159D05AE05BF0531F02F5F3F4F2530E8
:102CA000310539F73AC0453021F5822F90E0FC011B
:102CB000EE0FFF1FE80FF91FEE0FFF1FEE0FFF1FB4
:102CC000EB58FB4F86829782A086B18612C080E0C7
:102CD00090E000000196F7E280319F07D1F70E9453
:102CE00076151F5F143111F480E004C020E030E05D
:102CF000A3CF81E0AA960FB6F894DEBF0FBECDBF7A
:102D0000CF91DF911F910F91FF90EF90DF90CF90C7
:102D1000BF90AF909F908F9008954530C1F2E9CF5A
:102D2000CF92DF92EF92FF920F931F93DF93CF9397
:102D300000D000D0CDB7DEB78C016A017B010E94C4
:102D4000E42E8983C80101960E94E42E8A83C8017B
:102D500002960E94E42E8B83C80103960E94E42E03
:102D60008C8389819A81AB81BC818F3F2FEF920741
:102D70002FEFA2072FEFB20711F06C017D01B60112
:102D8000C7010F900F900F900F90CF91DF911F917F
:102D90000F91FF90EF90DF90CF9008950F931F93C6
:102DA0000E9467178EE190E04AE050E060E07BE52A
:102DB0000E9490166093B5047093B6048093B70494
:102DC0009093B80482E290E04FEF5FEF6FEF70E016
:102DD0000E9490166093BD047093BE048093BF045C
:102DE0009093C00486E290E04AE050E060E071E039
:102DF0000E9490166093B9047093BA048093BB0448
:102E00009093BC0410927D0582E280937E0589EF49
:102E100080937F0581E080938005109281058093E7
:102E2000820500D08AEF90E0ADB7BEB712969C93B2
:102E30008E9311970E94AA080F900F900E94FE1F78
:102E400000D081EF90E0EDB7FEB7928381830E94BE
:102E5000AA080F900F900CE112E08CE390E0B8010B
:102E60000E94B21F8CE390E0B8010E94B21F8DB7A0
:102E70009EB70A970FB6F8949EBF0FBE8DBFEDB7F1
:102E8000FEB7319686ED90E0ADB7BEB712969C9333
:102E90008E9311978091B504828313828091B6043A
:102EA000848315828091B704868317828091B80449
:102EB000808711860E94AA08EDB7FEB73A960FB632
:102EC000F894FEBF0FBEEDBF1F910F9108958EB510
:102ED0008D608EBD1DBC1CBC88E09DE39BBD8ABD82
:102EE00089B7806189BF08951F920F920FB60F9224
:102EF00011242F933F934F935F936F937F938F93FF
:102F00009F93AF93BF93EF93FF9380914705909169
:102F10004805A0914905B0914A050196A11DB11D32
:102F20008093470590934805A0934905B0934A05BF
:102F300080910E0290910F02A0911002B0911102A7
:102F40000196A11DB11D80930E0290930F02A093D4
:102F50001002B09311020197A109B109815B94405D
:102F6000A040B04050F010920E0210920F0210924A
:102F70001002109211020E94CE168091B404826059
:102F80008093B404FF91EF91BF91AF919F918F9186
:102F90007F916F915F914F913F912F910F900FBE55
:102FA0000F901F901895E0E0F0E0099408950895BF
:102FB00008952091840530918505409186055091B2
:102FC000870500D000D000D0EDB7FEB731968BEF6B
:102FD00092E0ADB7BEB712969C938E931197338350
:102FE0002283558344830E94AA088091840590918E
:102FF000850580918405909185052DB73EB72A5FA0
:103000003F4F0FB6F8943EBF0FBE2DBF089708F094
:1030100080C083B3209184053091850590E002C083
:10302000959587952A95E2F780FF10C045B32091CA
:1030300084053091850581E090E002C0880F991FDA
:103040002A95E2F78095842385BB0EC045B3209175
:1030500084053091850581E090E002C0880F991FBA
:103060002A95E2F7482B45BB85B385BB8091860541
:103070009091870537E28031930798F46AE070E019
:103080000E94642C9B0140E060E47CE904C0CB0119
:103090000197F1F74F5F842F90E082179307B8F301
:1030A00009C088EE93E020E931E0F9013197F1F7AA
:1030B0000197D9F783B3209184053091850590E07D
:1030C00002C0959587952A95E2F780FF12C045B317
:1030D000209184053091850581E090E002C0880F41
:1030E000991F2A95E2F78095842385BB85B385BB1C
:1030F000089545B3209184053091850581E090E0E5
:1031000002C0880F991F2A95E2F7482B45BB85B36B
:1031100085BB0895209184053091850540918605F1
:103120005091870500D000D000D0EDB7FEB73196A2
:1031300085E393E0ADB7BEB712969C938E9311973B
:1031400033832283558344830E94AA0840918605D5
:1031500050918705EDB7FEB736960FB6F894FEBFCF
:103160000FBEEDBF4130510561F485B32091840558
:103170003091850502C0440F551F2A95E2F7842B34
:1031800014C08091860590918705892B91F445B3F1
:10319000209184053091850581E090E002C0880F80
:1031A000991F2A95E2F78095842385BB85B385BB5B
:1031B000089500D085E193E0ADB7BEB712969C9319
:1031C0008E9311970E94AA080F900F9008958091F6
:1031D00084059091850580918405909185050897D7
:1031E000F8F423B3409184055091850500D000D0B8
:1031F00088E493E0EDB7FEB79283818381E090E0AD
:1032000002C0880F991F4A95E2F730E0822393238A
:10321000948383830E94AA080F900F900F900F90C1
:10322000089543B383B300D000D000D0EDB7FEB70C
:1032300031962FE733E0ADB7BEB712963C932E938D
:10324000119750E0417050705383428390E0827038
:10325000907095958795958384830E94AA0883B37F
:1032600043B363B300D0EDB7FEB7319626E633E043
:10327000ADB7BEB712963C932E93119790E0847031
:10328000907095958795959587959383828350E067
:103290004870507073E0559547957A95E1F75583DE
:1032A000448370E06071707044E0759567954A954D
:1032B000E1F7778366830E94AA0883B323B363B3DD
:1032C000EDB7FEB731964DE453E0ADB7BEB71296F9
:1032D0005C934E93119790E08072907035E09595D5
:1032E00087953A95E1F79383828330E020743070BC
:1032F00086E0359527958A95E1F735832483661F07
:103300006627661F668317820E94AA088DB79EB73C
:1033100008960FB6F8949EBF0FBE8DBF089580919A
:103320008405909185058091840590918505049789
:1033300018F529B3409184055091850500D000D03F
:1033400083E993E0ADB7BEB712969C938E93119725
:1033500081E090E002C0880F991F4A95E2F730E0C3
:103360008223932314969C938E9313970E94AA080A
:103370000F900F900F900F9080918405909185058C
:10338000049720F180918405909185050897F0F4C9
:10339000E0918405F091850500D000D080E993E0AC
:1033A000ADB7BEB712969C938E931197EE0FFF1F89
:1033B000E05AFF4F8081918114969C938E931397CE
:1033C0000E94AA080F900F900F900F9008950F93EE
:1033D0001F93CF93DF93E9B329B349B369B38DB793
:1033E0009EB70A970FB6F8949EBF0FBE8DBFADB7BC
:1033F000BEB7119682EA93E0CDB7DEB79A83898390
:10340000F0E0E170F0701396FC93EE93129730E0C9
:10341000227030703595279515963C932E9314970E
:1034200050E04470507055954795559547951796BF
:103430005C934E93169770E06870707093E075958A
:1034400067959A95E1F719967C936E9318970E9469
:10345000AA080F900F900F900F90EDB7FEB731961E
:1034600008E913E0ADB7BEB712961C930E931197FF
:1034700084E090E09383828380916800909169005A
:10348000958384830E94AA08EDB7FEB73196CDB725
:10349000DEB71A83098385E090E09383828380916D
:1034A0006A0090916B00958384830E94AA08EDB70F
:1034B000FEB73196ADB7BEB712961C930E93119717
:1034C00086E090E09383828380916C0090916D0000
:1034D000958384830E94AA08CDB7DEB726960FB6DF
:1034E000F894DEBF0FBECDBFDF91CF911F910F913A
:1034F0000895EF92FF921F93CF93DF93C6E0D1E040
:1035000063ECE62E63E0F62EFE012196149100D0C6
:1035100000D0EDB7FEB73196ADB7BEB71296FC92AC
:10352000EE921197128313820E94AA080F900F90B7
:103530000F900F90112341F7DF91CF911F91FF90D2
:10354000EF9008958DB79EB708970FB6F8949EBF79
:103550000FBE8DBFEDB7FEB7319686EC93E0ADB7E9
:10356000BEB712969C938E931197809183058283A8
:10357000138280911B02848315828091B304868319
:1035800017820E94AA088DB79EB708960FB6F894C6
:103590009EBF0FBE8DBF0895CF93DF93E09184054A
:1035A000F09185058091860590918705A0E6B0E0B1
:1035B000EE0FFF1FEA0FFB1F91838083409184056C
:1035C00050918505209184053091850500D000D06B
:1035D00000D0EDB7FEB731968CED93E0CDB7DEB7F6
:1035E0009A83898353834283220F331FA20FB31F11
:1035F0008D919C91958384830E94AA088DB79EB774
:1036000006960FB6F8949EBF0FBE8DBFDF91CF9187
:103610000895CF93DF93C0918405D09185052091C3
:1036200086053091870500D000D000D0EDB7FEB7F9
:1036300031968DEC92E0ADB7BEB712969C938E9307
:103640001197D383C283358324830E94AA088DB740
:103650009EB706960FB6F8949EBF0FBE8DBFE19938
:10366000FECF6091860570918705CE010E94EC2EF9
:10367000DF91CF9108950F931F93CF93DF938C0128
:103680008091840590918505892BA1F0C0E0D0E060
:10369000E199FECFFE01EE0FFF1FEC57FA4F60815C
:1036A0007181CE01800F911F0E94EC2E2196C430B3
:1036B000D10571F7DF91CF911F910F910895E19995
:1036C000FECF80918405909185050E94E42E409163
:1036D00084055091850500D000D000D0EDB7FEB72D
:1036E000319624EE32E0ADB7BEB712963C932E93DE
:1036F000119753834283848315820E94AA088DB751
:103700009EB706960FB6F8949EBF0FBE8DBF089564
:1037100086E290E00E943B1B86E290E04AE050E0A7
:1037200060E071E00E9490166093B9047093BA044F
:103730008093BB049093BC048DB79EB70A970FB6D5
:10374000F8949EBF0FBE8DBFEDB7FEB731968DEFDB
:1037500093E0ADB7BEB712969C938E93119780916C
:10376000B904828313828091BA0484831582809184
:10377000BB04868317828091BC04808711860E94D7
:10378000AA088DB79EB70A960FB6F8949EBF0FBED3
:103790008DBF089582E290E00E943B1B82E290E0A0
:1037A0004FEF5FEF6FEF70E00E9490166093BD04E3
:1037B0007093BE048093BF049093C0048DB79EB7EE
:1037C0000A970FB6F8949EBF0FBE8DBFEDB7FEB738
:1037D00031968AE194E0ADB7BEB712969C938E9372
:1037E00011978091BD04828313828091BE048483EB
:1037F00015828091BF04868317828091C0048087E0
:1038000011860E94AA088DB79EB70A960FB6F89443
:103810009EBF0FBE8DBF08958EE190E00E943B1BBE
:103820008EE190E04AE050E060E07BE50E94901677
:103830006093B5047093B6048093B7049093B80472
:103840008DB79EB70A970FB6F8949EBF0FBE8DBF77
:10385000EDB7FEB7319685E394E0ADB7BEB71296EB
:103860009C938E9311978091B504828313828091EB
:10387000B604848315828091B70486831782809171
:10388000B804808711860E94AA088DB79EB70A9651
:103890000FB6F8949EBF0FBE8DBF0895AF92BF9232
:1038A000CF92DF92EF92FF920F931F93DF93CF930C
:1038B00000D0CDB7DEB79A838983CE01019660EA46
:1038C00070E00E94A32E6C0110E00FC01F5FE12F7B
:1038D000F0E0EE0FFF1FEE0FFF1FEE5EFE4F808148
:1038E0009181892B11F480E048C0E12EFF24F7017B
:1038F000EE0FFF1FEE0FFF1FEE5EFE4F80819181E6
:10390000B6010E94292E892B09F700E010E05E0124
:103910000894A11CB11CC50162EA70E00E94A32EAC
:103920006C0160E070E040E050E00E949A2CF801E9
:10393000EE0FFF1FEC57FA4F7183608380819181F6
:10394000892B49F480910000882329F0D6018C91BD
:1039500090E0918380830F5F1F4F0A301105D9F6E5
:10396000EE0CFF1CEE0CFF1C84E191E0E80EF91E4A
:10397000D701ED91FC91099581E00F900F90CF91C7
:10398000DF911F910F91FF90EF90DF90CF90BF904C
:10399000AF900895CF93DF93EC01DB0134C086959F
:1039A0008695FD018193888183708295807F119631
:1039B0008C9311979981992321F4DF01119642E0AC
:1039C00026C092959F70890F11968C9311978981CB
:1039D0008F70880F880F12968C9312979A81992373
:1039E00019F4139641E013C09295969596959370AD
:1039F000890F12968C9312978A818F7313968C93EA
:103A00001397149623968881882349F640E01C92E8
:103A1000EB0108C0E881F0E0EF73F070E25BFB4F70
:103A2000E491E993CA17DB07A9F7FD01842F9DE311
:103A300002C0919381508823E1F7A40FB11D1C921D
:103A4000DF91CF910895FF920F931F93CF93DF9350
:103A5000C0919C00D0919D008091B1049091B204DE
:103A6000C817D90709F469C060E070E026E130E0CA
:103A7000F62E629FF001639FF00D729FF00D1124EE
:103A8000EE53FB4F868197818050974109F046C0E5
:103A90008091460580FD51C08091460581608093EC
:103AA000460580919E0090919F009093B204809370
:103AB000B10440E050E015C0FA01E45EFD4FD901C9
:103AC0008D9186ABB093B204A093B104AC57B540CE
:103AD00031F4205330403093B2042093B1044F5F4F
:103AE0005F4F2091B1043091B204C217D30721F780
:103AF00086E190E0689F8001699F100D789F100D0E
:103B000011240E531B4F88E1F801808BCA016F2DE1
:103B10000E94110E83E0F801838B0FC06F5F7F4F0F
:103B20006530710509F0A4CF8091C10482FF05C002
:103B30008091C1048B7F8093C104DF91CF911F914D
:103B40000F91FF9008951F93182F682F70E086E162
:103B500090E0689FF001699FF00D789FF00D1124AF
:103B6000EE53FB4F808980FF06C08091C1048B7F9C
:103B70008093C104A1C081899289892B21F0818918
:103B800092890197E1F486E190E0689FF001699FD6
:103B9000F00D789FF00D1124EE53FB4F81E090E083
:103BA000928B818B8091C10484608093C104809149
:103BB00046058E7F809346058FEF838B7DC081897C
:103BC00092890297F0F1808983FF3BC082E090E008
:103BD000928B818B20914A0230E0207F30703595A6
:103BE000279535952795F901B29680912D02482F9A
:103BF00050E04E5D5F4F90912C0280E0480F591FBE
:103C0000421B530BDF01A45EBD4F05C05D9BFECF81
:103C10008D918CB93196E417F507C4F386E190E0F5
:103C2000689FF001699FF00D789FF00D1124EE530D
:103C3000FB4F80E1808B80E090E0612F0E94110EAD
:103C40003BC086E190E0689FF001699FF00D789F8E
:103C5000F00D1124EE53FB4F818992890297B8F041
:103C6000808984FF14C08091460580FF10C08FEFCB
:103C7000838B8091B1049091B20490939F008093C4
:103C80009E00809146058E7F8093460515C086E193
:103C900090E0689FF001699FF00D789FF00D11246E
:103CA000EE53FB4F8089882339F4809146058E7F3F
:103CB000809346050E94231D1F91089587E190E09F
:103CC00063EA7DE10E94BE090895FC01C4988AE37D
:103CD0008FB9779BFECF07C01FB8779BFECF8FB100
:103CE00081936150704061157105B1F7C49A0895D0
:103CF000FC01C4988AE78FB9779BFECF81918FB979
:103D000061507040779BFECF61157105B9F7C49A79
:103D10000895C498962F9F71982B9FB9779BFECFDB
:103D20001FB8779BFECF67FF03C01FB8779BFECFFE
:103D30008FB1C49A0895C4988FB9779BFECF6FB99D
:103D4000779BFECFC49A0895FF920F931F93F62E90
:103D5000082F0F710B3198F4182F10768091C10540
:103D6000181769F01093C1058FEB63E00E949B1E4A
:103D70001295169517708FE9612F0E949B1E802F58
:103D800080646F2D0E949B1E1F910F91FF900895DC
:103D90000F931F93082F90E08F7190704B979CF4B6
:103DA000102F10768091C105181769F01093C10586
:103DB0008FEB63E00E949B1E1295169517708FE99A
:103DC000612F0E949B1E80E0602F0E94891E1F9120
:103DD0000F9108950F931F93982F162F072F84ED9F
:103DE000692F0E94A41E86ED612F0E94A41E87EDFC
:103DF000602F0E94A41E8AEE0E94C81E80FDFBCF89
:103E00001F910F9108950F931F93682F84ED0E94C7
:103E1000A41E82ED61E00E94A41E8AEE0E94C81ECC
:103E200080FDFBCF82ED60E00E94A41E89ED0E9420
:103E3000C81E182F00E088ED0E94C81E282F30E011
:103E4000202B312BC9011F910F910895EF92FF9202
:103E50000F931F93CF93DF93EC017B018CE10E94C2
:103E6000C81E86FD08C089E30E94C81E882319F475
:103E700000E010E06FC06091C2057091C30580E062
:103E80000E94A41E2091C2053091C30581E0632FDA
:103E90000E94A41E8AE360E00E94891E90E0909335
:103EA000C3058093C2050091C2051091C3058AE342
:103EB00060E00E94891E382F20E0202B312B3093A8
:103EC000C3052093C2058AE360E00E94891E082F83
:103ED00010E08AE360E00E94891E382F20E0022B68
:103EE000132B8AE360E00E94891E8AE360E00E944F
:103EF000891EC017D10708F48E01C701B8010E94BE
:103F0000651E8091C2059091C3058091C205909174
:103F1000C305019780509A4138F08CE06FEF0E9402
:103F2000A41E8DE069E110C06091C2057091C305C7
:103F300061508CE00E94A41E2091C2053091C305FF
:103F4000215030408DE0632F0E94A41E8EE960E472
:103F50000E949B1EC801DF91CF911F910F91FF908E
:103F6000EF900895CF92DF92EF92FF920F931F93FD
:103F7000CF93DF938C016B01C0E0D0E080EAE82EA4
:103F80008FE0F82E8FE10E94C81E83FF07C0C70193
:103F90000197F1F72196C233D105A1F782E060E0E5
:103FA0000E94A41E83E06AE10E94A41E86E0602FA6
:103FB0000E94A41E98012050364E87E0632F0E9475
:103FC000A41E8AE760E00E949B1EC601B8010E9401
:103FD000781E8FE960E80E949B1E8FEB60E80E94CC
:103FE0009B1E8FE96CE00E949B1EDF91CF911F9179
:103FF0000F91FF90EF90DF90CF900895CF93DF93D4
:104000008FEF8093C105BC9A87B3896087BBC49A40
:10401000C79A87B3886B87BBBE9880E58DB981E06E
:104020008EB980E090E0A0E0B0E000000196A11D14
:10403000B11D80342DE0920723E0A20720E0B207F3
:10404000A1F78FEF6FEF0E949B1E80E090E0A0E051
:10405000B0E000000196A11DB11D8034EDE09E0787
:10406000E3E0AE07E0E0BE07A1F7C0E0D0E001C0AA
:1040700021968DE10E94C81E80FD04C0FDEFC83E60
:10408000DF07B1F71092C3051092C205C0E9D4E072
:10409000FE0184912196FE0164910E94A41E219646
:1040A000F4E0CC3BDF07A1F780E160E071E00E9423
:1040B000EA1E8BE160EC0E94A41E8FE964E00E947E
:1040C0009B1E84E16AE477E30E94EA1E8FE10E946E
:1040D000C81E8093C00582E70E94C81E8093C00559
:1040E000DF91CF91089590E02DE030E0A901849F09
:1040F0009001859F300D949F300D1124E0EEF5E086
:10410000DF01A20FB31F8C91897F81608C93389758
:10411000E20FF31F13821282118210828C91877F2B
:104120008C9384EC95E09583848381EC91E0928775
:10413000818786EC91E09487838787ED91E0978370
:10414000868308950895CF93DF9340E050E0A82F31
:10415000B0E0C0E9D1E061E070E0CD01042E02C022
:10416000959587950A94E2F780FF4BC083B390E062
:10417000042E02C0959587950A94E2F780FF0CC043
:1041800085B39B01042E02C0220F331F0A94E2F76D
:104190002095282325BB0AC085B39B01042E02C0AD
:1041A000220F331F0A94E2F7822B85BB85B385BBB0
:1041B00088EB9BE0FE013197F1F70197D9F783B3C4
:1041C00090E0042E02C0959587950A94E2F780FF4F
:1041D0000CC085B39B01042E02C0220F331F0A942A
:1041E000E2F72095282325BB0AC085B39B01042E46
:1041F00002C0220F331F0A94E2F7822B85BB85B3DE
:1042000085BB4F5F5F4F4830510509F0A6CFDF9166
:10421000CF91089508952F923F924F925F926F929F
:104220007F928F929F92AF92BF92CF92DF92EF9246
:10423000FF920F931F93DF93CF93CDB7DEB7C25892
:10424000D0400FB6F894DEBF0FBECDBF482E682E0B
:1042500077248DE090E0689E9001699E300D789EF5
:10426000300D1124F901E052FA4F808180FD07C022
:10427000F901E852FA4F84EA9CE09383828386E155
:1042800090E0689EF001699EF00D789EF00D11247B
:10429000EE53FB4F8089882379F48DE090E0689E8F
:1042A000F001699EF00D789EF00D1124E852FA4F4E
:1042B00080819181938382838DE090E0689E90015C
:1042C000699E300D789E300D1124F901E852FA4FA5
:1042D00082819381918380831A821982BAED2B2E79
:1042E000B5E03B2E220E331EA2E0CA2ED12CCE0EFC
:1042F000DF1E73E0872E912C8C0E9D1E60E2562EE1
:1043000080C2D601ED91FC9111973196ED93FC930B
:104310003197E491245E3D4FD901D696EC93E53276
:1043200009F06AC2C101B4014CE152E09E012F5F65
:104330003F4F0E94C428882309F05EC2F601008125
:10434000118186E591E0B80143E050E00E94FF2D25
:10435000892BC1F50D5F1F4FF80184910F5F1F4F2F
:10436000F801649160512AE0829FC0011124680F16
:10437000E62FF0E0EE0FFF1FE05AFF4F80819181A2
:10438000B4014AE050E00E94BB2EC40160E870E036
:104390000E94982E082F10E089819A818E5A9D4F95
:1043A000B401A8010E94172E89819A810197800F7C
:1043B000911F9A838983D6018D919C9111970596BF
:1043C0008D939C93F601008111818AE591E0B801FB
:1043D00046E050E00E94FF2D892B09F0E7C0015014
:1043E0001040D6010D931C93BCC0E199FECFC701CC
:1043F0000E94E42E982F9F7082958F708A3018F457
:1044000040E3B42E02C037E3B32EB80E9A3018F44E
:1044100020E3A22E02C087E3A82EA90EC7018F7049
:1044200090708830910579F18930910530F40097CA
:1044300059F0049709F07AC031C08C30910571F1C0
:104440000F9709F073C035C0C701B4014AE050E0CE
:104450000E94BB2EC40160E870E00E94982E082FD5
:1044600010E089819A818E5A9D4FB401A8010E9463
:10447000172E89819A81800F911FFC01E45EFD4F08
:10448000BAE3B6AB05C0F801E45EFD4F56AAC80119
:104490000196FC01E45EFD4F56AA05C0F801E45EFA
:1044A000FD4F56AAC8010196FC01E45EFD4FB6AA75
:1044B00042C0F801E45EFD4FB6AAC8010196FC01B6
:1044C000E45EFD4FA6AA01969A838983C40167ED35
:1044D0007CE00E94F82DC40160E870E00E94982EF4
:1044E000082F10E089819A818E5A9D4FB401A8014E
:1044F0000E94172E29813A81200F311FF901E45EB5
:10450000FD4F8DE086AB2F5F3F4FF901E45EFD4F1D
:10451000AAE0A6AB8091DC019091DD010196909319
:10452000DD018093DC013A8329831BC0F801E45E3E
:10453000FD4FB6AAC8010196FC01E45EFD4FA6AA94
:104540000196FC01E45EFD4F56AA01969A83898389
:104550008091DC019091DD0101969093DD018093C3
:10456000DC01E090DC01F090DD01B0E0EB16B4E09E
:10457000FB0660F409811A81E2E008311E0708F4A5
:1045800034CFFFEFEF16F3E0FF0658F0D6018D9120
:104590009C91119707968D939C931092DD01109238
:1045A000DC0189819A8101979A838983F601608170
:1045B000718181E691E043E050E00E94FF2D892B5C
:1045C00009F049C08091830590E0B4014AE050E0D1
:1045D0000E94BB2E89E196E0B4010E94912E89E1F0
:1045E00096E065E671E00E94862E80911B028A307B
:1045F00030F489E196E067E671E00E94862E8091B2
:104600001B0290E0B4014AE050E00E94BB2E89E119
:1046100096E0B4010E94862E89E196E06AE070E09F
:104620000E94982E082F10E089819A818E5A9D4F02
:1046300069E176E0A8010E94172E89819A8101978D
:10464000800F911F9A838983D6018D919C91119738
:1046500003968D939C93F6010081118189E691E088
:10466000B80144E050E00E94FF2D892B09F051C0B1
:104670000B5F1F4FF8013491305301501040F80187
:104680006491633481F0643428F4613441F062341D
:10469000F1F407C0643449F06835C9F410C02BB395
:1046A00005C028B303C025B301C022B381E090E068
:1046B00002C0880F991F3A95E2F7282302C0209183
:1046C0007200222321F0C4016FEC7CE003C0C4011E
:1046D0006DEC7CE00E94F82DC40160E870E00E945F
:1046E000982E082F10E089819A818E5A9D4FB4012F
:1046F000A8010E94172E89819A810197800F911F2E
:104700009A838983D6018D919C91119706968D93FA
:104710009C93F601008111818EE691E0B80143E09F
:1047200050E00E94FF2D892B09F04BC00C5F1F4FFA
:10473000F8013491305301501040F8016491623413
:1047400061F0633418F46134D1F405C0633439F096
:104750006434A9F406C029B305C026B303C023B34B
:1047600001C020B381E090E002C0880F991F3A9504
:10477000E2F7282321F0C40163EC7CE003C0C4010C
:1047800069EB7CE00E94F82DC40160E870E00E94B3
:10479000982E082F10E089819A818E5A9D4FB4017E
:1047A000A8010E94172E89819A810197800F911F7D
:1047B0009A838983D6018D919C91119705968D934B
:1047C0009C93F6016081718182E791E043E050E0C3
:1047D0000E94FF2D892B81F486E190E0689EF00114
:1047E000699EF00D789EF00D1124EE53FB4F8DEF76
:1047F0009FEF928B818B0CC089819A8101969A835D
:10480000898329813A81F1E02C383F0708F479CD7A
:1048100086E190E0689EF001699EF00D789EF00DB3
:104820001124EE53FB4F88E1808B89819A81642D9E
:104830000E94110ECE57DF4F0FB6F894DEBF0FBEA9
:10484000CDBFCF91DF911F910F91FF90EF90DF903F
:10485000CF90BF90AF909F908F907F906F905F9020
:104860004F903F902F9008952F923F924F925F92DA
:104870006F927F928F929F92AF92BF92CF92DF9270
:10488000EF92FF920F931F93DF93CF93CDB7DEB7D5
:104890002B970FB6F894DEBF0FBECDBF89838091F2
:1048A0004A02682E772420EF622277247594679459
:1048B00075946794C301825C9D4F6CED7CE00E940F
:1048C000612E892B89F08981282F30E08DE090E0DE
:1048D000289FF001299FF00D389FF00D1124E05220
:1048E000FA4F8081886080839981892E99248DE098
:1048F00090E0889EA001899E500D989E500D112435
:10490000DA01A852BA4FBD016A5F7F4F1696ED914A
:10491000FC9117978081882309F45BC012E2E12E95
:10492000F12CE60CF71C80912D02282F30E02E5D33
:104930003F4F90912C0280E0280F391F261937092C
:104940008701045E1D4F40525A4F1496F4ECAF2E6F
:10495000F5E0BF2EE7EDCE2EE1E0DE2E37C0FA0106
:10496000808180FD18C0F8018081ED91FC91119744
:1049700091911196FC93EE93891719F01196BC92C0
:10498000AE92ED91FC9111978081882321F4FA0178
:10499000808181608083F8018081FB0140805180AB
:1049A000F20191912F01FB0151824082891711F090
:1049B000D182C0820F5F1F4FFB0180819181FC017A
:1049C0008081882331F00894E11CF11CE216F30683
:1049D00030F28DE090E0889E9001899E300D989E87
:1049E000300D1124F901E052FA4FE081E0FFA4C13B
:1049F000E3FFA2C142E2A42EB12CA60CB71C93E2A5
:104A0000292E312C260C371C8CE1E82E82E0F82E62
:104A1000EA0CFB1C0CE1402E02E0502E420C531C11
:104A20003F832E83C90188529A4F19E0612E712C61
:104A3000680E791E9C01255F3F4F398728875FC12B
:104A4000D7016C91D301ED91FC9111978191119651
:104A5000FC93EE93681721F0E1ECF1E0ED93FC9309
:104A6000D301ED91FC918081882329F5F701928192
:104A7000238181818435D1F49334C1F420538FEFA5
:104A800090E0022E02C0959587950A94E2F780FF88
:104A90000DC081E090E002C0880F991F2A95E2F7CF
:104AA0009C0180911602822B80931602E1ECF1E0CA
:104AB000D301ED93FC938091D001E82FF0E0E55312
:104AC000FE4F90818F5F8093D001691711F0109293
:104AD000D001E091D001F0E0E553FE4F80818823C2
:104AE000A9F5B501F501E45EFD4F02C06F5F7F4F90
:104AF000641775071CF481918632C1F7D7011196AE
:104B00008C911197803351F412968C91883731F43F
:104B1000645E7D4FC20140E150E005C0645E7D4FA0
:104B2000C2014AE050E00E949A2C709319026093EF
:104B3000180280911802909119028150944020F03F
:104B400010921902109218021092D001F7012081E0
:104B50008091D601E82FF0E0EF52FE4F90818F5FF9
:104B60008093D601291711F01092D601E091D60159
:104B7000F0E0EF52FE4F8081882309F06EC0BB86C3
:104B8000AA8680912D02282F30E02E5D3F4FF091B4
:104B90002C02FB831A828A819B81280F391F809106
:104BA0004A0290E0807F90709595879595958795BE
:104BB000281B390BF501E45EFD4F05C0AA85BB85B6
:104BC0001196BB87AA878A859B85821793071CF459
:104BD0008191863299F7D70111968C911197803384
:104BE000C1F412968C918837A1F4009118021091AB
:104BF0001902EA85FB85E45EFD4FFB87EA87C20167
:104C0000BF0140E150E00E949A2CC8010E94EC2EA6
:104C100022C08101ACE1CA2EA2E0DA2EC20CD31C64
:104C20000DC0019690931902809318020197D60146
:104C30006D916D010E94EC2E0F5F1F4FEA85FB8581
:104C40000E171F0744F48091180290911902F4E0A6
:104C500080309F0730F31092D601D7018C91A88540
:104C6000B985ED91FC91119791911196FC93EE937A
:104C7000891721F0E6ECF1E0ED93FC930894211CF8
:104C8000311C0894E11CF11C0894411C511CA8859E
:104C9000B985ED91FC918081882371F5EE81FF81CA
:104CA000E052FA4F8081877F808380E094E0909388
:104CB0001902809318021BBA1092120280911302FB
:104CC00085BB1092130212BA109214028091150241
:104CD00090E00E94A220109215028091160290E0AE
:104CE0000E94A320109216028091170290E00E9469
:104CF0000A211092170220C00894A11CB11C8091B7
:104D00002D02482F50E04E5D5F4FB0912C02BD83C5
:104D10001C82EC81FD814E0F5F1F80914A0290E062
:104D2000807F90709595879595958795481B590B31
:104D3000A416B50608F484CE8DE090E0889EF001BC
:104D4000899EF00D989EF00D1124E852FA4F828151
:104D50009381892B09F0A8C080914A0290E0807F5E
:104D600090709595879595958795FC01B7962091BC
:104D70002D02422F50E04E5D5F4F30912C0220E01B
:104D8000420F531F481B590BDF01A45EBD4F18C0D3
:104D90008D918D30A1F4E45EFD4F108280914A0226
:104DA000A82EBB24F0EFAF22BB24B594A794B594F2
:104DB000A7942EE332E0A20EB31E10E066C0319637
:104DC000E417F50728F3EACFC501B7010E943C2E8E
:104DD000892B09F459C08DE090E0889E5001899E8E
:104DE000B00C989EB00C112480EE95E0A80EB91E70
:104DF000D5011C9112601C93C70166E771E00E9407
:104E00003C2EC7016BE771E00E943C2E892B71F0AC
:104E10008DE090E0889EF001899EF00D989EF00D47
:104E20001124E052FA4F808182608083C70160E8DC
:104E300071E00E943C2E892B71F08DE090E0889EFD
:104E4000F001899EF00D989EF00D1124E052FA4F6A
:104E500080818D7F80838DE090E0889EF001899E27
:104E6000F00D989EF00D1124E852FA4FCC0CDD1C89
:104E7000CC0CDD1C23EB31E0C20ED31ED6018D918C
:104E80009C919383828310C01F5FC12EDD24F601A5
:104E9000EE0FFF1FEE0FFF1FEF54FE4FE080F1807B
:104EA000E114F10409F090CF8DE090E0889E90012C
:104EB000899E300D989E300D1124D901A852BA4F09
:104EC0001696ED91FC9117978081882331F4F901B2
:104ED000E052FA4FE081E3FF1BC086E190E0889E3C
:104EE0008001899E100D989E100D11240E531B4FAA
:104EF00080E1F801808B80E090E069810E94110ED2
:104F000081E090E0D80152969C938E935197C0C057
:104F1000E0FD35C086E190E0889E8001899E100DFD
:104F2000989E100D11240E531B4FF801808983FFAA
:104F300026C084EA9CE013969C938E9312978091EE
:104F40004A0290E0807F907095958795959587951A
:104F5000825C9D4F67E27CE04CE750E00E94EF2DC1
:104F600088E1D80150968C938CE790E069810E948B
:104F7000110E82E090E0F801928B818B89C08DE068
:104F800090E0889EF001899EF00D989EF00D11240E
:104F9000E852FA4F82819381892B39F580919A00EA
:104FA00090919B00019690939B0080939A00805172
:104FB000974221F410929B0010929A008DE090E0AD
:104FC000889EF001899EF00D989EF00D1124DF015E
:104FD000A852BA4F8CEB94E013969C938E93129741
:104FE000E052FA4F80818D7F808386E190E0889E39
:104FF0008001899E100D989E100D11240E531B4F99
:1050000082E090E0D80152969C938E9351978DE068
:1050100090E0889EF001899EF00D989EF00D11247D
:10502000E052FA4FE081E695E170E130A9F4809119
:105030004A0290E0807F9070959587959595879529
:10504000825C9D4F64ED7BE042E550E00E94EF2DD5
:1050500088E1F801808B17C0EE23D1F480914A02D9
:1050600090E0807F90709595879595958795825C67
:105070009D4F61E87BE042E550E00E94EF2D88E122
:10508000D80150968C9382E590E069810E94110EC0
:105090002B960FB6F894DEBF0FBECDBFCF91DF9138
:1050A0001F910F91FF90EF90DF90CF90BF90AF9046
:1050B0009F908F907F906F905F904F903F902F9038
:1050C00008951F93CF93DF93182FC82FD0E086E168
:1050D00090E0C89FF001C99FF00DD89FF00D1124FA
:1050E000EE53FB4F808980FD3EC0818992890197F4
:1050F00019F4812F0E94732086E190E0C89FF0018F
:10510000C99FF00DD89FF00D1124EE53FB4F8189FC
:105110009289039720F4812F0E94342424C081892E
:105120009289039748F0818992898E5F9F4F20F47E
:10513000812F0E940B2117C086E190E0C89FF001EB
:10514000C99FF00DD89FF00D1124EE53FB4F8189BC
:1051500092898E5F9F4F38F08EEF9FEF928B818BFD
:10516000812F0E94A70FDF91CF911F91089585E8AD
:1051700091E064EC75E00E94CA1C80E590E061E675
:1051800078E20E94BE0908952F923F924F925F925B
:105190006F927F928F929F92AF92BF92CF92DF9247
:1051A000EF92FF920F931F93DF93CF9300D000D025
:1051B0000F92CDB7DEB74C016B015A013B832A83B6
:1051C000D901ED90FC90FC01008111818EED91E000
:1051D000B80142E050E00E94FF2D892B11F080E0E1
:1051E00058C301501040D4010D931C9380911A02B2
:1051F000882309F01FC3C6016FE17EE00E94F82DED
:10520000C60160E870E00E94982E082F10E0C701E8
:10521000C6968A0D9B1DB601A8010E94172EE00EAE
:10522000F11EC60160ED7DE00E94F82DC60160E828
:1052300070E00E94982E082F10E0C701C6968A0DD4
:105240009B1DB601A8010E94172E80911A028F5F44
:1052500080931A02015010400E0D1F1DEA81FB8140
:105260001183008315C390E001973C0103E075941E
:1052700067940A95E1F717E0412E512C48225922F4
:10528000F1E06F167104C1F121E06216710448F07B
:1052900032E063167104B9F183E06816710479F5A0
:1052A00045C089B390E08F709070B6014AE050E03D
:1052B0000E94BB2EC60160E870E00E94982E082F65
:1052C00010E0C701C6968A0D9B1DB601A8010E9479
:1052D000172E01501040E00EF11E89B390E0B1E0AE
:1052E0008B2E912C042C02C0880C991C0A94E2F796
:1052F000882299222FE02BC080E180931A02882413
:10530000992420E024C083B390E0042C02C095953A
:1053100087950A94E2F780FF04C0A1E08A2E912CC1
:1053200002C08824992420E08FEF12C080B390E05F
:10533000042C02C0959587950A94E2F780FF04C07B
:10534000F1E08F2E912C02C08824992420EF80E078
:1053500090E0042C02C0959587950A94E2F780FDB1
:1053600002C0332409C080E090E0892811F481E074
:1053700090E04C01E4E53E2E822F90E0042C02C028
:10538000959587950A94E2F780FF06C0332009F4CB
:1053900098C276E4372E03C0332009F445C2C60113
:1053A00066EC7DE00E94F82DC60160E870E00E9486
:1053B000982E082F10E0C701C6968A0D9B1DB601D6
:1053C000A8010E94172E0E0D1F1D962D9F5B99831D
:1053D000F501E00FF11F96ABC801019660E3262EA0
:1053E000240CF501E80FF91F26AA7C010894E11CA2
:1053F000F11CC6016CEB7DE00E94F82DC60160E84F
:1054000070E00E94982EA82FB0E0BD83AC83085CAA
:105410001F4FC501800F911FB601AD010E94172ECD
:10542000B2E06B16710420F0C3018150904E01C0B0
:10543000C30153E0880F991F5A95E1F7EC81FD8174
:10544000EE0DFF1D840D951D44E0880F991F4A95B0
:10545000E1F736E4E32EF12CE80EF91EF5968F0104
:105460000A0D1B1DF597FD83EC8326E5622E712C3A
:10547000680E791E13C0C7010E94E42ED801119650
:105480008C93EC81FD813196FD83EC830F5F1F4F80
:105490000894E11CF11CE614F70421F0D8018C916A
:1054A000882349F7C60166EB7DE00E94F82DC6010E
:1054B00060E870E00E94982E082F10E08C819D819A
:1054C000C6968A0D9B1DB601A8010E94172EEC807E
:1054D000FD80E00EF11EB1E43B1609F449C0C6019F
:1054E00064E97DE00E94F82DC60160E870E00E944A
:1054F000982E082F10E0C701C6968A0D9B1DB60195
:10550000A8010E94172EE00EF11E8114910421F0D3
:10551000C6016CE87DE003C0C60164E87DE00E943E
:10552000F82DC60160E870E00E94982E082F10E068
:10553000C701C6968A0D9B1DB601A8010E94172EB1
:10554000E00EF11EC6016AE77DE00E94F82DC6015B
:1055500060E870E00E94982E082F10E0C701C69600
:105560008A0D9B1DB601A8010E94172EE00EF11EA8
:10557000C60165E77DE00E94F82DC60160E870E095
:105580000E94982E082F10E0C701C6968A0D9B1D19
:10559000B601A8010E94172E3701600E711EE6E4C5
:1055A0003E1641F4F501E60DF71D36AA0894611C7C
:1055B000711C70C0F3E53F1609F06CC0C6016DE5C3
:1055C0007DE00E94F82DC60160E870E00E94982EF0
:1055D000082F10E0C301C6968A0D9B1DB601A801D5
:1055E0000E94172E7301E00EF11E81149104B1F494
:1055F000C60165E57DE00E94F82DC60160E870E017
:105600000E94982E082F10E0C701C6968A0D9B1D98
:10561000B601A8010E94172EE00EF11EC60160E43B
:105620007DE00E94F82DC60160E870E00E94982E8F
:10563000082F10E0C701C6968A0D9B1DB601A80170
:105640000E94172E0E0D1F1DF501E00FF11F29817D
:1056500026ABC8010196F501E80FF91F26AA3C0107
:105660000894611C711CC6016DE37DE00E94F82D59
:10567000C60160E870E00E94982EE82EFF24085CC6
:105680001F4FC501800F911FB601A7010E94172E61
:105690006E0C7F1CC60167E37DE00E94F82DC601F9
:1056A00060E870E00E94982E082F10E0C301C696B3
:1056B0008A0D9B1DB601A8010E94172E7301E00EF2
:1056C000F11EC60162E37DE00E94F82DC60160E88C
:1056D00070E00E94982E082F10E0C701C6968A0D30
:1056E0009B1DB601A8010E94172E3701600E711E86
:1056F00034E5331609F06BC0C6016AE17DE00E9413
:10570000F82DC60160E870E00E94982E082F10E086
:10571000C301C6968A0D9B1DB601A8010E94172ED3
:105720007301E00EF11E8928B1F4C60162E17DE04B
:105730000E94F82DC60160E870E00E94982E082FA4
:1057400010E0C701C6968A0D9B1DB601A8010E94F4
:10575000172EE00EF11EC6016DEF7CE00E94F82DC1
:10576000C60160E870E00E94982E082F10E0C70183
:10577000C6968A0D9B1DB601A8010E94172E0E0D1C
:105780001F1DF501E00FF11F898186ABC80101964D
:10579000F501E80FF91F26AA3C010894611C711C51
:1057A000C6016AEF7CE00E94F82DC60160E870E057
:1057B0000E94982EE82EFF24085C1F4FC501800F21
:1057C000911FB601A7010E94172E6E0C7F1CC60107
:1057D00064EF7CE00E94F82DC60160E870E00E9452
:1057E000982E082F10E0C301C6968A0D9B1DB601A6
:1057F000A8010E94172E7301E00EF11EC6016CEE87
:105800007CE00E94F82DC60160E870E00E94982EAE
:10581000082F10E0C701C6968A0D9B1DB601A8018E
:105820000E94172EE00EF11E80911A028F5F809366
:105830001A0227C0813238F4B6ECEB16B1E0FB0651
:1058400008F411CD1EC010921A02C60161EE7CE070
:105850000E94F82DC60160E870E00E94982E082F83
:1058600010E0C701C6968A0D9B1DB601A8010E94D3
:10587000172EE00EF11EF401808191810396918331
:1058800080830894E108F108AA81BB81ED92FC9223
:1058900081E00F900F900F900F900F90CF91DF91BC
:1058A0001F910F91FF90EF90DF90CF90BF90AF903E
:1058B0009F908F907F906F905F904F903F902F9030
:1058C000089589E4382E6BCDAA1BBB1B51E107C09C
:1058D000AA1FBB1FA617B70710F0A61BB70B881F80
:1058E000991F5A95A9F780959095BC01CD0108950F
:1058F000A1E21A2EAA1BBB1BFD010DC0AA1FBB1FD4
:10590000EE1FFF1FA217B307E407F50720F0A21B45
:10591000B30BE40BF50B661F771F881F991F1A94B2
:1059200069F760957095809590959B01AC01BD01DC
:10593000CF0108952F923F925F926F927F928F9244
:105940009F92AF92BF92CF92DF92EF92FF920F930E
:105950001F93CF93DF938C011B01EA016115710541
:1059600019F0FB0191838083209749F0CE010297C3
:10597000839728F020E030E040E050E0F6C0F801E6
:10598000A1908F018A2D90E00E94E72D892BB9F715
:10599000FDE2AF1631F4F801A1908F015524539424
:1059A00007C0FBE2AF1619F4F801A1908F0155244E
:1059B000209719F0C031D105C1F4F0E3AF1679F4A6
:1059C000F8018081883711F0883549F4F801A18009
:1059D0000E5F1F4FF2E05F2AC0E1D0E006C02097C3
:1059E00021F480E3A816E9F427C0C830D10531F1CD
:1059F000C930D10524F4C230D10531F50CC0CA300C
:105A0000D10589F0C031D105F9F4C12CD12CE12C9C
:105A1000B8E0FB2E28C0C12CD12CE12CA0E4FA2E3A
:105A200022C0CAE0D0E0FCECCF2EFCECDF2EFCEC78
:105A3000EF2EFCE0FF2E17C0C8E0D0E0C12CD12C27
:105A4000E12CE0E1FE2E0FC09E01442737FD40957A
:105A5000542F60E070E080E090E80E94782CC9014B
:105A6000DA016C017D0120E030E040E050E060E0D0
:105A70003E01882477FC8094982C70EDB72EBA0CE8
:105A8000E9E0EB1570F48A2D81548A3118F499EC11
:105A9000B92E06C08A2D81568A3150F589EAB82E72
:105AA000BA0C8B2D90E08C179D0714F56F3FE1F039
:105AB000C216D306E406F506B0F0CA01B901A40186
:105AC00093010E94152F9B01AC012B0D311D411D2F
:105AD000511D2130F0E03F07F0E04F07F0E85F078D
